{
  "_format": "hh-sol-artifact-1",
  "contractName": "Marketplace",
  "sourceName": "contracts/Market.sol",
  "abi": [
    {
      "inputs": [
        {
          "internalType": "address",
          "name": "_nftAddress",
          "type": "address"
        },
        {
          "internalType": "address",
          "name": "_admin",
          "type": "address"
        }
      ],
      "stateMutability": "nonpayable",
      "type": "constructor"
    },
    {
      "anonymous": false,
      "inputs": [
        {
          "indexed": true,
          "internalType": "uint256",
          "name": "tokenId",
          "type": "uint256"
        },
        {
          "indexed": true,
          "internalType": "address",
          "name": "owner",
          "type": "address"
        }
      ],
      "name": "NFTCanceled",
      "type": "event"
    },
    {
      "anonymous": false,
      "inputs": [
        {
          "indexed": true,
          "internalType": "uint256",
          "name": "tokenId",
          "type": "uint256"
        },
        {
          "indexed": true,
          "internalType": "address",
          "name": "owner",
          "type": "address"
        },
        {
          "indexed": false,
          "internalType": "uint256",
          "name": "price",
          "type": "uint256"
        }
      ],
      "name": "NFTListed",
      "type": "event"
    },
    {
      "anonymous": false,
      "inputs": [
        {
          "indexed": true,
          "internalType": "uint256",
          "name": "tokenId",
          "type": "uint256"
        },
        {
          "indexed": true,
          "internalType": "address",
          "name": "buyer",
          "type": "address"
        },
        {
          "indexed": false,
          "internalType": "uint256",
          "name": "price",
          "type": "uint256"
        }
      ],
      "name": "NFTSold",
      "type": "event"
    },
    {
      "inputs": [],
      "name": "admin",
      "outputs": [
        {
          "internalType": "address",
          "name": "",
          "type": "address"
        }
      ],
      "stateMutability": "view",
      "type": "function"
    },
    {
      "inputs": [
        {
          "internalType": "uint256",
          "name": "_tokenId",
          "type": "uint256"
        }
      ],
      "name": "buyNFT",
      "outputs": [],
      "stateMutability": "payable",
      "type": "function"
    },
    {
      "inputs": [
        {
          "internalType": "uint256",
          "name": "_tokenId",
          "type": "uint256"
        }
      ],
      "name": "cancelNFT",
      "outputs": [],
      "stateMutability": "nonpayable",
      "type": "function"
    },
    {
      "inputs": [
        {
          "internalType": "uint256",
          "name": "_tokenId",
          "type": "uint256"
        }
      ],
      "name": "getNFT",
      "outputs": [
        {
          "components": [
            {
              "internalType": "address",
              "name": "owner",
              "type": "address"
            },
            {
              "internalType": "uint256",
              "name": "price",
              "type": "uint256"
            },
            {
              "internalType": "bool",
              "name": "sold",
              "type": "bool"
            }
          ],
          "internalType": "struct Marketplace.NFT",
          "name": "",
          "type": "tuple"
        }
      ],
      "stateMutability": "view",
      "type": "function"
    },
    {
      "inputs": [
        {
          "internalType": "uint256",
          "name": "_tokenId",
          "type": "uint256"
        },
        {
          "internalType": "uint256",
          "name": "_price",
          "type": "uint256"
        }
      ],
      "name": "listNFT",
      "outputs": [],
      "stateMutability": "nonpayable",
      "type": "function"
    },
    {
      "inputs": [
        {
          "internalType": "uint256",
          "name": "",
          "type": "uint256"
        }
      ],
      "name": "nfts",
      "outputs": [
        {
          "internalType": "address",
          "name": "owner",
          "type": "address"
        },
        {
          "internalType": "uint256",
          "name": "price",
          "type": "uint256"
        },
        {
          "internalType": "bool",
          "name": "sold",
          "type": "bool"
        }
      ],
      "stateMutability": "view",
      "type": "function"
    },
    {
      "inputs": [],
      "name": "token",
      "outputs": [
        {
          "internalType": "contract IERC721",
          "name": "",
          "type": "address"
        }
      ],
      "stateMutability": "view",
      "type": "function"
    }
  ],
  "bytecode": "0x60c06040526000600160006101000a81548160ff0219169083151502179055503480156200002c57600080fd5b50604051620015fa380380620015fa833981810160405281019062000052919062000210565b600073ffffffffffffffffffffffffffffffffffffffff168273ffffffffffffffffffffffffffffffffffffffff1603620000c4576040517f08c379a0000000000000000000000000000000000000000000000000000000008152600401620000bb90620002b8565b60405180910390fd5b600073ffffffffffffffffffffffffffffffffffffffff168173ffffffffffffffffffffffffffffffffffffffff160362000136576040517f08c379a00000000000000000000000000000000000000000000000000000000081526004016200012d906200032a565b60405180910390fd5b8173ffffffffffffffffffffffffffffffffffffffff1660808173ffffffffffffffffffffffffffffffffffffffff16815250508073ffffffffffffffffffffffffffffffffffffffff1660a08173ffffffffffffffffffffffffffffffffffffffff168152505050506200034c565b600080fd5b600073ffffffffffffffffffffffffffffffffffffffff82169050919050565b6000620001d882620001ab565b9050919050565b620001ea81620001cb565b8114620001f657600080fd5b50565b6000815190506200020a81620001df565b92915050565b600080604083850312156200022a5762000229620001a6565b5b60006200023a85828601620001f9565b92505060206200024d85828601620001f9565b9150509250929050565b600082825260208201905092915050565b7f496e76616c6964204e4654206164647265737300000000000000000000000000600082015250565b6000620002a060138362000257565b9150620002ad8262000268565b602082019050919050565b60006020820190508181036000830152620002d38162000291565b9050919050565b7f496e76616c69642061646d696e20616464726573730000000000000000000000600082015250565b60006200031260158362000257565b91506200031f82620002da565b602082019050919050565b60006020820190508181036000830152620003458162000303565b9050919050565b60805160a051611265620003956000396000818161020e0152610b970152600081816103040152818161066b015281816108c7015281816109fa0152610bbb01526112656000f3fe6080604052600436106100705760003560e01c8063576f7ea71161004e578063576f7ea7146100f957806394383f1414610136578063f851a4401461015f578063fc0c546a1461018a57610070565b8063265aa62114610075578063313e2eb9146100b457806351ed8288146100dd575b600080fd5b34801561008157600080fd5b5061009c60048036038101906100979190610c51565b6101b5565b6040516100ab93929190610ce9565b60405180910390f35b3480156100c057600080fd5b506100db60048036038101906100d69190610c51565b61020c565b005b6100f760048036038101906100f29190610c51565b610479565b005b34801561010557600080fd5b50610120600480360381019061011b9190610c51565b610806565b60405161012d9190610d8f565b60405180910390f35b34801561014257600080fd5b5061015d60048036038101906101589190610daa565b6108ad565b005b34801561016b57600080fd5b50610174610b95565b6040516101819190610dea565b60405180910390f35b34801561019657600080fd5b5061019f610bb9565b6040516101ac9190610e64565b60405180910390f35b60006020528060005260406000206000915090508060000160009054906101000a900473ffffffffffffffffffffffffffffffffffffffff16908060010154908060020160009054906101000a900460ff16905083565b7f000000000000000000000000000000000000000000000000000000000000000073ffffffffffffffffffffffffffffffffffffffff163373ffffffffffffffffffffffffffffffffffffffff161461029a576040517f08c379a000000000000000000000000000000000000000000000000000000000815260040161029190610edc565b60405180910390fd5b600080600083815260200190815260200160002090508060020160009054906101000a900460ff1615610302576040517f08c379a00000000000000000000000000000000000000000000000000000000081526004016102f990610f48565b60405180910390fd5b7f000000000000000000000000000000000000000000000000000000000000000073ffffffffffffffffffffffffffffffffffffffff166342842e0e308360000160009054906101000a900473ffffffffffffffffffffffffffffffffffffffff16856040518463ffffffff1660e01b815260040161038393929190610f68565b600060405180830381600087803b15801561039d57600080fd5b505af11580156103b1573d6000803e3d6000fd5b505050508060000160009054906101000a900473ffffffffffffffffffffffffffffffffffffffff1673ffffffffffffffffffffffffffffffffffffffff16827f15e2682218ceabb830ebfc19aa0df5aa866d8e78629ab45780aaf3d8db4f125960405160405180910390a3600080838152602001908152602001600020600080820160006101000a81549073ffffffffffffffffffffffffffffffffffffffff021916905560018201600090556002820160006101000a81549060ff021916905550505050565b600160009054906101000a900460ff16156104c9576040517f08c379a00000000000000000000000000000000000000000000000000000000081526004016104c090610feb565b60405180910390fd5b60018060006101000a81548160ff021916908315150217905550600080600083815260200190815260200160002090508060020160009054906101000a900460ff161561054b576040517f08c379a000000000000000000000000000000000000000000000000000000000815260040161054290610f48565b60405180910390fd5b34816001015414610591576040517f08c379a000000000000000000000000000000000000000000000000000000000815260040161058890611057565b60405180910390fd5b3373ffffffffffffffffffffffffffffffffffffffff168160000160009054906101000a900473ffffffffffffffffffffffffffffffffffffffff1673ffffffffffffffffffffffffffffffffffffffff1603610623576040517f08c379a000000000000000000000000000000000000000000000000000000000815260040161061a906110c3565b60405180910390fd5b60018160020160006101000a81548160ff02191690831515021790555060008160000160009054906101000a900473ffffffffffffffffffffffffffffffffffffffff1690507f000000000000000000000000000000000000000000000000000000000000000073ffffffffffffffffffffffffffffffffffffffff166342842e0e3033866040518463ffffffff1660e01b81526004016106c693929190610f68565b600060405180830381600087803b1580156106e057600080fd5b505af11580156106f4573d6000803e3d6000fd5b505050508073ffffffffffffffffffffffffffffffffffffffff166108fc349081150290604051600060405180830381858888f1935050505015801561073e573d6000803e3d6000fd5b503373ffffffffffffffffffffffffffffffffffffffff16837f6329e40c0365262ebbff5ca819385c2b9713dcaa050ed07866d72c441395699a3460405161078691906110e3565b60405180910390a3600080848152602001908152602001600020600080820160006101000a81549073ffffffffffffffffffffffffffffffffffffffff021916905560018201600090556002820160006101000a81549060ff0219169055505050506000600160006101000a81548160ff02191690831515021790555050565b61080e610bdd565b6000808381526020019081526020016000206040518060600160405290816000820160009054906101000a900473ffffffffffffffffffffffffffffffffffffffff1673ffffffffffffffffffffffffffffffffffffffff1673ffffffffffffffffffffffffffffffffffffffff168152602001600182015481526020016002820160009054906101000a900460ff1615151515815250509050919050565b813373ffffffffffffffffffffffffffffffffffffffff167f000000000000000000000000000000000000000000000000000000000000000073ffffffffffffffffffffffffffffffffffffffff16636352211e836040518263ffffffff1660e01b815260040161091e91906110e3565b602060405180830381865afa15801561093b573d6000803e3d6000fd5b505050506040513d601f19601f8201168201806040525081019061095f919061112a565b73ffffffffffffffffffffffffffffffffffffffff16146109b5576040517f08c379a00000000000000000000000000000000000000000000000000000000081526004016109ac906111a3565b60405180910390fd5b600082116109f8576040517f08c379a00000000000000000000000000000000000000000000000000000000081526004016109ef9061120f565b60405180910390fd5b7f000000000000000000000000000000000000000000000000000000000000000073ffffffffffffffffffffffffffffffffffffffff166323b872dd3330866040518463ffffffff1660e01b8152600401610a5593929190610f68565b600060405180830381600087803b158015610a6f57600080fd5b505af1158015610a83573d6000803e3d6000fd5b5050505060405180606001604052803373ffffffffffffffffffffffffffffffffffffffff1681526020018381526020016000151581525060008085815260200190815260200160002060008201518160000160006101000a81548173ffffffffffffffffffffffffffffffffffffffff021916908373ffffffffffffffffffffffffffffffffffffffff1602179055506020820151816001015560408201518160020160006101000a81548160ff0219169083151502179055509050503373ffffffffffffffffffffffffffffffffffffffff16837f5f9c03de076f5063cd3ebcfe8ef7aa8af378e4b35a83c77ba9777e97083879a284604051610b8891906110e3565b60405180910390a3505050565b7f000000000000000000000000000000000000000000000000000000000000000081565b7f000000000000000000000000000000000000000000000000000000000000000081565b6040518060600160405280600073ffffffffffffffffffffffffffffffffffffffff168152602001600081526020016000151581525090565b600080fd5b6000819050919050565b610c2e81610c1b565b8114610c3957600080fd5b50565b600081359050610c4b81610c25565b92915050565b600060208284031215610c6757610c66610c16565b5b6000610c7584828501610c3c565b91505092915050565b600073ffffffffffffffffffffffffffffffffffffffff82169050919050565b6000610ca982610c7e565b9050919050565b610cb981610c9e565b82525050565b610cc881610c1b565b82525050565b60008115159050919050565b610ce381610cce565b82525050565b6000606082019050610cfe6000830186610cb0565b610d0b6020830185610cbf565b610d186040830184610cda565b949350505050565b610d2981610c9e565b82525050565b610d3881610c1b565b82525050565b610d4781610cce565b82525050565b606082016000820151610d636000850182610d20565b506020820151610d766020850182610d2f565b506040820151610d896040850182610d3e565b50505050565b6000606082019050610da46000830184610d4d565b92915050565b60008060408385031215610dc157610dc0610c16565b5b6000610dcf85828601610c3c565b9250506020610de085828601610c3c565b9150509250929050565b6000602082019050610dff6000830184610cb0565b92915050565b6000819050919050565b6000610e2a610e25610e2084610c7e565b610e05565b610c7e565b9050919050565b6000610e3c82610e0f565b9050919050565b6000610e4e82610e31565b9050919050565b610e5e81610e43565b82525050565b6000602082019050610e796000830184610e55565b92915050565b600082825260208201905092915050565b7f4e6f74207468652061646d696e00000000000000000000000000000000000000600082015250565b6000610ec6600d83610e7f565b9150610ed182610e90565b602082019050919050565b60006020820190508181036000830152610ef581610eb9565b9050919050565b7f4e465420616c726561647920736f6c6400000000000000000000000000000000600082015250565b6000610f32601083610e7f565b9150610f3d82610efc565b602082019050919050565b60006020820190508181036000830152610f6181610f25565b9050919050565b6000606082019050610f7d6000830186610cb0565b610f8a6020830185610cb0565b610f976040830184610cbf565b949350505050565b7f5265656e7472616e742063616c6c000000000000000000000000000000000000600082015250565b6000610fd5600e83610e7f565b9150610fe082610f9f565b602082019050919050565b6000602082019050818103600083015261100481610fc8565b9050919050565b7f496e636f72726563742070726963650000000000000000000000000000000000600082015250565b6000611041600f83610e7f565b915061104c8261100b565b602082019050919050565b6000602082019050818103600083015261107081611034565b9050919050565b7f43616e6e6f742062757920796f7572206f776e204e4654000000000000000000600082015250565b60006110ad601783610e7f565b91506110b882611077565b602082019050919050565b600060208201905081810360008301526110dc816110a0565b9050919050565b60006020820190506110f86000830184610cbf565b92915050565b61110781610c9e565b811461111257600080fd5b50565b600081519050611124816110fe565b92915050565b6000602082840312156111405761113f610c16565b5b600061114e84828501611115565b91505092915050565b7f4e6f7420746865206f776e657200000000000000000000000000000000000000600082015250565b600061118d600d83610e7f565b915061119882611157565b602082019050919050565b600060208201905081810360008301526111bc81611180565b9050919050565b7f5072696365206d7573742062652067726561746572207468616e207a65726f00600082015250565b60006111f9601f83610e7f565b9150611204826111c3565b602082019050919050565b60006020820190508181036000830152611228816111ec565b905091905056fea26469706673582212200dd1c249882c483762d89d130bf084fe7054773c8be509ab3e0c5827de843e0064736f6c63430008180033",
  "linkReferences": {},
  "deployedLinkReferences": {}
}