{
  "_format": "hh-sol-artifact-1",
  "contractName": "Marketplace",
  "sourceName": "contracts/Market.sol",
  "abi": [
    {
      "inputs": [
        {
          "internalType": "address",
          "name": "_nftAddress",
          "type": "address"
        },
        {
          "internalType": "address",
          "name": "_admin",
          "type": "address"
        }
      ],
      "stateMutability": "nonpayable",
      "type": "constructor"
    },
    {
      "anonymous": false,
      "inputs": [
        {
          "indexed": true,
          "internalType": "uint256",
          "name": "tokenId",
          "type": "uint256"
        },
        {
          "indexed": true,
          "internalType": "address",
          "name": "owner",
          "type": "address"
        },
        {
          "indexed": false,
          "internalType": "uint256",
          "name": "price",
          "type": "uint256"
        }
      ],
      "name": "NFTCanceled",
      "type": "event"
    },
    {
      "anonymous": false,
      "inputs": [
        {
          "indexed": true,
          "internalType": "uint256",
          "name": "tokenId",
          "type": "uint256"
        },
        {
          "indexed": true,
          "internalType": "address",
          "name": "owner",
          "type": "address"
        },
        {
          "indexed": false,
          "internalType": "uint256",
          "name": "price",
          "type": "uint256"
        }
      ],
      "name": "NFTListed",
      "type": "event"
    },
    {
      "anonymous": false,
      "inputs": [
        {
          "indexed": true,
          "internalType": "uint256",
          "name": "tokenId",
          "type": "uint256"
        },
        {
          "indexed": true,
          "internalType": "address",
          "name": "owner",
          "type": "address"
        },
        {
          "indexed": false,
          "internalType": "uint256",
          "name": "price",
          "type": "uint256"
        }
      ],
      "name": "NFTSold",
      "type": "event"
    },
    {
      "inputs": [],
      "name": "admin",
      "outputs": [
        {
          "internalType": "address",
          "name": "",
          "type": "address"
        }
      ],
      "stateMutability": "view",
      "type": "function"
    },
    {
      "inputs": [
        {
          "internalType": "uint256",
          "name": "_tokenId",
          "type": "uint256"
        }
      ],
      "name": "buyNFT",
      "outputs": [],
      "stateMutability": "payable",
      "type": "function"
    },
    {
      "inputs": [
        {
          "internalType": "uint256",
          "name": "_tokenId",
          "type": "uint256"
        }
      ],
      "name": "cancelNFT",
      "outputs": [],
      "stateMutability": "nonpayable",
      "type": "function"
    },
    {
      "inputs": [],
      "name": "getListedNFTs",
      "outputs": [
        {
          "internalType": "uint256[]",
          "name": "",
          "type": "uint256[]"
        }
      ],
      "stateMutability": "view",
      "type": "function"
    },
    {
      "inputs": [
        {
          "internalType": "uint256",
          "name": "_tokenId",
          "type": "uint256"
        }
      ],
      "name": "getNFT",
      "outputs": [
        {
          "components": [
            {
              "internalType": "uint256",
              "name": "tokenId",
              "type": "uint256"
            },
            {
              "internalType": "address",
              "name": "owner",
              "type": "address"
            },
            {
              "internalType": "uint256",
              "name": "price",
              "type": "uint256"
            },
            {
              "internalType": "bool",
              "name": "sold",
              "type": "bool"
            }
          ],
          "internalType": "struct Marketplace.NFT",
          "name": "",
          "type": "tuple"
        }
      ],
      "stateMutability": "view",
      "type": "function"
    },
    {
      "inputs": [],
      "name": "id",
      "outputs": [
        {
          "internalType": "uint256",
          "name": "",
          "type": "uint256"
        }
      ],
      "stateMutability": "view",
      "type": "function"
    },
    {
      "inputs": [
        {
          "internalType": "uint256",
          "name": "_tokenId",
          "type": "uint256"
        },
        {
          "internalType": "uint256",
          "name": "_price",
          "type": "uint256"
        }
      ],
      "name": "listNFT",
      "outputs": [],
      "stateMutability": "nonpayable",
      "type": "function"
    },
    {
      "inputs": [
        {
          "internalType": "uint256",
          "name": "",
          "type": "uint256"
        }
      ],
      "name": "listedNFTs",
      "outputs": [
        {
          "internalType": "uint256",
          "name": "",
          "type": "uint256"
        }
      ],
      "stateMutability": "view",
      "type": "function"
    },
    {
      "inputs": [],
      "name": "nftAddress",
      "outputs": [
        {
          "internalType": "address",
          "name": "",
          "type": "address"
        }
      ],
      "stateMutability": "view",
      "type": "function"
    },
    {
      "inputs": [
        {
          "internalType": "uint256",
          "name": "",
          "type": "uint256"
        }
      ],
      "name": "nfts",
      "outputs": [
        {
          "internalType": "uint256",
          "name": "tokenId",
          "type": "uint256"
        },
        {
          "internalType": "address",
          "name": "owner",
          "type": "address"
        },
        {
          "internalType": "uint256",
          "name": "price",
          "type": "uint256"
        },
        {
          "internalType": "bool",
          "name": "sold",
          "type": "bool"
        }
      ],
      "stateMutability": "view",
      "type": "function"
    },
    {
      "inputs": [],
      "name": "seller",
      "outputs": [
        {
          "internalType": "address payable",
          "name": "",
          "type": "address"
        }
      ],
      "stateMutability": "view",
      "type": "function"
    }
  ],
  "bytecode": "0x60806040523480156200001157600080fd5b50604051620017c2380380620017c283398181016040528101906200003791906200012a565b816000806101000a81548173ffffffffffffffffffffffffffffffffffffffff021916908373ffffffffffffffffffffffffffffffffffffffff16021790555080600260006101000a81548173ffffffffffffffffffffffffffffffffffffffff021916908373ffffffffffffffffffffffffffffffffffffffff160217905550505062000171565b600080fd5b600073ffffffffffffffffffffffffffffffffffffffff82169050919050565b6000620000f282620000c5565b9050919050565b6200010481620000e5565b81146200011057600080fd5b50565b6000815190506200012481620000f9565b92915050565b60008060408385031215620001445762000143620000c0565b5b6000620001548582860162000113565b9250506020620001678582860162000113565b9150509250929050565b61164180620001816000396000f3fe60806040526004361061009c5760003560e01c8063576f7ea711610064578063576f7ea71461017c5780635bf8633a146101b957806394383f14146101e4578063a01dc41f1461020d578063af640d0f1461024a578063f851a440146102755761009c565b8063012386f0146100a157806308551a53146100cc578063265aa621146100f7578063313e2eb91461013757806351ed828814610160575b600080fd5b3480156100ad57600080fd5b506100b66102a0565b6040516100c39190610fee565b60405180910390f35b3480156100d857600080fd5b506100e16102f8565b6040516100ee9190611051565b60405180910390f35b34801561010357600080fd5b5061011e6004803603810190610119919061109d565b61031e565b60405161012e9493929190611115565b60405180910390f35b34801561014357600080fd5b5061015e6004803603810190610159919061109d565b61037b565b005b61017a6004803603810190610175919061109d565b6105ae565b005b34801561018857600080fd5b506101a3600480360381019061019e919061109d565b610a35565b6040516101b091906111cd565b60405180910390f35b3480156101c557600080fd5b506101ce610ae7565b6040516101db91906111e8565b60405180910390f35b3480156101f057600080fd5b5061020b60048036038101906102069190611203565b610b0b565b005b34801561021957600080fd5b50610234600480360381019061022f919061109d565b610dd0565b6040516102419190611243565b60405180910390f35b34801561025657600080fd5b5061025f610df4565b60405161026c9190611243565b60405180910390f35b34801561028157600080fd5b5061028a610dfa565b60405161029791906111e8565b60405180910390f35b606060058054806020026020016040519081016040528092919081815260200182805480156102ee57602002820191906000526020600020905b8154815260200190600101908083116102da575b5050505050905090565b600160009054906101000a900473ffffffffffffffffffffffffffffffffffffffff1681565b60046020528060005260406000206000915090508060000154908060010160009054906101000a900473ffffffffffffffffffffffffffffffffffffffff16908060020154908060030160009054906101000a900460ff16905084565b600260009054906101000a900473ffffffffffffffffffffffffffffffffffffffff1673ffffffffffffffffffffffffffffffffffffffff163373ffffffffffffffffffffffffffffffffffffffff16146103d557600080fd5b600015156004600083815260200190815260200160002060030160009054906101000a900460ff1615151461040957600080fd5b60008054906101000a900473ffffffffffffffffffffffffffffffffffffffff1673ffffffffffffffffffffffffffffffffffffffff166323b872dd30600160009054906101000a900473ffffffffffffffffffffffffffffffffffffffff16846040518463ffffffff1660e01b8152600401610488939291906112bd565b600060405180830381600087803b1580156104a257600080fd5b505af11580156104b6573d6000803e3d6000fd5b505050506104c381610e20565b600460008281526020019081526020016000206000808201600090556001820160006101000a81549073ffffffffffffffffffffffffffffffffffffffff021916905560028201600090556003820160006101000a81549060ff02191690555050600160009054906101000a900473ffffffffffffffffffffffffffffffffffffffff1673ffffffffffffffffffffffffffffffffffffffff16817f84defb700b22b1a814f0d4c9c336c9e7f74992d65f9e19c5f85916042d69be5260046000858152602001908152602001600020600201546040516105a39190611243565b60405180910390a350565b600015156004600083815260200190815260200160002060030160009054906101000a900460ff16151514610618576040517f08c379a000000000000000000000000000000000000000000000000000000000815260040161060f90611351565b60405180910390fd5b34600460008381526020019081526020016000206002015414610670576040517f08c379a0000000000000000000000000000000000000000000000000000000008152600401610667906113bd565b60405180910390fd5b3373ffffffffffffffffffffffffffffffffffffffff166004600083815260200190815260200160002060010160009054906101000a900473ffffffffffffffffffffffffffffffffffffffff1673ffffffffffffffffffffffffffffffffffffffff1603610714576040517f08c379a000000000000000000000000000000000000000000000000000000000815260040161070b90611429565b60405180910390fd5b60016004600083815260200190815260200160002060030160006101000a81548160ff0219169083151502179055506000600460008381526020019081526020016000206002018190555060008054906101000a900473ffffffffffffffffffffffffffffffffffffffff1673ffffffffffffffffffffffffffffffffffffffff1663095ea7b33360046000858152602001908152602001600020600001546040518363ffffffff1660e01b81526004016107d0929190611449565b600060405180830381600087803b1580156107ea57600080fd5b505af11580156107fe573d6000803e3d6000fd5b5050505060008054906101000a900473ffffffffffffffffffffffffffffffffffffffff1673ffffffffffffffffffffffffffffffffffffffff166323b872dd303360046000868152602001908152602001600020600001546040518463ffffffff1660e01b815260040161087593929190611472565b600060405180830381600087803b15801561088f57600080fd5b505af11580156108a3573d6000803e3d6000fd5b505050506004600082815260200190815260200160002060010160009054906101000a900473ffffffffffffffffffffffffffffffffffffffff1673ffffffffffffffffffffffffffffffffffffffff166108fc349081150290604051600060405180830381858888f19350505050158015610923573d6000803e3d6000fd5b50336004600083815260200190815260200160002060010160006101000a81548173ffffffffffffffffffffffffffffffffffffffff021916908373ffffffffffffffffffffffffffffffffffffffff16021790555061098281610e20565b600460008281526020019081526020016000206000808201600090556001820160006101000a81549073ffffffffffffffffffffffffffffffffffffffff021916905560028201600090556003820160006101000a81549060ff021916905550503373ffffffffffffffffffffffffffffffffffffffff16817f6329e40c0365262ebbff5ca819385c2b9713dcaa050ed07866d72c441395699a34604051610a2a9190611243565b60405180910390a350565b610a3d610ee6565b60046000838152602001908152602001600020604051806080016040529081600082015481526020016001820160009054906101000a900473ffffffffffffffffffffffffffffffffffffffff1673ffffffffffffffffffffffffffffffffffffffff1673ffffffffffffffffffffffffffffffffffffffff168152602001600282015481526020016003820160009054906101000a900460ff1615151515815250509050919050565b60008054906101000a900473ffffffffffffffffffffffffffffffffffffffff1681565b813373ffffffffffffffffffffffffffffffffffffffff1660008054906101000a900473ffffffffffffffffffffffffffffffffffffffff1673ffffffffffffffffffffffffffffffffffffffff16636352211e836040518263ffffffff1660e01b8152600401610b7c9190611243565b602060405180830381865afa158015610b99573d6000803e3d6000fd5b505050506040513d601f19601f82011682018060405250810190610bbd91906114d5565b73ffffffffffffffffffffffffffffffffffffffff1614610bdd57600080fd5b60008054906101000a900473ffffffffffffffffffffffffffffffffffffffff1673ffffffffffffffffffffffffffffffffffffffff166323b872dd3330866040518463ffffffff1660e01b8152600401610c3a93929190611472565b600060405180830381600087803b158015610c5457600080fd5b505af1158015610c68573d6000803e3d6000fd5b5050505060405180608001604052808481526020013373ffffffffffffffffffffffffffffffffffffffff168152602001838152602001600015158152506004600060035481526020019081526020016000206000820151816000015560208201518160010160006101000a81548173ffffffffffffffffffffffffffffffffffffffff021916908373ffffffffffffffffffffffffffffffffffffffff1602179055506040820151816002015560608201518160030160006101000a81548160ff0219169083151502179055509050506005600354908060018154018082558091505060019003906000526020600020016000909190919091505560036000815480929190610d7790611531565b91905055503373ffffffffffffffffffffffffffffffffffffffff16837f5f9c03de076f5063cd3ebcfe8ef7aa8af378e4b35a83c77ba9777e97083879a284604051610dc39190611243565b60405180910390a3505050565b60058181548110610de057600080fd5b906000526020600020016000915090505481565b60035481565b600260009054906101000a900473ffffffffffffffffffffffffffffffffffffffff1681565b6000600580549050905060005b81811015610ee1578260058281548110610e4a57610e49611579565b5b906000526020600020015403610ed4576005600183610e6991906115a8565b81548110610e7a57610e79611579565b5b906000526020600020015460058281548110610e9957610e98611579565b5b90600052602060002001819055506005805480610eb957610eb86115dc565b5b60019003818190600052602060002001600090559055610ee1565b8080600101915050610e2d565b505050565b604051806080016040528060008152602001600073ffffffffffffffffffffffffffffffffffffffff168152602001600081526020016000151581525090565b600081519050919050565b600082825260208201905092915050565b6000819050602082019050919050565b6000819050919050565b610f6581610f52565b82525050565b6000610f778383610f5c565b60208301905092915050565b6000602082019050919050565b6000610f9b82610f26565b610fa58185610f31565b9350610fb083610f42565b8060005b83811015610fe1578151610fc88882610f6b565b9750610fd383610f83565b925050600181019050610fb4565b5085935050505092915050565b600060208201905081810360008301526110088184610f90565b905092915050565b600073ffffffffffffffffffffffffffffffffffffffff82169050919050565b600061103b82611010565b9050919050565b61104b81611030565b82525050565b60006020820190506110666000830184611042565b92915050565b600080fd5b61107a81610f52565b811461108557600080fd5b50565b60008135905061109781611071565b92915050565b6000602082840312156110b3576110b261106c565b5b60006110c184828501611088565b91505092915050565b6110d381610f52565b82525050565b60006110e482611010565b9050919050565b6110f4816110d9565b82525050565b60008115159050919050565b61110f816110fa565b82525050565b600060808201905061112a60008301876110ca565b61113760208301866110eb565b61114460408301856110ca565b6111516060830184611106565b95945050505050565b611163816110d9565b82525050565b611172816110fa565b82525050565b60808201600082015161118e6000850182610f5c565b5060208201516111a1602085018261115a565b5060408201516111b46040850182610f5c565b5060608201516111c76060850182611169565b50505050565b60006080820190506111e26000830184611178565b92915050565b60006020820190506111fd60008301846110eb565b92915050565b6000806040838503121561121a5761121961106c565b5b600061122885828601611088565b925050602061123985828601611088565b9150509250929050565b600060208201905061125860008301846110ca565b92915050565b6000819050919050565b600061128361127e61127984611010565b61125e565b611010565b9050919050565b600061129582611268565b9050919050565b60006112a78261128a565b9050919050565b6112b78161129c565b82525050565b60006060820190506112d260008301866110eb565b6112df60208301856112ae565b6112ec60408301846110ca565b949350505050565b600082825260208201905092915050565b7f4e465420616c726561647920736f6c6400000000000000000000000000000000600082015250565b600061133b6010836112f4565b915061134682611305565b602082019050919050565b6000602082019050818103600083015261136a8161132e565b9050919050565b7f57726f6e67207072696365000000000000000000000000000000000000000000600082015250565b60006113a7600b836112f4565b91506113b282611371565b602082019050919050565b600060208201905081810360008301526113d68161139a565b9050919050565b7f596f752063616e27742062757920796f7572206f776e204e4654000000000000600082015250565b6000611413601a836112f4565b915061141e826113dd565b602082019050919050565b6000602082019050818103600083015261144281611406565b9050919050565b600060408201905061145e60008301856110eb565b61146b60208301846110ca565b9392505050565b600060608201905061148760008301866110eb565b61149460208301856110eb565b6114a160408301846110ca565b949350505050565b6114b2816110d9565b81146114bd57600080fd5b50565b6000815190506114cf816114a9565b92915050565b6000602082840312156114eb576114ea61106c565b5b60006114f9848285016114c0565b91505092915050565b7f4e487b7100000000000000000000000000000000000000000000000000000000600052601160045260246000fd5b600061153c82610f52565b91507fffffffffffffffffffffffffffffffffffffffffffffffffffffffffffffffff820361156e5761156d611502565b5b600182019050919050565b7f4e487b7100000000000000000000000000000000000000000000000000000000600052603260045260246000fd5b60006115b382610f52565b91506115be83610f52565b92508282039050818111156115d6576115d5611502565b5b92915050565b7f4e487b7100000000000000000000000000000000000000000000000000000000600052603160045260246000fdfea2646970667358221220e8ff2c50ab4c1210557b7c819db4ba78914e564e499cd37f47266bb54af450f664736f6c63430008180033",
  "linkReferences": {},
  "deployedLinkReferences": {}
}