{
  "_format": "hh-sol-artifact-1",
  "contractName": "Collections",
  "sourceName": "contracts/Collections.sol",
  "abi": [
    {
      "inputs": [],
      "stateMutability": "nonpayable",
      "type": "constructor"
    },
    {
      "inputs": [],
      "name": "ERC721EnumerableForbiddenBatchMint",
      "type": "error"
    },
    {
      "inputs": [
        {
          "internalType": "address",
          "name": "sender",
          "type": "address"
        },
        {
          "internalType": "uint256",
          "name": "tokenId",
          "type": "uint256"
        },
        {
          "internalType": "address",
          "name": "owner",
          "type": "address"
        }
      ],
      "name": "ERC721IncorrectOwner",
      "type": "error"
    },
    {
      "inputs": [
        {
          "internalType": "address",
          "name": "operator",
          "type": "address"
        },
        {
          "internalType": "uint256",
          "name": "tokenId",
          "type": "uint256"
        }
      ],
      "name": "ERC721InsufficientApproval",
      "type": "error"
    },
    {
      "inputs": [
        {
          "internalType": "address",
          "name": "approver",
          "type": "address"
        }
      ],
      "name": "ERC721InvalidApprover",
      "type": "error"
    },
    {
      "inputs": [
        {
          "internalType": "address",
          "name": "operator",
          "type": "address"
        }
      ],
      "name": "ERC721InvalidOperator",
      "type": "error"
    },
    {
      "inputs": [
        {
          "internalType": "address",
          "name": "owner",
          "type": "address"
        }
      ],
      "name": "ERC721InvalidOwner",
      "type": "error"
    },
    {
      "inputs": [
        {
          "internalType": "address",
          "name": "receiver",
          "type": "address"
        }
      ],
      "name": "ERC721InvalidReceiver",
      "type": "error"
    },
    {
      "inputs": [
        {
          "internalType": "address",
          "name": "sender",
          "type": "address"
        }
      ],
      "name": "ERC721InvalidSender",
      "type": "error"
    },
    {
      "inputs": [
        {
          "internalType": "uint256",
          "name": "tokenId",
          "type": "uint256"
        }
      ],
      "name": "ERC721NonexistentToken",
      "type": "error"
    },
    {
      "inputs": [
        {
          "internalType": "address",
          "name": "owner",
          "type": "address"
        },
        {
          "internalType": "uint256",
          "name": "index",
          "type": "uint256"
        }
      ],
      "name": "ERC721OutOfBoundsIndex",
      "type": "error"
    },
    {
      "anonymous": false,
      "inputs": [
        {
          "indexed": true,
          "internalType": "address",
          "name": "owner",
          "type": "address"
        },
        {
          "indexed": true,
          "internalType": "address",
          "name": "approved",
          "type": "address"
        },
        {
          "indexed": true,
          "internalType": "uint256",
          "name": "tokenId",
          "type": "uint256"
        }
      ],
      "name": "Approval",
      "type": "event"
    },
    {
      "anonymous": false,
      "inputs": [
        {
          "indexed": true,
          "internalType": "address",
          "name": "owner",
          "type": "address"
        },
        {
          "indexed": true,
          "internalType": "address",
          "name": "operator",
          "type": "address"
        },
        {
          "indexed": false,
          "internalType": "bool",
          "name": "approved",
          "type": "bool"
        }
      ],
      "name": "ApprovalForAll",
      "type": "event"
    },
    {
      "anonymous": false,
      "inputs": [
        {
          "indexed": false,
          "internalType": "uint256",
          "name": "_fromTokenId",
          "type": "uint256"
        },
        {
          "indexed": false,
          "internalType": "uint256",
          "name": "_toTokenId",
          "type": "uint256"
        }
      ],
      "name": "BatchMetadataUpdate",
      "type": "event"
    },
    {
      "anonymous": false,
      "inputs": [
        {
          "indexed": false,
          "internalType": "uint256",
          "name": "_tokenId",
          "type": "uint256"
        }
      ],
      "name": "MetadataUpdate",
      "type": "event"
    },
    {
      "anonymous": false,
      "inputs": [
        {
          "indexed": true,
          "internalType": "address",
          "name": "from",
          "type": "address"
        },
        {
          "indexed": true,
          "internalType": "address",
          "name": "to",
          "type": "address"
        },
        {
          "indexed": true,
          "internalType": "uint256",
          "name": "tokenId",
          "type": "uint256"
        }
      ],
      "name": "Transfer",
      "type": "event"
    },
    {
      "inputs": [],
      "name": "_nextTokenId",
      "outputs": [
        {
          "internalType": "uint256",
          "name": "",
          "type": "uint256"
        }
      ],
      "stateMutability": "view",
      "type": "function"
    },
    {
      "inputs": [
        {
          "internalType": "address",
          "name": "to",
          "type": "address"
        },
        {
          "internalType": "uint256",
          "name": "tokenId",
          "type": "uint256"
        }
      ],
      "name": "approve",
      "outputs": [],
      "stateMutability": "nonpayable",
      "type": "function"
    },
    {
      "inputs": [
        {
          "internalType": "address",
          "name": "owner",
          "type": "address"
        }
      ],
      "name": "balanceOf",
      "outputs": [
        {
          "internalType": "uint256",
          "name": "",
          "type": "uint256"
        }
      ],
      "stateMutability": "view",
      "type": "function"
    },
    {
      "inputs": [
        {
          "internalType": "uint256",
          "name": "tokenId",
          "type": "uint256"
        }
      ],
      "name": "getApproved",
      "outputs": [
        {
          "internalType": "address",
          "name": "",
          "type": "address"
        }
      ],
      "stateMutability": "view",
      "type": "function"
    },
    {
      "inputs": [
        {
          "internalType": "address",
          "name": "owner",
          "type": "address"
        },
        {
          "internalType": "address",
          "name": "operator",
          "type": "address"
        }
      ],
      "name": "isApprovedForAll",
      "outputs": [
        {
          "internalType": "bool",
          "name": "",
          "type": "bool"
        }
      ],
      "stateMutability": "view",
      "type": "function"
    },
    {
      "inputs": [],
      "name": "name",
      "outputs": [
        {
          "internalType": "string",
          "name": "",
          "type": "string"
        }
      ],
      "stateMutability": "view",
      "type": "function"
    },
    {
      "inputs": [
        {
          "internalType": "uint256",
          "name": "tokenId",
          "type": "uint256"
        }
      ],
      "name": "ownerOf",
      "outputs": [
        {
          "internalType": "address",
          "name": "",
          "type": "address"
        }
      ],
      "stateMutability": "view",
      "type": "function"
    },
    {
      "inputs": [
        {
          "internalType": "string",
          "name": "uri",
          "type": "string"
        }
      ],
      "name": "safeMint",
      "outputs": [],
      "stateMutability": "nonpayable",
      "type": "function"
    },
    {
      "inputs": [
        {
          "internalType": "address",
          "name": "from",
          "type": "address"
        },
        {
          "internalType": "address",
          "name": "to",
          "type": "address"
        },
        {
          "internalType": "uint256",
          "name": "tokenId",
          "type": "uint256"
        }
      ],
      "name": "safeTransferFrom",
      "outputs": [],
      "stateMutability": "nonpayable",
      "type": "function"
    },
    {
      "inputs": [
        {
          "internalType": "address",
          "name": "from",
          "type": "address"
        },
        {
          "internalType": "address",
          "name": "to",
          "type": "address"
        },
        {
          "internalType": "uint256",
          "name": "tokenId",
          "type": "uint256"
        },
        {
          "internalType": "bytes",
          "name": "data",
          "type": "bytes"
        }
      ],
      "name": "safeTransferFrom",
      "outputs": [],
      "stateMutability": "nonpayable",
      "type": "function"
    },
    {
      "inputs": [
        {
          "internalType": "address",
          "name": "operator",
          "type": "address"
        },
        {
          "internalType": "bool",
          "name": "approved",
          "type": "bool"
        }
      ],
      "name": "setApprovalForAll",
      "outputs": [],
      "stateMutability": "nonpayable",
      "type": "function"
    },
    {
      "inputs": [
        {
          "internalType": "bytes4",
          "name": "interfaceId",
          "type": "bytes4"
        }
      ],
      "name": "supportsInterface",
      "outputs": [
        {
          "internalType": "bool",
          "name": "",
          "type": "bool"
        }
      ],
      "stateMutability": "view",
      "type": "function"
    },
    {
      "inputs": [],
      "name": "symbol",
      "outputs": [
        {
          "internalType": "string",
          "name": "",
          "type": "string"
        }
      ],
      "stateMutability": "view",
      "type": "function"
    },
    {
      "inputs": [
        {
          "internalType": "uint256",
          "name": "index",
          "type": "uint256"
        }
      ],
      "name": "tokenByIndex",
      "outputs": [
        {
          "internalType": "uint256",
          "name": "",
          "type": "uint256"
        }
      ],
      "stateMutability": "view",
      "type": "function"
    },
    {
      "inputs": [
        {
          "internalType": "address",
          "name": "owner",
          "type": "address"
        },
        {
          "internalType": "uint256",
          "name": "index",
          "type": "uint256"
        }
      ],
      "name": "tokenOfOwnerByIndex",
      "outputs": [
        {
          "internalType": "uint256",
          "name": "",
          "type": "uint256"
        }
      ],
      "stateMutability": "view",
      "type": "function"
    },
    {
      "inputs": [
        {
          "internalType": "uint256",
          "name": "tokenId",
          "type": "uint256"
        }
      ],
      "name": "tokenURI",
      "outputs": [
        {
          "internalType": "string",
          "name": "",
          "type": "string"
        }
      ],
      "stateMutability": "view",
      "type": "function"
    },
    {
      "inputs": [],
      "name": "totalSupply",
      "outputs": [
        {
          "internalType": "uint256",
          "name": "",
          "type": "uint256"
        }
      ],
      "stateMutability": "view",
      "type": "function"
    },
    {
      "inputs": [
        {
          "internalType": "address",
          "name": "from",
          "type": "address"
        },
        {
          "internalType": "address",
          "name": "to",
          "type": "address"
        },
        {
          "internalType": "uint256",
          "name": "tokenId",
          "type": "uint256"
        }
      ],
      "name": "transferFrom",
      "outputs": [],
      "stateMutability": "nonpayable",
      "type": "function"
    }
  ],
  "bytecode": "0x60806040523480156200001157600080fd5b506040518060400160405280600a81526020017f436f6c6c657463696f6e000000000000000000000000000000000000000000008152506040518060400160405280600381526020017f434343000000000000000000000000000000000000000000000000000000000081525081600090816200008f919062000324565b508060019081620000a1919062000324565b5050506200040b565b600081519050919050565b7f4e487b7100000000000000000000000000000000000000000000000000000000600052604160045260246000fd5b7f4e487b7100000000000000000000000000000000000000000000000000000000600052602260045260246000fd5b600060028204905060018216806200012c57607f821691505b602082108103620001425762000141620000e4565b5b50919050565b60008190508160005260206000209050919050565b60006020601f8301049050919050565b600082821b905092915050565b600060088302620001ac7fffffffffffffffffffffffffffffffffffffffffffffffffffffffffffffffff826200016d565b620001b886836200016d565b95508019841693508086168417925050509392505050565b6000819050919050565b6000819050919050565b600062000205620001ff620001f984620001d0565b620001da565b620001d0565b9050919050565b6000819050919050565b6200022183620001e4565b6200023962000230826200020c565b8484546200017a565b825550505050565b600090565b6200025062000241565b6200025d81848462000216565b505050565b5b8181101562000285576200027960008262000246565b60018101905062000263565b5050565b601f821115620002d4576200029e8162000148565b620002a9846200015d565b81016020851015620002b9578190505b620002d1620002c8856200015d565b83018262000262565b50505b505050565b600082821c905092915050565b6000620002f960001984600802620002d9565b1980831691505092915050565b6000620003148383620002e6565b9150826002028217905092915050565b6200032f82620000aa565b67ffffffffffffffff8111156200034b576200034a620000b5565b5b62000357825462000113565b6200036482828562000289565b600060209050601f8311600181146200039c576000841562000387578287015190505b62000393858262000306565b86555062000403565b601f198416620003ac8662000148565b60005b82811015620003d657848901518255600182019150602085019450602081019050620003af565b86831015620003f65784890151620003f2601f891682620002e6565b8355505b6001600288020188555050505b505050505050565b612b2b806200041b6000396000f3fe608060405234801561001057600080fd5b50600436106101165760003560e01c80634f6ccce7116100a257806395d89b411161007157806395d89b4114610305578063a22cb46514610323578063b88d4fde1461033f578063c87b56dd1461035b578063e985e9c51461038b57610116565b80634f6ccce7146102595780636352211e14610289578063695850fb146102b957806370a08231146102d557610116565b806318160ddd116100e957806318160ddd146101b557806323b872dd146101d35780632f745c59146101ef57806342842e0e1461021f5780634a60f6201461023b57610116565b806301ffc9a71461011b57806306fdde031461014b578063081812fc14610169578063095ea7b314610199575b600080fd5b61013560048036038101906101309190611f04565b6103bb565b6040516101429190611f4c565b60405180910390f35b6101536103cd565b6040516101609190611ff7565b60405180910390f35b610183600480360381019061017e919061204f565b61045f565b60405161019091906120bd565b60405180910390f35b6101b360048036038101906101ae9190612104565b61047b565b005b6101bd610491565b6040516101ca9190612153565b60405180910390f35b6101ed60048036038101906101e8919061216e565b61049e565b005b61020960048036038101906102049190612104565b6105a0565b6040516102169190612153565b60405180910390f35b6102396004803603810190610234919061216e565b610649565b005b610243610669565b6040516102509190612153565b60405180910390f35b610273600480360381019061026e919061204f565b61066f565b6040516102809190612153565b60405180910390f35b6102a3600480360381019061029e919061204f565b6106e5565b6040516102b091906120bd565b60405180910390f35b6102d360048036038101906102ce91906122f6565b6106f7565b005b6102ef60048036038101906102ea919061233f565b61072a565b6040516102fc9190612153565b60405180910390f35b61030d6107e4565b60405161031a9190611ff7565b60405180910390f35b61033d60048036038101906103389190612398565b610876565b005b61035960048036038101906103549190612479565b61088c565b005b6103756004803603810190610370919061204f565b6108a9565b6040516103829190611ff7565b60405180910390f35b6103a560048036038101906103a091906124fc565b6108bb565b6040516103b29190611f4c565b60405180910390f35b60006103c68261094f565b9050919050565b6060600080546103dc9061256b565b80601f01602080910402602001604051908101604052809291908181526020018280546104089061256b565b80156104555780601f1061042a57610100808354040283529160200191610455565b820191906000526020600020905b81548152906001019060200180831161043857829003601f168201915b5050505050905090565b600061046a826109c9565b5061047482610a51565b9050919050565b61048d8282610488610a8e565b610a96565b5050565b6000600980549050905090565b600073ffffffffffffffffffffffffffffffffffffffff168273ffffffffffffffffffffffffffffffffffffffff16036105105760006040517f64a0ae9200000000000000000000000000000000000000000000000000000000815260040161050791906120bd565b60405180910390fd5b6000610524838361051f610a8e565b610aa8565b90508373ffffffffffffffffffffffffffffffffffffffff168173ffffffffffffffffffffffffffffffffffffffff161461059a578382826040517f64283d7b0000000000000000000000000000000000000000000000000000000081526004016105919392919061259c565b60405180910390fd5b50505050565b60006105ab8361072a565b82106105f05782826040517fa57d13dc0000000000000000000000000000000000000000000000000000000081526004016105e79291906125d3565b60405180910390fd5b600760008473ffffffffffffffffffffffffffffffffffffffff1673ffffffffffffffffffffffffffffffffffffffff168152602001908152602001600020600083815260200190815260200160002054905092915050565b6106648383836040518060200160405280600081525061088c565b505050565b600b5481565b6000610679610491565b82106106bf576000826040517fa57d13dc0000000000000000000000000000000000000000000000000000000081526004016106b69291906125d3565b60405180910390fd5b600982815481106106d3576106d26125fc565b5b90600052602060002001549050919050565b60006106f0826109c9565b9050919050565b6000600b600081548092919061070c9061265a565b91905055905061071c3382610abe565b6107268183610adc565b5050565b60008073ffffffffffffffffffffffffffffffffffffffff168273ffffffffffffffffffffffffffffffffffffffff160361079d5760006040517f89c62b6400000000000000000000000000000000000000000000000000000000815260040161079491906120bd565b60405180910390fd5b600360008373ffffffffffffffffffffffffffffffffffffffff1673ffffffffffffffffffffffffffffffffffffffff168152602001908152602001600020549050919050565b6060600180546107f39061256b565b80601f016020809104026020016040519081016040528092919081815260200182805461081f9061256b565b801561086c5780601f106108415761010080835404028352916020019161086c565b820191906000526020600020905b81548152906001019060200180831161084f57829003601f168201915b5050505050905090565b610888610881610a8e565b8383610b38565b5050565b61089784848461049e565b6108a384848484610ca7565b50505050565b60606108b482610e5e565b9050919050565b6000600560008473ffffffffffffffffffffffffffffffffffffffff1673ffffffffffffffffffffffffffffffffffffffff16815260200190815260200160002060008373ffffffffffffffffffffffffffffffffffffffff1673ffffffffffffffffffffffffffffffffffffffff16815260200190815260200160002060009054906101000a900460ff16905092915050565b60007f780e9d63000000000000000000000000000000000000000000000000000000007bffffffffffffffffffffffffffffffffffffffffffffffffffffffff1916827bffffffffffffffffffffffffffffffffffffffffffffffffffffffff191614806109c257506109c182610f71565b5b9050919050565b6000806109d583610fd2565b9050600073ffffffffffffffffffffffffffffffffffffffff168173ffffffffffffffffffffffffffffffffffffffff1603610a4857826040517f7e273289000000000000000000000000000000000000000000000000000000008152600401610a3f9190612153565b60405180910390fd5b80915050919050565b60006004600083815260200190815260200160002060009054906101000a900473ffffffffffffffffffffffffffffffffffffffff169050919050565b600033905090565b610aa3838383600161100f565b505050565b6000610ab58484846111d4565b90509392505050565b610ad88282604051806020016040528060008152506112f1565b5050565b80600660008481526020019081526020016000209081610afc919061284e565b507ff8e1a15aba9398e019f0b49df1a4fde98ee17ae345cb5f6b5e2c27f5033e8ce782604051610b2c9190612153565b60405180910390a15050565b600073ffffffffffffffffffffffffffffffffffffffff168273ffffffffffffffffffffffffffffffffffffffff1603610ba957816040517f5b08ba18000000000000000000000000000000000000000000000000000000008152600401610ba091906120bd565b60405180910390fd5b80600560008573ffffffffffffffffffffffffffffffffffffffff1673ffffffffffffffffffffffffffffffffffffffff16815260200190815260200160002060008473ffffffffffffffffffffffffffffffffffffffff1673ffffffffffffffffffffffffffffffffffffffff16815260200190815260200160002060006101000a81548160ff0219169083151502179055508173ffffffffffffffffffffffffffffffffffffffff168373ffffffffffffffffffffffffffffffffffffffff167f17307eab39ab6107e8899845ad3d59bd9653f200f220920489ca2b5937696c3183604051610c9a9190611f4c565b60405180910390a3505050565b60008373ffffffffffffffffffffffffffffffffffffffff163b1115610e58578273ffffffffffffffffffffffffffffffffffffffff1663150b7a02610ceb610a8e565b8685856040518563ffffffff1660e01b8152600401610d0d9493929190612975565b6020604051808303816000875af1925050508015610d4957506040513d601f19601f82011682018060405250810190610d4691906129d6565b60015b610dcd573d8060008114610d79576040519150601f19603f3d011682016040523d82523d6000602084013e610d7e565b606091505b506000815103610dc557836040517f64a0ae92000000000000000000000000000000000000000000000000000000008152600401610dbc91906120bd565b60405180910390fd5b805181602001fd5b63150b7a0260e01b7bffffffffffffffffffffffffffffffffffffffffffffffffffffffff1916817bffffffffffffffffffffffffffffffffffffffffffffffffffffffff191614610e5657836040517f64a0ae92000000000000000000000000000000000000000000000000000000008152600401610e4d91906120bd565b60405180910390fd5b505b50505050565b6060610e69826109c9565b506000600660008481526020019081526020016000208054610e8a9061256b565b80601f0160208091040260200160405190810160405280929190818152602001828054610eb69061256b565b8015610f035780601f10610ed857610100808354040283529160200191610f03565b820191906000526020600020905b815481529060010190602001808311610ee657829003601f168201915b505050505090506000610f1461130d565b90506000815103610f29578192505050610f6c565b600082511115610f5e578082604051602001610f46929190612a3f565b60405160208183030381529060405292505050610f6c565b610f6784611324565b925050505b919050565b6000634906490660e01b7bffffffffffffffffffffffffffffffffffffffffffffffffffffffff1916827bffffffffffffffffffffffffffffffffffffffffffffffffffffffff19161480610fcb5750610fca8261138d565b5b9050919050565b60006002600083815260200190815260200160002060009054906101000a900473ffffffffffffffffffffffffffffffffffffffff169050919050565b80806110485750600073ffffffffffffffffffffffffffffffffffffffff168273ffffffffffffffffffffffffffffffffffffffff1614155b1561117c576000611058846109c9565b9050600073ffffffffffffffffffffffffffffffffffffffff168373ffffffffffffffffffffffffffffffffffffffff16141580156110c357508273ffffffffffffffffffffffffffffffffffffffff168173ffffffffffffffffffffffffffffffffffffffff1614155b80156110d657506110d481846108bb565b155b1561111857826040517fa9fbf51f00000000000000000000000000000000000000000000000000000000815260040161110f91906120bd565b60405180910390fd5b811561117a57838573ffffffffffffffffffffffffffffffffffffffff168273ffffffffffffffffffffffffffffffffffffffff167f8c5be1e5ebec7d5bd14f71427d1e84f3dd0314c0f7b2291e5b200ac8c7c3b92560405160405180910390a45b505b836004600085815260200190815260200160002060006101000a81548173ffffffffffffffffffffffffffffffffffffffff021916908373ffffffffffffffffffffffffffffffffffffffff16021790555050505050565b6000806111e285858561146f565b9050600073ffffffffffffffffffffffffffffffffffffffff168173ffffffffffffffffffffffffffffffffffffffff16036112265761122184611689565b611265565b8473ffffffffffffffffffffffffffffffffffffffff168173ffffffffffffffffffffffffffffffffffffffff16146112645761126381856116d2565b5b5b600073ffffffffffffffffffffffffffffffffffffffff168573ffffffffffffffffffffffffffffffffffffffff16036112a7576112a284611833565b6112e6565b8473ffffffffffffffffffffffffffffffffffffffff168173ffffffffffffffffffffffffffffffffffffffff16146112e5576112e48585611904565b5b5b809150509392505050565b6112fb838361198f565b6113086000848484610ca7565b505050565b606060405180602001604052806000815250905090565b606061132f826109c9565b50600061133a61130d565b9050600081511161135a5760405180602001604052806000815250611385565b8061136484611a88565b604051602001611375929190612a3f565b6040516020818303038152906040525b915050919050565b60007f80ac58cd000000000000000000000000000000000000000000000000000000007bffffffffffffffffffffffffffffffffffffffffffffffffffffffff1916827bffffffffffffffffffffffffffffffffffffffffffffffffffffffff1916148061145857507f5b5e139f000000000000000000000000000000000000000000000000000000007bffffffffffffffffffffffffffffffffffffffffffffffffffffffff1916827bffffffffffffffffffffffffffffffffffffffffffffffffffffffff1916145b80611468575061146782611b56565b5b9050919050565b60008061147b84610fd2565b9050600073ffffffffffffffffffffffffffffffffffffffff168373ffffffffffffffffffffffffffffffffffffffff16146114bd576114bc818486611bc0565b5b600073ffffffffffffffffffffffffffffffffffffffff168173ffffffffffffffffffffffffffffffffffffffff161461154e576114ff60008560008061100f565b6001600360008373ffffffffffffffffffffffffffffffffffffffff1673ffffffffffffffffffffffffffffffffffffffff168152602001908152602001600020600082825403925050819055505b600073ffffffffffffffffffffffffffffffffffffffff168573ffffffffffffffffffffffffffffffffffffffff16146115d1576001600360008773ffffffffffffffffffffffffffffffffffffffff1673ffffffffffffffffffffffffffffffffffffffff168152602001908152602001600020600082825401925050819055505b846002600086815260200190815260200160002060006101000a81548173ffffffffffffffffffffffffffffffffffffffff021916908373ffffffffffffffffffffffffffffffffffffffff160217905550838573ffffffffffffffffffffffffffffffffffffffff168273ffffffffffffffffffffffffffffffffffffffff167fddf252ad1be2c89b69c2b068fc378daa952ba7f163c4a11628f55a4df523b3ef60405160405180910390a4809150509392505050565b600980549050600a600083815260200190815260200160002081905550600981908060018154018082558091505060019003906000526020600020016000909190919091505550565b60006116dd8361072a565b90506000600860008481526020019081526020016000205490508181146117c2576000600760008673ffffffffffffffffffffffffffffffffffffffff1673ffffffffffffffffffffffffffffffffffffffff168152602001908152602001600020600084815260200190815260200160002054905080600760008773ffffffffffffffffffffffffffffffffffffffff1673ffffffffffffffffffffffffffffffffffffffff168152602001908152602001600020600084815260200190815260200160002081905550816008600083815260200190815260200160002081905550505b6008600084815260200190815260200160002060009055600760008573ffffffffffffffffffffffffffffffffffffffff1673ffffffffffffffffffffffffffffffffffffffff16815260200190815260200160002060008381526020019081526020016000206000905550505050565b600060016009805490506118479190612a63565b90506000600a6000848152602001908152602001600020549050600060098381548110611877576118766125fc565b5b906000526020600020015490508060098381548110611899576118986125fc565b5b906000526020600020018190555081600a600083815260200190815260200160002081905550600a60008581526020019081526020016000206000905560098054806118e8576118e7612a97565b5b6001900381819060005260206000200160009055905550505050565b600060016119118461072a565b61191b9190612a63565b905081600760008573ffffffffffffffffffffffffffffffffffffffff1673ffffffffffffffffffffffffffffffffffffffff168152602001908152602001600020600083815260200190815260200160002081905550806008600084815260200190815260200160002081905550505050565b600073ffffffffffffffffffffffffffffffffffffffff168273ffffffffffffffffffffffffffffffffffffffff1603611a015760006040517f64a0ae920000000000000000000000000000000000000000000000000000000081526004016119f891906120bd565b60405180910390fd5b6000611a0f83836000610aa8565b9050600073ffffffffffffffffffffffffffffffffffffffff168173ffffffffffffffffffffffffffffffffffffffff1614611a835760006040517f73c6ac6e000000000000000000000000000000000000000000000000000000008152600401611a7a91906120bd565b60405180910390fd5b505050565b606060006001611a9784611c84565b01905060008167ffffffffffffffff811115611ab657611ab56121cb565b5b6040519080825280601f01601f191660200182016040528015611ae85781602001600182028036833780820191505090505b509050600082602001820190505b600115611b4b578080600190039150507f3031323334353637383961626364656600000000000000000000000000000000600a86061a8153600a8581611b3f57611b3e612ac6565b5b04945060008503611af6575b819350505050919050565b60007f01ffc9a7000000000000000000000000000000000000000000000000000000007bffffffffffffffffffffffffffffffffffffffffffffffffffffffff1916827bffffffffffffffffffffffffffffffffffffffffffffffffffffffff1916149050919050565b611bcb838383611dd7565b611c7f57600073ffffffffffffffffffffffffffffffffffffffff168373ffffffffffffffffffffffffffffffffffffffff1603611c4057806040517f7e273289000000000000000000000000000000000000000000000000000000008152600401611c379190612153565b60405180910390fd5b81816040517f177e802f000000000000000000000000000000000000000000000000000000008152600401611c769291906125d3565b60405180910390fd5b505050565b600080600090507a184f03e93ff9f4daa797ed6e38ed64bf6a1f0100000000000000008310611ce2577a184f03e93ff9f4daa797ed6e38ed64bf6a1f0100000000000000008381611cd857611cd7612ac6565b5b0492506040810190505b6d04ee2d6d415b85acef81000000008310611d1f576d04ee2d6d415b85acef81000000008381611d1557611d14612ac6565b5b0492506020810190505b662386f26fc100008310611d4e57662386f26fc100008381611d4457611d43612ac6565b5b0492506010810190505b6305f5e1008310611d77576305f5e1008381611d6d57611d6c612ac6565b5b0492506008810190505b6127108310611d9c576127108381611d9257611d91612ac6565b5b0492506004810190505b60648310611dbf5760648381611db557611db4612ac6565b5b0492506002810190505b600a8310611dce576001810190505b80915050919050565b60008073ffffffffffffffffffffffffffffffffffffffff168373ffffffffffffffffffffffffffffffffffffffff1614158015611e8f57508273ffffffffffffffffffffffffffffffffffffffff168473ffffffffffffffffffffffffffffffffffffffff161480611e505750611e4f84846108bb565b5b80611e8e57508273ffffffffffffffffffffffffffffffffffffffff16611e7683610a51565b73ffffffffffffffffffffffffffffffffffffffff16145b5b90509392505050565b6000604051905090565b600080fd5b600080fd5b60007fffffffff0000000000000000000000000000000000000000000000000000000082169050919050565b611ee181611eac565b8114611eec57600080fd5b50565b600081359050611efe81611ed8565b92915050565b600060208284031215611f1a57611f19611ea2565b5b6000611f2884828501611eef565b91505092915050565b60008115159050919050565b611f4681611f31565b82525050565b6000602082019050611f616000830184611f3d565b92915050565b600081519050919050565b600082825260208201905092915050565b60005b83811015611fa1578082015181840152602081019050611f86565b60008484015250505050565b6000601f19601f8301169050919050565b6000611fc982611f67565b611fd38185611f72565b9350611fe3818560208601611f83565b611fec81611fad565b840191505092915050565b600060208201905081810360008301526120118184611fbe565b905092915050565b6000819050919050565b61202c81612019565b811461203757600080fd5b50565b60008135905061204981612023565b92915050565b60006020828403121561206557612064611ea2565b5b60006120738482850161203a565b91505092915050565b600073ffffffffffffffffffffffffffffffffffffffff82169050919050565b60006120a78261207c565b9050919050565b6120b78161209c565b82525050565b60006020820190506120d260008301846120ae565b92915050565b6120e18161209c565b81146120ec57600080fd5b50565b6000813590506120fe816120d8565b92915050565b6000806040838503121561211b5761211a611ea2565b5b6000612129858286016120ef565b925050602061213a8582860161203a565b9150509250929050565b61214d81612019565b82525050565b60006020820190506121686000830184612144565b92915050565b60008060006060848603121561218757612186611ea2565b5b6000612195868287016120ef565b93505060206121a6868287016120ef565b92505060406121b78682870161203a565b9150509250925092565b600080fd5b600080fd5b7f4e487b7100000000000000000000000000000000000000000000000000000000600052604160045260246000fd5b61220382611fad565b810181811067ffffffffffffffff82111715612222576122216121cb565b5b80604052505050565b6000612235611e98565b905061224182826121fa565b919050565b600067ffffffffffffffff821115612261576122606121cb565b5b61226a82611fad565b9050602081019050919050565b82818337600083830152505050565b600061229961229484612246565b61222b565b9050828152602081018484840111156122b5576122b46121c6565b5b6122c0848285612277565b509392505050565b600082601f8301126122dd576122dc6121c1565b5b81356122ed848260208601612286565b91505092915050565b60006020828403121561230c5761230b611ea2565b5b600082013567ffffffffffffffff81111561232a57612329611ea7565b5b612336848285016122c8565b91505092915050565b60006020828403121561235557612354611ea2565b5b6000612363848285016120ef565b91505092915050565b61237581611f31565b811461238057600080fd5b50565b6000813590506123928161236c565b92915050565b600080604083850312156123af576123ae611ea2565b5b60006123bd858286016120ef565b92505060206123ce85828601612383565b9150509250929050565b600067ffffffffffffffff8211156123f3576123f26121cb565b5b6123fc82611fad565b9050602081019050919050565b600061241c612417846123d8565b61222b565b905082815260208101848484011115612438576124376121c6565b5b612443848285612277565b509392505050565b600082601f8301126124605761245f6121c1565b5b8135612470848260208601612409565b91505092915050565b6000806000806080858703121561249357612492611ea2565b5b60006124a1878288016120ef565b94505060206124b2878288016120ef565b93505060406124c38782880161203a565b925050606085013567ffffffffffffffff8111156124e4576124e3611ea7565b5b6124f08782880161244b565b91505092959194509250565b6000806040838503121561251357612512611ea2565b5b6000612521858286016120ef565b9250506020612532858286016120ef565b9150509250929050565b7f4e487b7100000000000000000000000000000000000000000000000000000000600052602260045260246000fd5b6000600282049050600182168061258357607f821691505b6020821081036125965761259561253c565b5b50919050565b60006060820190506125b160008301866120ae565b6125be6020830185612144565b6125cb60408301846120ae565b949350505050565b60006040820190506125e860008301856120ae565b6125f56020830184612144565b9392505050565b7f4e487b7100000000000000000000000000000000000000000000000000000000600052603260045260246000fd5b7f4e487b7100000000000000000000000000000000000000000000000000000000600052601160045260246000fd5b600061266582612019565b91507fffffffffffffffffffffffffffffffffffffffffffffffffffffffffffffffff82036126975761269661262b565b5b600182019050919050565b60008190508160005260206000209050919050565b60006020601f8301049050919050565b600082821b905092915050565b6000600883026127047fffffffffffffffffffffffffffffffffffffffffffffffffffffffffffffffff826126c7565b61270e86836126c7565b95508019841693508086168417925050509392505050565b6000819050919050565b600061274b61274661274184612019565b612726565b612019565b9050919050565b6000819050919050565b61276583612730565b61277961277182612752565b8484546126d4565b825550505050565b600090565b61278e612781565b61279981848461275c565b505050565b5b818110156127bd576127b2600082612786565b60018101905061279f565b5050565b601f821115612802576127d3816126a2565b6127dc846126b7565b810160208510156127eb578190505b6127ff6127f7856126b7565b83018261279e565b50505b505050565b600082821c905092915050565b600061282560001984600802612807565b1980831691505092915050565b600061283e8383612814565b9150826002028217905092915050565b61285782611f67565b67ffffffffffffffff8111156128705761286f6121cb565b5b61287a825461256b565b6128858282856127c1565b600060209050601f8311600181146128b857600084156128a6578287015190505b6128b08582612832565b865550612918565b601f1984166128c6866126a2565b60005b828110156128ee578489015182556001820191506020850194506020810190506128c9565b8683101561290b5784890151612907601f891682612814565b8355505b6001600288020188555050505b505050505050565b600081519050919050565b600082825260208201905092915050565b600061294782612920565b612951818561292b565b9350612961818560208601611f83565b61296a81611fad565b840191505092915050565b600060808201905061298a60008301876120ae565b61299760208301866120ae565b6129a46040830185612144565b81810360608301526129b6818461293c565b905095945050505050565b6000815190506129d081611ed8565b92915050565b6000602082840312156129ec576129eb611ea2565b5b60006129fa848285016129c1565b91505092915050565b600081905092915050565b6000612a1982611f67565b612a238185612a03565b9350612a33818560208601611f83565b80840191505092915050565b6000612a4b8285612a0e565b9150612a578284612a0e565b91508190509392505050565b6000612a6e82612019565b9150612a7983612019565b9250828203905081811115612a9157612a9061262b565b5b92915050565b7f4e487b7100000000000000000000000000000000000000000000000000000000600052603160045260246000fd5b7f4e487b7100000000000000000000000000000000000000000000000000000000600052601260045260246000fdfea2646970667358221220297642310b19e029add49a79b6e8d6b96417cbdb727e90ac2114bcabb963ede264736f6c63430008180033",
  "linkReferences": {},
  "deployedLinkReferences": {}
}