{
  "_format": "hh-sol-artifact-1",
  "contractName": "Collections",
  "sourceName": "contracts/Collections.sol",
  "abi": [
    {
      "inputs": [],
      "stateMutability": "nonpayable",
      "type": "constructor"
    },
    {
      "inputs": [],
      "name": "ERC721EnumerableForbiddenBatchMint",
      "type": "error"
    },
    {
      "inputs": [
        {
          "internalType": "address",
          "name": "sender",
          "type": "address"
        },
        {
          "internalType": "uint256",
          "name": "tokenId",
          "type": "uint256"
        },
        {
          "internalType": "address",
          "name": "owner",
          "type": "address"
        }
      ],
      "name": "ERC721IncorrectOwner",
      "type": "error"
    },
    {
      "inputs": [
        {
          "internalType": "address",
          "name": "operator",
          "type": "address"
        },
        {
          "internalType": "uint256",
          "name": "tokenId",
          "type": "uint256"
        }
      ],
      "name": "ERC721InsufficientApproval",
      "type": "error"
    },
    {
      "inputs": [
        {
          "internalType": "address",
          "name": "approver",
          "type": "address"
        }
      ],
      "name": "ERC721InvalidApprover",
      "type": "error"
    },
    {
      "inputs": [
        {
          "internalType": "address",
          "name": "operator",
          "type": "address"
        }
      ],
      "name": "ERC721InvalidOperator",
      "type": "error"
    },
    {
      "inputs": [
        {
          "internalType": "address",
          "name": "owner",
          "type": "address"
        }
      ],
      "name": "ERC721InvalidOwner",
      "type": "error"
    },
    {
      "inputs": [
        {
          "internalType": "address",
          "name": "receiver",
          "type": "address"
        }
      ],
      "name": "ERC721InvalidReceiver",
      "type": "error"
    },
    {
      "inputs": [
        {
          "internalType": "address",
          "name": "sender",
          "type": "address"
        }
      ],
      "name": "ERC721InvalidSender",
      "type": "error"
    },
    {
      "inputs": [
        {
          "internalType": "uint256",
          "name": "tokenId",
          "type": "uint256"
        }
      ],
      "name": "ERC721NonexistentToken",
      "type": "error"
    },
    {
      "inputs": [
        {
          "internalType": "address",
          "name": "owner",
          "type": "address"
        },
        {
          "internalType": "uint256",
          "name": "index",
          "type": "uint256"
        }
      ],
      "name": "ERC721OutOfBoundsIndex",
      "type": "error"
    },
    {
      "anonymous": false,
      "inputs": [
        {
          "indexed": true,
          "internalType": "address",
          "name": "owner",
          "type": "address"
        },
        {
          "indexed": true,
          "internalType": "address",
          "name": "approved",
          "type": "address"
        },
        {
          "indexed": true,
          "internalType": "uint256",
          "name": "tokenId",
          "type": "uint256"
        }
      ],
      "name": "Approval",
      "type": "event"
    },
    {
      "anonymous": false,
      "inputs": [
        {
          "indexed": true,
          "internalType": "address",
          "name": "owner",
          "type": "address"
        },
        {
          "indexed": true,
          "internalType": "address",
          "name": "operator",
          "type": "address"
        },
        {
          "indexed": false,
          "internalType": "bool",
          "name": "approved",
          "type": "bool"
        }
      ],
      "name": "ApprovalForAll",
      "type": "event"
    },
    {
      "anonymous": false,
      "inputs": [
        {
          "indexed": false,
          "internalType": "uint256",
          "name": "_fromTokenId",
          "type": "uint256"
        },
        {
          "indexed": false,
          "internalType": "uint256",
          "name": "_toTokenId",
          "type": "uint256"
        }
      ],
      "name": "BatchMetadataUpdate",
      "type": "event"
    },
    {
      "anonymous": false,
      "inputs": [
        {
          "indexed": false,
          "internalType": "uint256",
          "name": "_tokenId",
          "type": "uint256"
        }
      ],
      "name": "MetadataUpdate",
      "type": "event"
    },
    {
      "anonymous": false,
      "inputs": [
        {
          "indexed": true,
          "internalType": "address",
          "name": "from",
          "type": "address"
        },
        {
          "indexed": true,
          "internalType": "address",
          "name": "to",
          "type": "address"
        },
        {
          "indexed": true,
          "internalType": "uint256",
          "name": "tokenId",
          "type": "uint256"
        }
      ],
      "name": "Transfer",
      "type": "event"
    },
    {
      "inputs": [],
      "name": "_nextTokenId",
      "outputs": [
        {
          "internalType": "uint256",
          "name": "",
          "type": "uint256"
        }
      ],
      "stateMutability": "view",
      "type": "function"
    },
    {
      "inputs": [
        {
          "internalType": "address",
          "name": "to",
          "type": "address"
        },
        {
          "internalType": "uint256",
          "name": "tokenId",
          "type": "uint256"
        }
      ],
      "name": "approve",
      "outputs": [],
      "stateMutability": "nonpayable",
      "type": "function"
    },
    {
      "inputs": [
        {
          "internalType": "address",
          "name": "owner",
          "type": "address"
        }
      ],
      "name": "balanceOf",
      "outputs": [
        {
          "internalType": "uint256",
          "name": "",
          "type": "uint256"
        }
      ],
      "stateMutability": "view",
      "type": "function"
    },
    {
      "inputs": [
        {
          "internalType": "uint256",
          "name": "tokenId",
          "type": "uint256"
        }
      ],
      "name": "getApproved",
      "outputs": [
        {
          "internalType": "address",
          "name": "",
          "type": "address"
        }
      ],
      "stateMutability": "view",
      "type": "function"
    },
    {
      "inputs": [
        {
          "internalType": "address",
          "name": "owner",
          "type": "address"
        },
        {
          "internalType": "address",
          "name": "operator",
          "type": "address"
        }
      ],
      "name": "isApprovedForAll",
      "outputs": [
        {
          "internalType": "bool",
          "name": "",
          "type": "bool"
        }
      ],
      "stateMutability": "view",
      "type": "function"
    },
    {
      "inputs": [],
      "name": "name",
      "outputs": [
        {
          "internalType": "string",
          "name": "",
          "type": "string"
        }
      ],
      "stateMutability": "view",
      "type": "function"
    },
    {
      "inputs": [
        {
          "internalType": "uint256",
          "name": "tokenId",
          "type": "uint256"
        }
      ],
      "name": "ownerOf",
      "outputs": [
        {
          "internalType": "address",
          "name": "",
          "type": "address"
        }
      ],
      "stateMutability": "view",
      "type": "function"
    },
    {
      "inputs": [
        {
          "internalType": "address",
          "name": "to",
          "type": "address"
        },
        {
          "internalType": "string",
          "name": "uri",
          "type": "string"
        }
      ],
      "name": "safeMint",
      "outputs": [],
      "stateMutability": "nonpayable",
      "type": "function"
    },
    {
      "inputs": [
        {
          "internalType": "address",
          "name": "from",
          "type": "address"
        },
        {
          "internalType": "address",
          "name": "to",
          "type": "address"
        },
        {
          "internalType": "uint256",
          "name": "tokenId",
          "type": "uint256"
        }
      ],
      "name": "safeTransferFrom",
      "outputs": [],
      "stateMutability": "nonpayable",
      "type": "function"
    },
    {
      "inputs": [
        {
          "internalType": "address",
          "name": "from",
          "type": "address"
        },
        {
          "internalType": "address",
          "name": "to",
          "type": "address"
        },
        {
          "internalType": "uint256",
          "name": "tokenId",
          "type": "uint256"
        },
        {
          "internalType": "bytes",
          "name": "data",
          "type": "bytes"
        }
      ],
      "name": "safeTransferFrom",
      "outputs": [],
      "stateMutability": "nonpayable",
      "type": "function"
    },
    {
      "inputs": [
        {
          "internalType": "address",
          "name": "operator",
          "type": "address"
        },
        {
          "internalType": "bool",
          "name": "approved",
          "type": "bool"
        }
      ],
      "name": "setApprovalForAll",
      "outputs": [],
      "stateMutability": "nonpayable",
      "type": "function"
    },
    {
      "inputs": [
        {
          "internalType": "bytes4",
          "name": "interfaceId",
          "type": "bytes4"
        }
      ],
      "name": "supportsInterface",
      "outputs": [
        {
          "internalType": "bool",
          "name": "",
          "type": "bool"
        }
      ],
      "stateMutability": "view",
      "type": "function"
    },
    {
      "inputs": [],
      "name": "symbol",
      "outputs": [
        {
          "internalType": "string",
          "name": "",
          "type": "string"
        }
      ],
      "stateMutability": "view",
      "type": "function"
    },
    {
      "inputs": [
        {
          "internalType": "uint256",
          "name": "index",
          "type": "uint256"
        }
      ],
      "name": "tokenByIndex",
      "outputs": [
        {
          "internalType": "uint256",
          "name": "",
          "type": "uint256"
        }
      ],
      "stateMutability": "view",
      "type": "function"
    },
    {
      "inputs": [
        {
          "internalType": "address",
          "name": "owner",
          "type": "address"
        },
        {
          "internalType": "uint256",
          "name": "index",
          "type": "uint256"
        }
      ],
      "name": "tokenOfOwnerByIndex",
      "outputs": [
        {
          "internalType": "uint256",
          "name": "",
          "type": "uint256"
        }
      ],
      "stateMutability": "view",
      "type": "function"
    },
    {
      "inputs": [
        {
          "internalType": "uint256",
          "name": "tokenId",
          "type": "uint256"
        }
      ],
      "name": "tokenURI",
      "outputs": [
        {
          "internalType": "string",
          "name": "",
          "type": "string"
        }
      ],
      "stateMutability": "view",
      "type": "function"
    },
    {
      "inputs": [],
      "name": "totalSupply",
      "outputs": [
        {
          "internalType": "uint256",
          "name": "",
          "type": "uint256"
        }
      ],
      "stateMutability": "view",
      "type": "function"
    },
    {
      "inputs": [
        {
          "internalType": "address",
          "name": "from",
          "type": "address"
        },
        {
          "internalType": "address",
          "name": "to",
          "type": "address"
        },
        {
          "internalType": "uint256",
          "name": "tokenId",
          "type": "uint256"
        }
      ],
      "name": "transferFrom",
      "outputs": [],
      "stateMutability": "nonpayable",
      "type": "function"
    }
  ],
  "bytecode": "0x60806040523480156200001157600080fd5b506040518060400160405280600a81526020017f436f6c6c657463696f6e000000000000000000000000000000000000000000008152506040518060400160405280600381526020017f434343000000000000000000000000000000000000000000000000000000000081525081600090816200008f919062000324565b508060019081620000a1919062000324565b5050506200040b565b600081519050919050565b7f4e487b7100000000000000000000000000000000000000000000000000000000600052604160045260246000fd5b7f4e487b7100000000000000000000000000000000000000000000000000000000600052602260045260246000fd5b600060028204905060018216806200012c57607f821691505b602082108103620001425762000141620000e4565b5b50919050565b60008190508160005260206000209050919050565b60006020601f8301049050919050565b600082821b905092915050565b600060088302620001ac7fffffffffffffffffffffffffffffffffffffffffffffffffffffffffffffffff826200016d565b620001b886836200016d565b95508019841693508086168417925050509392505050565b6000819050919050565b6000819050919050565b600062000205620001ff620001f984620001d0565b620001da565b620001d0565b9050919050565b6000819050919050565b6200022183620001e4565b6200023962000230826200020c565b8484546200017a565b825550505050565b600090565b6200025062000241565b6200025d81848462000216565b505050565b5b8181101562000285576200027960008262000246565b60018101905062000263565b5050565b601f821115620002d4576200029e8162000148565b620002a9846200015d565b81016020851015620002b9578190505b620002d1620002c8856200015d565b83018262000262565b50505b505050565b600082821c905092915050565b6000620002f960001984600802620002d9565b1980831691505092915050565b6000620003148383620002e6565b9150826002028217905092915050565b6200032f82620000aa565b67ffffffffffffffff8111156200034b576200034a620000b5565b5b62000357825462000113565b6200036482828562000289565b600060209050601f8311600181146200039c576000841562000387578287015190505b62000393858262000306565b86555062000403565b601f198416620003ac8662000148565b60005b82811015620003d657848901518255600182019150602085019450602081019050620003af565b86831015620003f65784890151620003f2601f891682620002e6565b8355505b6001600288020188555050505b505050505050565b612b3f806200041b6000396000f3fe608060405234801561001057600080fd5b50600436106101165760003560e01c80634f6ccce7116100a2578063a22cb46511610071578063a22cb46514610307578063b88d4fde14610323578063c87b56dd1461033f578063d204c45e1461036f578063e985e9c51461038b57610116565b80634f6ccce7146102595780636352211e1461028957806370a08231146102b957806395d89b41146102e957610116565b806318160ddd116100e957806318160ddd146101b557806323b872dd146101d35780632f745c59146101ef57806342842e0e1461021f5780634a60f6201461023b57610116565b806301ffc9a71461011b57806306fdde031461014b578063081812fc14610169578063095ea7b314610199575b600080fd5b61013560048036038101906101309190611f05565b6103bb565b6040516101429190611f4d565b60405180910390f35b6101536103cd565b6040516101609190611ff8565b60405180910390f35b610183600480360381019061017e9190612050565b61045f565b60405161019091906120be565b60405180910390f35b6101b360048036038101906101ae9190612105565b61047b565b005b6101bd610491565b6040516101ca9190612154565b60405180910390f35b6101ed60048036038101906101e8919061216f565b61049e565b005b61020960048036038101906102049190612105565b6105a0565b6040516102169190612154565b60405180910390f35b6102396004803603810190610234919061216f565b610649565b005b610243610669565b6040516102509190612154565b60405180910390f35b610273600480360381019061026e9190612050565b61066f565b6040516102809190612154565b60405180910390f35b6102a3600480360381019061029e9190612050565b6106e5565b6040516102b091906120be565b60405180910390f35b6102d360048036038101906102ce91906121c2565b6106f7565b6040516102e09190612154565b60405180910390f35b6102f16107b1565b6040516102fe9190611ff8565b60405180910390f35b610321600480360381019061031c919061221b565b610843565b005b61033d60048036038101906103389190612390565b610859565b005b61035960048036038101906103549190612050565b610876565b6040516103669190611ff8565b60405180910390f35b610389600480360381019061038491906124b4565b610888565b005b6103a560048036038101906103a09190612510565b6108bc565b6040516103b29190611f4d565b60405180910390f35b60006103c682610950565b9050919050565b6060600080546103dc9061257f565b80601f01602080910402602001604051908101604052809291908181526020018280546104089061257f565b80156104555780601f1061042a57610100808354040283529160200191610455565b820191906000526020600020905b81548152906001019060200180831161043857829003601f168201915b5050505050905090565b600061046a826109ca565b5061047482610a52565b9050919050565b61048d8282610488610a8f565b610a97565b5050565b6000600980549050905090565b600073ffffffffffffffffffffffffffffffffffffffff168273ffffffffffffffffffffffffffffffffffffffff16036105105760006040517f64a0ae9200000000000000000000000000000000000000000000000000000000815260040161050791906120be565b60405180910390fd5b6000610524838361051f610a8f565b610aa9565b90508373ffffffffffffffffffffffffffffffffffffffff168173ffffffffffffffffffffffffffffffffffffffff161461059a578382826040517f64283d7b000000000000000000000000000000000000000000000000000000008152600401610591939291906125b0565b60405180910390fd5b50505050565b60006105ab836106f7565b82106105f05782826040517fa57d13dc0000000000000000000000000000000000000000000000000000000081526004016105e79291906125e7565b60405180910390fd5b600760008473ffffffffffffffffffffffffffffffffffffffff1673ffffffffffffffffffffffffffffffffffffffff168152602001908152602001600020600083815260200190815260200160002054905092915050565b61066483838360405180602001604052806000815250610859565b505050565b600b5481565b6000610679610491565b82106106bf576000826040517fa57d13dc0000000000000000000000000000000000000000000000000000000081526004016106b69291906125e7565b60405180910390fd5b600982815481106106d3576106d2612610565b5b90600052602060002001549050919050565b60006106f0826109ca565b9050919050565b60008073ffffffffffffffffffffffffffffffffffffffff168273ffffffffffffffffffffffffffffffffffffffff160361076a5760006040517f89c62b6400000000000000000000000000000000000000000000000000000000815260040161076191906120be565b60405180910390fd5b600360008373ffffffffffffffffffffffffffffffffffffffff1673ffffffffffffffffffffffffffffffffffffffff168152602001908152602001600020549050919050565b6060600180546107c09061257f565b80601f01602080910402602001604051908101604052809291908181526020018280546107ec9061257f565b80156108395780601f1061080e57610100808354040283529160200191610839565b820191906000526020600020905b81548152906001019060200180831161081c57829003601f168201915b5050505050905090565b61085561084e610a8f565b8383610abf565b5050565b61086484848461049e565b61087084848484610c2e565b50505050565b606061088182610de5565b9050919050565b6000600b600081548092919061089d9061266e565b9190505590506108ad8382610ef8565b6108b78183610f16565b505050565b6000600560008473ffffffffffffffffffffffffffffffffffffffff1673ffffffffffffffffffffffffffffffffffffffff16815260200190815260200160002060008373ffffffffffffffffffffffffffffffffffffffff1673ffffffffffffffffffffffffffffffffffffffff16815260200190815260200160002060009054906101000a900460ff16905092915050565b60007f780e9d63000000000000000000000000000000000000000000000000000000007bffffffffffffffffffffffffffffffffffffffffffffffffffffffff1916827bffffffffffffffffffffffffffffffffffffffffffffffffffffffff191614806109c357506109c282610f72565b5b9050919050565b6000806109d683610fd3565b9050600073ffffffffffffffffffffffffffffffffffffffff168173ffffffffffffffffffffffffffffffffffffffff1603610a4957826040517f7e273289000000000000000000000000000000000000000000000000000000008152600401610a409190612154565b60405180910390fd5b80915050919050565b60006004600083815260200190815260200160002060009054906101000a900473ffffffffffffffffffffffffffffffffffffffff169050919050565b600033905090565b610aa48383836001611010565b505050565b6000610ab68484846111d5565b90509392505050565b600073ffffffffffffffffffffffffffffffffffffffff168273ffffffffffffffffffffffffffffffffffffffff1603610b3057816040517f5b08ba18000000000000000000000000000000000000000000000000000000008152600401610b2791906120be565b60405180910390fd5b80600560008573ffffffffffffffffffffffffffffffffffffffff1673ffffffffffffffffffffffffffffffffffffffff16815260200190815260200160002060008473ffffffffffffffffffffffffffffffffffffffff1673ffffffffffffffffffffffffffffffffffffffff16815260200190815260200160002060006101000a81548160ff0219169083151502179055508173ffffffffffffffffffffffffffffffffffffffff168373ffffffffffffffffffffffffffffffffffffffff167f17307eab39ab6107e8899845ad3d59bd9653f200f220920489ca2b5937696c3183604051610c219190611f4d565b60405180910390a3505050565b60008373ffffffffffffffffffffffffffffffffffffffff163b1115610ddf578273ffffffffffffffffffffffffffffffffffffffff1663150b7a02610c72610a8f565b8685856040518563ffffffff1660e01b8152600401610c94949392919061270b565b6020604051808303816000875af1925050508015610cd057506040513d601f19601f82011682018060405250810190610ccd919061276c565b60015b610d54573d8060008114610d00576040519150601f19603f3d011682016040523d82523d6000602084013e610d05565b606091505b506000815103610d4c57836040517f64a0ae92000000000000000000000000000000000000000000000000000000008152600401610d4391906120be565b60405180910390fd5b805181602001fd5b63150b7a0260e01b7bffffffffffffffffffffffffffffffffffffffffffffffffffffffff1916817bffffffffffffffffffffffffffffffffffffffffffffffffffffffff191614610ddd57836040517f64a0ae92000000000000000000000000000000000000000000000000000000008152600401610dd491906120be565b60405180910390fd5b505b50505050565b6060610df0826109ca565b506000600660008481526020019081526020016000208054610e119061257f565b80601f0160208091040260200160405190810160405280929190818152602001828054610e3d9061257f565b8015610e8a5780601f10610e5f57610100808354040283529160200191610e8a565b820191906000526020600020905b815481529060010190602001808311610e6d57829003601f168201915b505050505090506000610e9b6112f2565b90506000815103610eb0578192505050610ef3565b600082511115610ee5578082604051602001610ecd9291906127d5565b60405160208183030381529060405292505050610ef3565b610eee84611309565b925050505b919050565b610f12828260405180602001604052806000815250611372565b5050565b80600660008481526020019081526020016000209081610f3691906129a5565b507ff8e1a15aba9398e019f0b49df1a4fde98ee17ae345cb5f6b5e2c27f5033e8ce782604051610f669190612154565b60405180910390a15050565b6000634906490660e01b7bffffffffffffffffffffffffffffffffffffffffffffffffffffffff1916827bffffffffffffffffffffffffffffffffffffffffffffffffffffffff19161480610fcc5750610fcb8261138e565b5b9050919050565b60006002600083815260200190815260200160002060009054906101000a900473ffffffffffffffffffffffffffffffffffffffff169050919050565b80806110495750600073ffffffffffffffffffffffffffffffffffffffff168273ffffffffffffffffffffffffffffffffffffffff1614155b1561117d576000611059846109ca565b9050600073ffffffffffffffffffffffffffffffffffffffff168373ffffffffffffffffffffffffffffffffffffffff16141580156110c457508273ffffffffffffffffffffffffffffffffffffffff168173ffffffffffffffffffffffffffffffffffffffff1614155b80156110d757506110d581846108bc565b155b1561111957826040517fa9fbf51f00000000000000000000000000000000000000000000000000000000815260040161111091906120be565b60405180910390fd5b811561117b57838573ffffffffffffffffffffffffffffffffffffffff168273ffffffffffffffffffffffffffffffffffffffff167f8c5be1e5ebec7d5bd14f71427d1e84f3dd0314c0f7b2291e5b200ac8c7c3b92560405160405180910390a45b505b836004600085815260200190815260200160002060006101000a81548173ffffffffffffffffffffffffffffffffffffffff021916908373ffffffffffffffffffffffffffffffffffffffff16021790555050505050565b6000806111e3858585611470565b9050600073ffffffffffffffffffffffffffffffffffffffff168173ffffffffffffffffffffffffffffffffffffffff1603611227576112228461168a565b611266565b8473ffffffffffffffffffffffffffffffffffffffff168173ffffffffffffffffffffffffffffffffffffffff16146112655761126481856116d3565b5b5b600073ffffffffffffffffffffffffffffffffffffffff168573ffffffffffffffffffffffffffffffffffffffff16036112a8576112a384611834565b6112e7565b8473ffffffffffffffffffffffffffffffffffffffff168173ffffffffffffffffffffffffffffffffffffffff16146112e6576112e58585611905565b5b5b809150509392505050565b606060405180602001604052806000815250905090565b6060611314826109ca565b50600061131f6112f2565b9050600081511161133f576040518060200160405280600081525061136a565b8061134984611990565b60405160200161135a9291906127d5565b6040516020818303038152906040525b915050919050565b61137c8383611a5e565b6113896000848484610c2e565b505050565b60007f80ac58cd000000000000000000000000000000000000000000000000000000007bffffffffffffffffffffffffffffffffffffffffffffffffffffffff1916827bffffffffffffffffffffffffffffffffffffffffffffffffffffffff1916148061145957507f5b5e139f000000000000000000000000000000000000000000000000000000007bffffffffffffffffffffffffffffffffffffffffffffffffffffffff1916827bffffffffffffffffffffffffffffffffffffffffffffffffffffffff1916145b80611469575061146882611b57565b5b9050919050565b60008061147c84610fd3565b9050600073ffffffffffffffffffffffffffffffffffffffff168373ffffffffffffffffffffffffffffffffffffffff16146114be576114bd818486611bc1565b5b600073ffffffffffffffffffffffffffffffffffffffff168173ffffffffffffffffffffffffffffffffffffffff161461154f57611500600085600080611010565b6001600360008373ffffffffffffffffffffffffffffffffffffffff1673ffffffffffffffffffffffffffffffffffffffff168152602001908152602001600020600082825403925050819055505b600073ffffffffffffffffffffffffffffffffffffffff168573ffffffffffffffffffffffffffffffffffffffff16146115d2576001600360008773ffffffffffffffffffffffffffffffffffffffff1673ffffffffffffffffffffffffffffffffffffffff168152602001908152602001600020600082825401925050819055505b846002600086815260200190815260200160002060006101000a81548173ffffffffffffffffffffffffffffffffffffffff021916908373ffffffffffffffffffffffffffffffffffffffff160217905550838573ffffffffffffffffffffffffffffffffffffffff168273ffffffffffffffffffffffffffffffffffffffff167fddf252ad1be2c89b69c2b068fc378daa952ba7f163c4a11628f55a4df523b3ef60405160405180910390a4809150509392505050565b600980549050600a600083815260200190815260200160002081905550600981908060018154018082558091505060019003906000526020600020016000909190919091505550565b60006116de836106f7565b90506000600860008481526020019081526020016000205490508181146117c3576000600760008673ffffffffffffffffffffffffffffffffffffffff1673ffffffffffffffffffffffffffffffffffffffff168152602001908152602001600020600084815260200190815260200160002054905080600760008773ffffffffffffffffffffffffffffffffffffffff1673ffffffffffffffffffffffffffffffffffffffff168152602001908152602001600020600084815260200190815260200160002081905550816008600083815260200190815260200160002081905550505b6008600084815260200190815260200160002060009055600760008573ffffffffffffffffffffffffffffffffffffffff1673ffffffffffffffffffffffffffffffffffffffff16815260200190815260200160002060008381526020019081526020016000206000905550505050565b600060016009805490506118489190612a77565b90506000600a600084815260200190815260200160002054905060006009838154811061187857611877612610565b5b90600052602060002001549050806009838154811061189a57611899612610565b5b906000526020600020018190555081600a600083815260200190815260200160002081905550600a60008581526020019081526020016000206000905560098054806118e9576118e8612aab565b5b6001900381819060005260206000200160009055905550505050565b60006001611912846106f7565b61191c9190612a77565b905081600760008573ffffffffffffffffffffffffffffffffffffffff1673ffffffffffffffffffffffffffffffffffffffff168152602001908152602001600020600083815260200190815260200160002081905550806008600084815260200190815260200160002081905550505050565b60606000600161199f84611c85565b01905060008167ffffffffffffffff8111156119be576119bd612265565b5b6040519080825280601f01601f1916602001820160405280156119f05781602001600182028036833780820191505090505b509050600082602001820190505b600115611a53578080600190039150507f3031323334353637383961626364656600000000000000000000000000000000600a86061a8153600a8581611a4757611a46612ada565b5b049450600085036119fe575b819350505050919050565b600073ffffffffffffffffffffffffffffffffffffffff168273ffffffffffffffffffffffffffffffffffffffff1603611ad05760006040517f64a0ae92000000000000000000000000000000000000000000000000000000008152600401611ac791906120be565b60405180910390fd5b6000611ade83836000610aa9565b9050600073ffffffffffffffffffffffffffffffffffffffff168173ffffffffffffffffffffffffffffffffffffffff1614611b525760006040517f73c6ac6e000000000000000000000000000000000000000000000000000000008152600401611b4991906120be565b60405180910390fd5b505050565b60007f01ffc9a7000000000000000000000000000000000000000000000000000000007bffffffffffffffffffffffffffffffffffffffffffffffffffffffff1916827bffffffffffffffffffffffffffffffffffffffffffffffffffffffff1916149050919050565b611bcc838383611dd8565b611c8057600073ffffffffffffffffffffffffffffffffffffffff168373ffffffffffffffffffffffffffffffffffffffff1603611c4157806040517f7e273289000000000000000000000000000000000000000000000000000000008152600401611c389190612154565b60405180910390fd5b81816040517f177e802f000000000000000000000000000000000000000000000000000000008152600401611c779291906125e7565b60405180910390fd5b505050565b600080600090507a184f03e93ff9f4daa797ed6e38ed64bf6a1f0100000000000000008310611ce3577a184f03e93ff9f4daa797ed6e38ed64bf6a1f0100000000000000008381611cd957611cd8612ada565b5b0492506040810190505b6d04ee2d6d415b85acef81000000008310611d20576d04ee2d6d415b85acef81000000008381611d1657611d15612ada565b5b0492506020810190505b662386f26fc100008310611d4f57662386f26fc100008381611d4557611d44612ada565b5b0492506010810190505b6305f5e1008310611d78576305f5e1008381611d6e57611d6d612ada565b5b0492506008810190505b6127108310611d9d576127108381611d9357611d92612ada565b5b0492506004810190505b60648310611dc05760648381611db657611db5612ada565b5b0492506002810190505b600a8310611dcf576001810190505b80915050919050565b60008073ffffffffffffffffffffffffffffffffffffffff168373ffffffffffffffffffffffffffffffffffffffff1614158015611e9057508273ffffffffffffffffffffffffffffffffffffffff168473ffffffffffffffffffffffffffffffffffffffff161480611e515750611e5084846108bc565b5b80611e8f57508273ffffffffffffffffffffffffffffffffffffffff16611e7783610a52565b73ffffffffffffffffffffffffffffffffffffffff16145b5b90509392505050565b6000604051905090565b600080fd5b600080fd5b60007fffffffff0000000000000000000000000000000000000000000000000000000082169050919050565b611ee281611ead565b8114611eed57600080fd5b50565b600081359050611eff81611ed9565b92915050565b600060208284031215611f1b57611f1a611ea3565b5b6000611f2984828501611ef0565b91505092915050565b60008115159050919050565b611f4781611f32565b82525050565b6000602082019050611f626000830184611f3e565b92915050565b600081519050919050565b600082825260208201905092915050565b60005b83811015611fa2578082015181840152602081019050611f87565b60008484015250505050565b6000601f19601f8301169050919050565b6000611fca82611f68565b611fd48185611f73565b9350611fe4818560208601611f84565b611fed81611fae565b840191505092915050565b600060208201905081810360008301526120128184611fbf565b905092915050565b6000819050919050565b61202d8161201a565b811461203857600080fd5b50565b60008135905061204a81612024565b92915050565b60006020828403121561206657612065611ea3565b5b60006120748482850161203b565b91505092915050565b600073ffffffffffffffffffffffffffffffffffffffff82169050919050565b60006120a88261207d565b9050919050565b6120b88161209d565b82525050565b60006020820190506120d360008301846120af565b92915050565b6120e28161209d565b81146120ed57600080fd5b50565b6000813590506120ff816120d9565b92915050565b6000806040838503121561211c5761211b611ea3565b5b600061212a858286016120f0565b925050602061213b8582860161203b565b9150509250929050565b61214e8161201a565b82525050565b60006020820190506121696000830184612145565b92915050565b60008060006060848603121561218857612187611ea3565b5b6000612196868287016120f0565b93505060206121a7868287016120f0565b92505060406121b88682870161203b565b9150509250925092565b6000602082840312156121d8576121d7611ea3565b5b60006121e6848285016120f0565b91505092915050565b6121f881611f32565b811461220357600080fd5b50565b600081359050612215816121ef565b92915050565b6000806040838503121561223257612231611ea3565b5b6000612240858286016120f0565b925050602061225185828601612206565b9150509250929050565b600080fd5b600080fd5b7f4e487b7100000000000000000000000000000000000000000000000000000000600052604160045260246000fd5b61229d82611fae565b810181811067ffffffffffffffff821117156122bc576122bb612265565b5b80604052505050565b60006122cf611e99565b90506122db8282612294565b919050565b600067ffffffffffffffff8211156122fb576122fa612265565b5b61230482611fae565b9050602081019050919050565b82818337600083830152505050565b600061233361232e846122e0565b6122c5565b90508281526020810184848401111561234f5761234e612260565b5b61235a848285612311565b509392505050565b600082601f8301126123775761237661225b565b5b8135612387848260208601612320565b91505092915050565b600080600080608085870312156123aa576123a9611ea3565b5b60006123b8878288016120f0565b94505060206123c9878288016120f0565b93505060406123da8782880161203b565b925050606085013567ffffffffffffffff8111156123fb576123fa611ea8565b5b61240787828801612362565b91505092959194509250565b600067ffffffffffffffff82111561242e5761242d612265565b5b61243782611fae565b9050602081019050919050565b600061245761245284612413565b6122c5565b90508281526020810184848401111561247357612472612260565b5b61247e848285612311565b509392505050565b600082601f83011261249b5761249a61225b565b5b81356124ab848260208601612444565b91505092915050565b600080604083850312156124cb576124ca611ea3565b5b60006124d9858286016120f0565b925050602083013567ffffffffffffffff8111156124fa576124f9611ea8565b5b61250685828601612486565b9150509250929050565b6000806040838503121561252757612526611ea3565b5b6000612535858286016120f0565b9250506020612546858286016120f0565b9150509250929050565b7f4e487b7100000000000000000000000000000000000000000000000000000000600052602260045260246000fd5b6000600282049050600182168061259757607f821691505b6020821081036125aa576125a9612550565b5b50919050565b60006060820190506125c560008301866120af565b6125d26020830185612145565b6125df60408301846120af565b949350505050565b60006040820190506125fc60008301856120af565b6126096020830184612145565b9392505050565b7f4e487b7100000000000000000000000000000000000000000000000000000000600052603260045260246000fd5b7f4e487b7100000000000000000000000000000000000000000000000000000000600052601160045260246000fd5b60006126798261201a565b91507fffffffffffffffffffffffffffffffffffffffffffffffffffffffffffffffff82036126ab576126aa61263f565b5b600182019050919050565b600081519050919050565b600082825260208201905092915050565b60006126dd826126b6565b6126e781856126c1565b93506126f7818560208601611f84565b61270081611fae565b840191505092915050565b600060808201905061272060008301876120af565b61272d60208301866120af565b61273a6040830185612145565b818103606083015261274c81846126d2565b905095945050505050565b60008151905061276681611ed9565b92915050565b60006020828403121561278257612781611ea3565b5b600061279084828501612757565b91505092915050565b600081905092915050565b60006127af82611f68565b6127b98185612799565b93506127c9818560208601611f84565b80840191505092915050565b60006127e182856127a4565b91506127ed82846127a4565b91508190509392505050565b60008190508160005260206000209050919050565b60006020601f8301049050919050565b600082821b905092915050565b60006008830261285b7fffffffffffffffffffffffffffffffffffffffffffffffffffffffffffffffff8261281e565b612865868361281e565b95508019841693508086168417925050509392505050565b6000819050919050565b60006128a261289d6128988461201a565b61287d565b61201a565b9050919050565b6000819050919050565b6128bc83612887565b6128d06128c8826128a9565b84845461282b565b825550505050565b600090565b6128e56128d8565b6128f08184846128b3565b505050565b5b81811015612914576129096000826128dd565b6001810190506128f6565b5050565b601f8211156129595761292a816127f9565b6129338461280e565b81016020851015612942578190505b61295661294e8561280e565b8301826128f5565b50505b505050565b600082821c905092915050565b600061297c6000198460080261295e565b1980831691505092915050565b6000612995838361296b565b9150826002028217905092915050565b6129ae82611f68565b67ffffffffffffffff8111156129c7576129c6612265565b5b6129d1825461257f565b6129dc828285612918565b600060209050601f831160018114612a0f57600084156129fd578287015190505b612a078582612989565b865550612a6f565b601f198416612a1d866127f9565b60005b82811015612a4557848901518255600182019150602085019450602081019050612a20565b86831015612a625784890151612a5e601f89168261296b565b8355505b6001600288020188555050505b505050505050565b6000612a828261201a565b9150612a8d8361201a565b9250828203905081811115612aa557612aa461263f565b5b92915050565b7f4e487b7100000000000000000000000000000000000000000000000000000000600052603160045260246000fd5b7f4e487b7100000000000000000000000000000000000000000000000000000000600052601260045260246000fdfea26469706673582212209a0c917b4eee8f6f4e8f02e48889b745597dcb174de5e8ce8207dee609c6da4d64736f6c63430008180033",
  "linkReferences": {},
  "deployedLinkReferences": {}
}