{
  "_format": "hh-sol-artifact-1",
  "contractName": "Marketplace",
  "sourceName": "contracts/Market.sol",
  "abi": [
    {
      "inputs": [
        {
          "internalType": "address",
          "name": "_nftaddress",
          "type": "address"
        },
        {
          "internalType": "address",
          "name": "_admin",
          "type": "address"
        }
      ],
      "stateMutability": "nonpayable",
      "type": "constructor"
    },
    {
      "anonymous": false,
      "inputs": [
        {
          "indexed": true,
          "internalType": "uint256",
          "name": "tokenId",
          "type": "uint256"
        },
        {
          "indexed": true,
          "internalType": "address",
          "name": "owner",
          "type": "address"
        }
      ],
      "name": "NFTCanceled",
      "type": "event"
    },
    {
      "anonymous": false,
      "inputs": [
        {
          "indexed": true,
          "internalType": "uint256",
          "name": "tokenId",
          "type": "uint256"
        },
        {
          "indexed": true,
          "internalType": "address",
          "name": "owner",
          "type": "address"
        },
        {
          "indexed": false,
          "internalType": "uint256",
          "name": "price",
          "type": "uint256"
        }
      ],
      "name": "NFTListed",
      "type": "event"
    },
    {
      "anonymous": false,
      "inputs": [
        {
          "indexed": true,
          "internalType": "uint256",
          "name": "tokenId",
          "type": "uint256"
        },
        {
          "indexed": true,
          "internalType": "address",
          "name": "buyer",
          "type": "address"
        },
        {
          "indexed": false,
          "internalType": "uint256",
          "name": "price",
          "type": "uint256"
        }
      ],
      "name": "NFTSold",
      "type": "event"
    },
    {
      "inputs": [],
      "name": "admin",
      "outputs": [
        {
          "internalType": "address",
          "name": "",
          "type": "address"
        }
      ],
      "stateMutability": "view",
      "type": "function"
    },
    {
      "inputs": [
        {
          "internalType": "uint256",
          "name": "_tokenId",
          "type": "uint256"
        }
      ],
      "name": "buyNFT",
      "outputs": [],
      "stateMutability": "payable",
      "type": "function"
    },
    {
      "inputs": [
        {
          "internalType": "uint256",
          "name": "_tokenId",
          "type": "uint256"
        }
      ],
      "name": "cancelNFT",
      "outputs": [],
      "stateMutability": "nonpayable",
      "type": "function"
    },
    {
      "inputs": [
        {
          "internalType": "uint256",
          "name": "_tokenId",
          "type": "uint256"
        }
      ],
      "name": "getNFT",
      "outputs": [
        {
          "components": [
            {
              "internalType": "address",
              "name": "owner",
              "type": "address"
            },
            {
              "internalType": "uint256",
              "name": "price",
              "type": "uint256"
            },
            {
              "internalType": "bool",
              "name": "sold",
              "type": "bool"
            }
          ],
          "internalType": "struct Marketplace.NFT",
          "name": "",
          "type": "tuple"
        }
      ],
      "stateMutability": "view",
      "type": "function"
    },
    {
      "inputs": [
        {
          "internalType": "uint256",
          "name": "_tokenId",
          "type": "uint256"
        },
        {
          "internalType": "uint256",
          "name": "_price",
          "type": "uint256"
        }
      ],
      "name": "listNFT",
      "outputs": [],
      "stateMutability": "nonpayable",
      "type": "function"
    },
    {
      "inputs": [
        {
          "internalType": "uint256",
          "name": "",
          "type": "uint256"
        }
      ],
      "name": "nfts",
      "outputs": [
        {
          "internalType": "address",
          "name": "owner",
          "type": "address"
        },
        {
          "internalType": "uint256",
          "name": "price",
          "type": "uint256"
        },
        {
          "internalType": "bool",
          "name": "sold",
          "type": "bool"
        }
      ],
      "stateMutability": "view",
      "type": "function"
    },
    {
      "inputs": [],
      "name": "token",
      "outputs": [
        {
          "internalType": "contract IERC721",
          "name": "",
          "type": "address"
        }
      ],
      "stateMutability": "view",
      "type": "function"
    }
  ],
  "bytecode": "0x60806040526000600360006101000a81548160ff0219169083151502179055503480156200002c57600080fd5b506040516200128b3803806200128b833981810160405281019062000052919062000145565b816000806101000a81548173ffffffffffffffffffffffffffffffffffffffff021916908373ffffffffffffffffffffffffffffffffffffffff16021790555080600160006101000a81548173ffffffffffffffffffffffffffffffffffffffff021916908373ffffffffffffffffffffffffffffffffffffffff16021790555050506200018c565b600080fd5b600073ffffffffffffffffffffffffffffffffffffffff82169050919050565b60006200010d82620000e0565b9050919050565b6200011f8162000100565b81146200012b57600080fd5b50565b6000815190506200013f8162000114565b92915050565b600080604083850312156200015f576200015e620000db565b5b60006200016f858286016200012e565b925050602062000182858286016200012e565b9150509250929050565b6110ef806200019c6000396000f3fe6080604052600436106100705760003560e01c8063576f7ea71161004e578063576f7ea7146100f957806394383f1414610136578063f851a4401461015f578063fc0c546a1461018a57610070565b8063265aa62114610075578063313e2eb9146100b457806351ed8288146100dd575b600080fd5b34801561008157600080fd5b5061009c60048036038101906100979190610ba0565b6101b5565b6040516100ab93929190610c38565b60405180910390f35b3480156100c057600080fd5b506100db60048036038101906100d69190610ba0565b61020c565b005b6100f760048036038101906100f29190610ba0565b61047d565b005b34801561010557600080fd5b50610120600480360381019061011b9190610ba0565b61085a565b60405161012d9190610cde565b60405180910390f35b34801561014257600080fd5b5061015d60048036038101906101589190610cf9565b610902565b005b34801561016b57600080fd5b50610174610ae2565b6040516101819190610d39565b60405180910390f35b34801561019657600080fd5b5061019f610b08565b6040516101ac9190610db3565b60405180910390f35b60026020528060005260406000206000915090508060000160009054906101000a900473ffffffffffffffffffffffffffffffffffffffff16908060010154908060020160009054906101000a900460ff16905083565b600160009054906101000a900473ffffffffffffffffffffffffffffffffffffffff1673ffffffffffffffffffffffffffffffffffffffff163373ffffffffffffffffffffffffffffffffffffffff161461029c576040517f08c379a000000000000000000000000000000000000000000000000000000000815260040161029390610e2b565b60405180910390fd5b60006002600083815260200190815260200160002090508060020160009054906101000a900460ff1615610305576040517f08c379a00000000000000000000000000000000000000000000000000000000081526004016102fc90610e97565b60405180910390fd5b60008054906101000a900473ffffffffffffffffffffffffffffffffffffffff1673ffffffffffffffffffffffffffffffffffffffff166323b872dd308360000160009054906101000a900473ffffffffffffffffffffffffffffffffffffffff16856040518463ffffffff1660e01b815260040161038693929190610eb7565b600060405180830381600087803b1580156103a057600080fd5b505af11580156103b4573d6000803e3d6000fd5b505050508060000160009054906101000a900473ffffffffffffffffffffffffffffffffffffffff1673ffffffffffffffffffffffffffffffffffffffff16827f15e2682218ceabb830ebfc19aa0df5aa866d8e78629ab45780aaf3d8db4f125960405160405180910390a360026000838152602001908152602001600020600080820160006101000a81549073ffffffffffffffffffffffffffffffffffffffff021916905560018201600090556002820160006101000a81549060ff021916905550505050565b600360009054906101000a900460ff16156104cd576040517f08c379a00000000000000000000000000000000000000000000000000000000081526004016104c490610f3a565b60405180910390fd5b6001600360006101000a81548160ff02191690831515021790555060006002600083815260200190815260200160002090508060020160009054906101000a900460ff1615610551576040517f08c379a000000000000000000000000000000000000000000000000000000000815260040161054890610e97565b60405180910390fd5b34816001015414610597576040517f08c379a000000000000000000000000000000000000000000000000000000000815260040161058e90610fa6565b60405180910390fd5b3373ffffffffffffffffffffffffffffffffffffffff168160000160009054906101000a900473ffffffffffffffffffffffffffffffffffffffff1673ffffffffffffffffffffffffffffffffffffffff1603610629576040517f08c379a000000000000000000000000000000000000000000000000000000000815260040161062090611012565b60405180910390fd5b60018160020160006101000a81548160ff02191690831515021790555060008160000160009054906101000a900473ffffffffffffffffffffffffffffffffffffffff169050338260000160006101000a81548173ffffffffffffffffffffffffffffffffffffffff021916908373ffffffffffffffffffffffffffffffffffffffff1602179055506000826001018190555060008054906101000a900473ffffffffffffffffffffffffffffffffffffffff1673ffffffffffffffffffffffffffffffffffffffff166342842e0e3033866040518463ffffffff1660e01b815260040161071993929190610eb7565b600060405180830381600087803b15801561073357600080fd5b505af1158015610747573d6000803e3d6000fd5b505050508073ffffffffffffffffffffffffffffffffffffffff166108fc349081150290604051600060405180830381858888f19350505050158015610791573d6000803e3d6000fd5b503373ffffffffffffffffffffffffffffffffffffffff16837f6329e40c0365262ebbff5ca819385c2b9713dcaa050ed07866d72c441395699a346040516107d99190611032565b60405180910390a360026000848152602001908152602001600020600080820160006101000a81549073ffffffffffffffffffffffffffffffffffffffff021916905560018201600090556002820160006101000a81549060ff0219169055505050506000600360006101000a81548160ff02191690831515021790555050565b610862610b2c565b600260008381526020019081526020016000206040518060600160405290816000820160009054906101000a900473ffffffffffffffffffffffffffffffffffffffff1673ffffffffffffffffffffffffffffffffffffffff1673ffffffffffffffffffffffffffffffffffffffff168152602001600182015481526020016002820160009054906101000a900460ff1615151515815250509050919050565b60008111610945576040517f08c379a000000000000000000000000000000000000000000000000000000000815260040161093c90611099565b60405180910390fd5b60008054906101000a900473ffffffffffffffffffffffffffffffffffffffff1673ffffffffffffffffffffffffffffffffffffffff166323b872dd3330856040518463ffffffff1660e01b81526004016109a293929190610eb7565b600060405180830381600087803b1580156109bc57600080fd5b505af11580156109d0573d6000803e3d6000fd5b5050505060405180606001604052803373ffffffffffffffffffffffffffffffffffffffff168152602001828152602001600015158152506002600084815260200190815260200160002060008201518160000160006101000a81548173ffffffffffffffffffffffffffffffffffffffff021916908373ffffffffffffffffffffffffffffffffffffffff1602179055506020820151816001015560408201518160020160006101000a81548160ff0219169083151502179055509050503373ffffffffffffffffffffffffffffffffffffffff16827f5f9c03de076f5063cd3ebcfe8ef7aa8af378e4b35a83c77ba9777e97083879a283604051610ad69190611032565b60405180910390a35050565b600160009054906101000a900473ffffffffffffffffffffffffffffffffffffffff1681565b60008054906101000a900473ffffffffffffffffffffffffffffffffffffffff1681565b6040518060600160405280600073ffffffffffffffffffffffffffffffffffffffff168152602001600081526020016000151581525090565b600080fd5b6000819050919050565b610b7d81610b6a565b8114610b8857600080fd5b50565b600081359050610b9a81610b74565b92915050565b600060208284031215610bb657610bb5610b65565b5b6000610bc484828501610b8b565b91505092915050565b600073ffffffffffffffffffffffffffffffffffffffff82169050919050565b6000610bf882610bcd565b9050919050565b610c0881610bed565b82525050565b610c1781610b6a565b82525050565b60008115159050919050565b610c3281610c1d565b82525050565b6000606082019050610c4d6000830186610bff565b610c5a6020830185610c0e565b610c676040830184610c29565b949350505050565b610c7881610bed565b82525050565b610c8781610b6a565b82525050565b610c9681610c1d565b82525050565b606082016000820151610cb26000850182610c6f565b506020820151610cc56020850182610c7e565b506040820151610cd86040850182610c8d565b50505050565b6000606082019050610cf36000830184610c9c565b92915050565b60008060408385031215610d1057610d0f610b65565b5b6000610d1e85828601610b8b565b9250506020610d2f85828601610b8b565b9150509250929050565b6000602082019050610d4e6000830184610bff565b92915050565b6000819050919050565b6000610d79610d74610d6f84610bcd565b610d54565b610bcd565b9050919050565b6000610d8b82610d5e565b9050919050565b6000610d9d82610d80565b9050919050565b610dad81610d92565b82525050565b6000602082019050610dc86000830184610da4565b92915050565b600082825260208201905092915050565b7f4e6f74207468652061646d696e00000000000000000000000000000000000000600082015250565b6000610e15600d83610dce565b9150610e2082610ddf565b602082019050919050565b60006020820190508181036000830152610e4481610e08565b9050919050565b7f4e465420616c726561647920736f6c6400000000000000000000000000000000600082015250565b6000610e81601083610dce565b9150610e8c82610e4b565b602082019050919050565b60006020820190508181036000830152610eb081610e74565b9050919050565b6000606082019050610ecc6000830186610bff565b610ed96020830185610bff565b610ee66040830184610c0e565b949350505050565b7f5265656e7472616e742063616c6c000000000000000000000000000000000000600082015250565b6000610f24600e83610dce565b9150610f2f82610eee565b602082019050919050565b60006020820190508181036000830152610f5381610f17565b9050919050565b7f496e636f72726563742070726963650000000000000000000000000000000000600082015250565b6000610f90600f83610dce565b9150610f9b82610f5a565b602082019050919050565b60006020820190508181036000830152610fbf81610f83565b9050919050565b7f43616e6e6f742062757920796f7572206f776e204e4654000000000000000000600082015250565b6000610ffc601783610dce565b915061100782610fc6565b602082019050919050565b6000602082019050818103600083015261102b81610fef565b9050919050565b60006020820190506110476000830184610c0e565b92915050565b7f5072696365206d7573742062652067726561746572207468616e207a65726f00600082015250565b6000611083601f83610dce565b915061108e8261104d565b602082019050919050565b600060208201905081810360008301526110b281611076565b905091905056fea26469706673582212206e121ce2fe7819b60554757bf50cc891c0ab1accbf181462f0fef934c2e1f8eb64736f6c63430008180033",
  "linkReferences": {},
  "deployedLinkReferences": {}
}