{
  "_format": "hh-sol-artifact-1",
  "contractName": "Marketplace",
  "sourceName": "contracts/Market.sol",
  "abi": [
    {
      "inputs": [
        {
          "internalType": "address",
          "name": "_nftAddress",
          "type": "address"
        },
        {
          "internalType": "address",
          "name": "_admin",
          "type": "address"
        }
      ],
      "stateMutability": "nonpayable",
      "type": "constructor"
    },
    {
      "anonymous": false,
      "inputs": [
        {
          "indexed": true,
          "internalType": "uint256",
          "name": "tokenId",
          "type": "uint256"
        },
        {
          "indexed": true,
          "internalType": "address",
          "name": "owner",
          "type": "address"
        }
      ],
      "name": "NFTCanceled",
      "type": "event"
    },
    {
      "anonymous": false,
      "inputs": [
        {
          "indexed": true,
          "internalType": "uint256",
          "name": "tokenId",
          "type": "uint256"
        },
        {
          "indexed": true,
          "internalType": "address",
          "name": "owner",
          "type": "address"
        },
        {
          "indexed": false,
          "internalType": "uint256",
          "name": "price",
          "type": "uint256"
        }
      ],
      "name": "NFTListed",
      "type": "event"
    },
    {
      "anonymous": false,
      "inputs": [
        {
          "indexed": true,
          "internalType": "uint256",
          "name": "tokenId",
          "type": "uint256"
        },
        {
          "indexed": true,
          "internalType": "address",
          "name": "buyer",
          "type": "address"
        },
        {
          "indexed": false,
          "internalType": "uint256",
          "name": "price",
          "type": "uint256"
        }
      ],
      "name": "NFTSold",
      "type": "event"
    },
    {
      "inputs": [],
      "name": "admin",
      "outputs": [
        {
          "internalType": "address",
          "name": "",
          "type": "address"
        }
      ],
      "stateMutability": "view",
      "type": "function"
    },
    {
      "inputs": [
        {
          "internalType": "uint256",
          "name": "_tokenId",
          "type": "uint256"
        }
      ],
      "name": "buyNFT",
      "outputs": [],
      "stateMutability": "payable",
      "type": "function"
    },
    {
      "inputs": [
        {
          "internalType": "uint256",
          "name": "_tokenId",
          "type": "uint256"
        }
      ],
      "name": "cancelNFT",
      "outputs": [],
      "stateMutability": "nonpayable",
      "type": "function"
    },
    {
      "inputs": [
        {
          "internalType": "uint256",
          "name": "_tokenId",
          "type": "uint256"
        }
      ],
      "name": "getNFT",
      "outputs": [
        {
          "components": [
            {
              "internalType": "address",
              "name": "owner",
              "type": "address"
            },
            {
              "internalType": "uint256",
              "name": "price",
              "type": "uint256"
            },
            {
              "internalType": "bool",
              "name": "sold",
              "type": "bool"
            }
          ],
          "internalType": "struct Marketplace.NFT",
          "name": "",
          "type": "tuple"
        }
      ],
      "stateMutability": "view",
      "type": "function"
    },
    {
      "inputs": [
        {
          "internalType": "uint256",
          "name": "_tokenId",
          "type": "uint256"
        },
        {
          "internalType": "uint256",
          "name": "_price",
          "type": "uint256"
        }
      ],
      "name": "listNFT",
      "outputs": [],
      "stateMutability": "nonpayable",
      "type": "function"
    },
    {
      "inputs": [],
      "name": "nftAddress",
      "outputs": [
        {
          "internalType": "address",
          "name": "",
          "type": "address"
        }
      ],
      "stateMutability": "view",
      "type": "function"
    },
    {
      "inputs": [
        {
          "internalType": "uint256",
          "name": "",
          "type": "uint256"
        }
      ],
      "name": "nfts",
      "outputs": [
        {
          "internalType": "address",
          "name": "owner",
          "type": "address"
        },
        {
          "internalType": "uint256",
          "name": "price",
          "type": "uint256"
        },
        {
          "internalType": "bool",
          "name": "sold",
          "type": "bool"
        }
      ],
      "stateMutability": "view",
      "type": "function"
    }
  ],
  "bytecode": "0x60806040526000600360006101000a81548160ff0219169083151502179055503480156200002c57600080fd5b506040516200140a3803806200140a833981810160405281019062000052919062000145565b816000806101000a81548173ffffffffffffffffffffffffffffffffffffffff021916908373ffffffffffffffffffffffffffffffffffffffff16021790555080600160006101000a81548173ffffffffffffffffffffffffffffffffffffffff021916908373ffffffffffffffffffffffffffffffffffffffff16021790555050506200018c565b600080fd5b600073ffffffffffffffffffffffffffffffffffffffff82169050919050565b60006200010d82620000e0565b9050919050565b6200011f8162000100565b81146200012b57600080fd5b50565b6000815190506200013f8162000114565b92915050565b600080604083850312156200015f576200015e620000db565b5b60006200016f858286016200012e565b925050602062000182858286016200012e565b9150509250929050565b61126e806200019c6000396000f3fe6080604052600436106100705760003560e01c8063576f7ea71161004e578063576f7ea7146100f95780635bf8633a1461013657806394383f1414610161578063f851a4401461018a57610070565b8063265aa62114610075578063313e2eb9146100b457806351ed8288146100dd575b600080fd5b34801561008157600080fd5b5061009c60048036038101906100979190610d18565b6101b5565b6040516100ab93929190610db0565b60405180910390f35b3480156100c057600080fd5b506100db60048036038101906100d69190610d18565b61020c565b005b6100f760048036038101906100f29190610d18565b610484565b005b34801561010557600080fd5b50610120600480360381019061011b9190610d18565b610868565b60405161012d9190610e56565b60405180910390f35b34801561014257600080fd5b5061014b610910565b6040516101589190610e71565b60405180910390f35b34801561016d57600080fd5b5061018860048036038101906101839190610e8c565b610934565b005b34801561019657600080fd5b5061019f610b92565b6040516101ac9190610e71565b60405180910390f35b60026020528060005260406000206000915090508060000160009054906101000a900473ffffffffffffffffffffffffffffffffffffffff16908060010154908060020160009054906101000a900460ff16905083565b600160009054906101000a900473ffffffffffffffffffffffffffffffffffffffff1673ffffffffffffffffffffffffffffffffffffffff163373ffffffffffffffffffffffffffffffffffffffff161461029c576040517f08c379a000000000000000000000000000000000000000000000000000000000815260040161029390610f29565b60405180910390fd5b60006002600083815260200190815260200160002090508060020160009054906101000a900460ff1615610305576040517f08c379a00000000000000000000000000000000000000000000000000000000081526004016102fc90610f95565b60405180910390fd5b60008060009054906101000a900473ffffffffffffffffffffffffffffffffffffffff1690508073ffffffffffffffffffffffffffffffffffffffff166323b872dd308460000160009054906101000a900473ffffffffffffffffffffffffffffffffffffffff16866040518463ffffffff1660e01b815260040161038c93929190610fb5565b600060405180830381600087803b1580156103a657600080fd5b505af11580156103ba573d6000803e3d6000fd5b505050508160000160009054906101000a900473ffffffffffffffffffffffffffffffffffffffff1673ffffffffffffffffffffffffffffffffffffffff16837f15e2682218ceabb830ebfc19aa0df5aa866d8e78629ab45780aaf3d8db4f125960405160405180910390a360026000848152602001908152602001600020600080820160006101000a81549073ffffffffffffffffffffffffffffffffffffffff021916905560018201600090556002820160006101000a81549060ff02191690555050505050565b600360009054906101000a900460ff16156104d4576040517f08c379a00000000000000000000000000000000000000000000000000000000081526004016104cb90611038565b60405180910390fd5b6001600360006101000a81548160ff02191690831515021790555060006002600083815260200190815260200160002090508060020160009054906101000a900460ff1615610558576040517f08c379a000000000000000000000000000000000000000000000000000000000815260040161054f90610f95565b60405180910390fd5b3481600101541461059e576040517f08c379a0000000000000000000000000000000000000000000000000000000008152600401610595906110a4565b60405180910390fd5b3373ffffffffffffffffffffffffffffffffffffffff168160000160009054906101000a900473ffffffffffffffffffffffffffffffffffffffff1673ffffffffffffffffffffffffffffffffffffffff1603610630576040517f08c379a000000000000000000000000000000000000000000000000000000000815260040161062790611110565b60405180910390fd5b60018160020160006101000a81548160ff02191690831515021790555060008160000160009054906101000a900473ffffffffffffffffffffffffffffffffffffffff169050338260000160006101000a81548173ffffffffffffffffffffffffffffffffffffffff021916908373ffffffffffffffffffffffffffffffffffffffff1602179055506000826001018190555060008060009054906101000a900473ffffffffffffffffffffffffffffffffffffffff1690508073ffffffffffffffffffffffffffffffffffffffff166323b872dd3033876040518463ffffffff1660e01b815260040161072693929190610fb5565b600060405180830381600087803b15801561074057600080fd5b505af1158015610754573d6000803e3d6000fd5b505050508173ffffffffffffffffffffffffffffffffffffffff166108fc349081150290604051600060405180830381858888f1935050505015801561079e573d6000803e3d6000fd5b503373ffffffffffffffffffffffffffffffffffffffff16847f6329e40c0365262ebbff5ca819385c2b9713dcaa050ed07866d72c441395699a346040516107e69190611130565b60405180910390a360026000858152602001908152602001600020600080820160006101000a81549073ffffffffffffffffffffffffffffffffffffffff021916905560018201600090556002820160006101000a81549060ff021916905550505050506000600360006101000a81548160ff02191690831515021790555050565b610870610c9a565b600260008381526020019081526020016000206040518060600160405290816000820160009054906101000a900473ffffffffffffffffffffffffffffffffffffffff1673ffffffffffffffffffffffffffffffffffffffff1673ffffffffffffffffffffffffffffffffffffffff168152602001600182015481526020016002820160009054906101000a900460ff1615151515815250509050919050565b60008054906101000a900473ffffffffffffffffffffffffffffffffffffffff1681565b60008111610977576040517f08c379a000000000000000000000000000000000000000000000000000000000815260040161096e90611197565b60405180910390fd5b60405180606001604052803373ffffffffffffffffffffffffffffffffffffffff168152602001828152602001600015158152506002600084815260200190815260200160002060008201518160000160006101000a81548173ffffffffffffffffffffffffffffffffffffffff021916908373ffffffffffffffffffffffffffffffffffffffff1602179055506020820151816001015560408201518160020160006101000a81548160ff02191690831515021790555090505060008060009054906101000a900473ffffffffffffffffffffffffffffffffffffffff1690508073ffffffffffffffffffffffffffffffffffffffff1663095ea7b330856040518363ffffffff1660e01b8152600401610a939291906111b7565b600060405180830381600087803b158015610aad57600080fd5b505af1158015610ac1573d6000803e3d6000fd5b505050508073ffffffffffffffffffffffffffffffffffffffff166323b872dd3330866040518463ffffffff1660e01b8152600401610b0293929190610fb5565b600060405180830381600087803b158015610b1c57600080fd5b505af1158015610b30573d6000803e3d6000fd5b50505050610b3e8383610bb8565b3373ffffffffffffffffffffffffffffffffffffffff16837f5f9c03de076f5063cd3ebcfe8ef7aa8af378e4b35a83c77ba9777e97083879a284604051610b859190611130565b60405180910390a3505050565b600160009054906101000a900473ffffffffffffffffffffffffffffffffffffffff1681565b610c508282604051602401610bce9291906111e0565b6040516020818303038152906040527ff666715a000000000000000000000000000000000000000000000000000000007bffffffffffffffffffffffffffffffffffffffffffffffffffffffff19166020820180517bffffffffffffffffffffffffffffffffffffffffffffffffffffffff8381831617835250505050610c54565b5050565b610c6b81610c63610c6e610c8f565b63ffffffff16565b50565b60006a636f6e736f6c652e6c6f679050600080835160208501845afa505050565b610cd3819050919050565b6040518060600160405280600073ffffffffffffffffffffffffffffffffffffffff168152602001600081526020016000151581525090565b610cdb611209565b565b600080fd5b6000819050919050565b610cf581610ce2565b8114610d0057600080fd5b50565b600081359050610d1281610cec565b92915050565b600060208284031215610d2e57610d2d610cdd565b5b6000610d3c84828501610d03565b91505092915050565b600073ffffffffffffffffffffffffffffffffffffffff82169050919050565b6000610d7082610d45565b9050919050565b610d8081610d65565b82525050565b610d8f81610ce2565b82525050565b60008115159050919050565b610daa81610d95565b82525050565b6000606082019050610dc56000830186610d77565b610dd26020830185610d86565b610ddf6040830184610da1565b949350505050565b610df081610d65565b82525050565b610dff81610ce2565b82525050565b610e0e81610d95565b82525050565b606082016000820151610e2a6000850182610de7565b506020820151610e3d6020850182610df6565b506040820151610e506040850182610e05565b50505050565b6000606082019050610e6b6000830184610e14565b92915050565b6000602082019050610e866000830184610d77565b92915050565b60008060408385031215610ea357610ea2610cdd565b5b6000610eb185828601610d03565b9250506020610ec285828601610d03565b9150509250929050565b600082825260208201905092915050565b7f4e6f74207468652061646d696e00000000000000000000000000000000000000600082015250565b6000610f13600d83610ecc565b9150610f1e82610edd565b602082019050919050565b60006020820190508181036000830152610f4281610f06565b9050919050565b7f4e465420616c726561647920736f6c6400000000000000000000000000000000600082015250565b6000610f7f601083610ecc565b9150610f8a82610f49565b602082019050919050565b60006020820190508181036000830152610fae81610f72565b9050919050565b6000606082019050610fca6000830186610d77565b610fd76020830185610d77565b610fe46040830184610d86565b949350505050565b7f5265656e7472616e742063616c6c000000000000000000000000000000000000600082015250565b6000611022600e83610ecc565b915061102d82610fec565b602082019050919050565b6000602082019050818103600083015261105181611015565b9050919050565b7f496e636f72726563742070726963650000000000000000000000000000000000600082015250565b600061108e600f83610ecc565b915061109982611058565b602082019050919050565b600060208201905081810360008301526110bd81611081565b9050919050565b7f43616e6e6f742062757920796f7572206f776e204e4654000000000000000000600082015250565b60006110fa601783610ecc565b9150611105826110c4565b602082019050919050565b60006020820190508181036000830152611129816110ed565b9050919050565b60006020820190506111456000830184610d86565b92915050565b7f5072696365206d7573742062652067726561746572207468616e207a65726f00600082015250565b6000611181601f83610ecc565b915061118c8261114b565b602082019050919050565b600060208201905081810360008301526111b081611174565b9050919050565b60006040820190506111cc6000830185610d77565b6111d96020830184610d86565b9392505050565b60006040820190506111f56000830185610d86565b6112026020830184610d86565b9392505050565b7f4e487b7100000000000000000000000000000000000000000000000000000000600052605160045260246000fdfea2646970667358221220c57ba368d18f47cc05d563661ac81fd886f9541493e78a09faceda9ab115e42364736f6c63430008180033",
  "linkReferences": {},
  "deployedLinkReferences": {}
}