{
  "_format": "hh-sol-artifact-1",
  "contractName": "Marketplace",
  "sourceName": "contracts/Market.sol",
  "abi": [
    {
      "inputs": [
        {
          "internalType": "address",
          "name": "_nftAddress",
          "type": "address"
        }
      ],
      "stateMutability": "nonpayable",
      "type": "constructor"
    },
    {
      "inputs": [
        {
          "internalType": "string",
          "name": "name",
          "type": "string"
        },
        {
          "internalType": "uint256",
          "name": "value",
          "type": "uint256"
        }
      ],
      "name": "PriceGeaterThanZero",
      "type": "error"
    },
    {
      "anonymous": false,
      "inputs": [
        {
          "indexed": true,
          "internalType": "uint256",
          "name": "tokenId",
          "type": "uint256"
        },
        {
          "indexed": true,
          "internalType": "address",
          "name": "owner",
          "type": "address"
        }
      ],
      "name": "NFTCanceled",
      "type": "event"
    },
    {
      "anonymous": false,
      "inputs": [
        {
          "indexed": true,
          "internalType": "uint256",
          "name": "tokenId",
          "type": "uint256"
        },
        {
          "indexed": true,
          "internalType": "address",
          "name": "owner",
          "type": "address"
        },
        {
          "indexed": false,
          "internalType": "uint256",
          "name": "price",
          "type": "uint256"
        }
      ],
      "name": "NFTListed",
      "type": "event"
    },
    {
      "anonymous": false,
      "inputs": [
        {
          "indexed": true,
          "internalType": "uint256",
          "name": "tokenId",
          "type": "uint256"
        },
        {
          "indexed": true,
          "internalType": "address",
          "name": "buyer",
          "type": "address"
        },
        {
          "indexed": false,
          "internalType": "uint256",
          "name": "price",
          "type": "uint256"
        }
      ],
      "name": "NFTSold",
      "type": "event"
    },
    {
      "inputs": [],
      "name": "admin",
      "outputs": [
        {
          "internalType": "address",
          "name": "",
          "type": "address"
        }
      ],
      "stateMutability": "view",
      "type": "function"
    },
    {
      "inputs": [
        {
          "internalType": "uint256",
          "name": "",
          "type": "uint256"
        }
      ],
      "name": "allNfts",
      "outputs": [
        {
          "internalType": "uint256",
          "name": "tokenId",
          "type": "uint256"
        },
        {
          "internalType": "address",
          "name": "owner",
          "type": "address"
        },
        {
          "internalType": "uint256",
          "name": "price",
          "type": "uint256"
        },
        {
          "internalType": "bool",
          "name": "sold",
          "type": "bool"
        }
      ],
      "stateMutability": "view",
      "type": "function"
    },
    {
      "inputs": [
        {
          "internalType": "uint256",
          "name": "_tokenId",
          "type": "uint256"
        }
      ],
      "name": "buyNFT",
      "outputs": [],
      "stateMutability": "payable",
      "type": "function"
    },
    {
      "inputs": [
        {
          "internalType": "uint256",
          "name": "_tokenId",
          "type": "uint256"
        }
      ],
      "name": "cancelNFT",
      "outputs": [],
      "stateMutability": "nonpayable",
      "type": "function"
    },
    {
      "inputs": [],
      "name": "getAllNFTs",
      "outputs": [
        {
          "components": [
            {
              "internalType": "uint256",
              "name": "tokenId",
              "type": "uint256"
            },
            {
              "internalType": "address",
              "name": "owner",
              "type": "address"
            },
            {
              "internalType": "uint256",
              "name": "price",
              "type": "uint256"
            },
            {
              "internalType": "bool",
              "name": "sold",
              "type": "bool"
            }
          ],
          "internalType": "struct Marketplace.NFT[]",
          "name": "",
          "type": "tuple[]"
        }
      ],
      "stateMutability": "view",
      "type": "function"
    },
    {
      "inputs": [
        {
          "internalType": "uint256",
          "name": "_tokenId",
          "type": "uint256"
        }
      ],
      "name": "getNFT",
      "outputs": [
        {
          "components": [
            {
              "internalType": "uint256",
              "name": "tokenId",
              "type": "uint256"
            },
            {
              "internalType": "address",
              "name": "owner",
              "type": "address"
            },
            {
              "internalType": "uint256",
              "name": "price",
              "type": "uint256"
            },
            {
              "internalType": "bool",
              "name": "sold",
              "type": "bool"
            }
          ],
          "internalType": "struct Marketplace.NFT",
          "name": "",
          "type": "tuple"
        }
      ],
      "stateMutability": "view",
      "type": "function"
    },
    {
      "inputs": [
        {
          "internalType": "uint256",
          "name": "",
          "type": "uint256"
        }
      ],
      "name": "idTonft",
      "outputs": [
        {
          "internalType": "uint256",
          "name": "tokenId",
          "type": "uint256"
        },
        {
          "internalType": "address",
          "name": "owner",
          "type": "address"
        },
        {
          "internalType": "uint256",
          "name": "price",
          "type": "uint256"
        },
        {
          "internalType": "bool",
          "name": "sold",
          "type": "bool"
        }
      ],
      "stateMutability": "view",
      "type": "function"
    },
    {
      "inputs": [
        {
          "internalType": "uint256",
          "name": "_tokenId",
          "type": "uint256"
        },
        {
          "internalType": "uint256",
          "name": "_price",
          "type": "uint256"
        }
      ],
      "name": "listNFT",
      "outputs": [],
      "stateMutability": "nonpayable",
      "type": "function"
    },
    {
      "inputs": [],
      "name": "token",
      "outputs": [
        {
          "internalType": "contract IERC721",
          "name": "",
          "type": "address"
        }
      ],
      "stateMutability": "view",
      "type": "function"
    }
  ],
  "bytecode": "0x60c06040526000600160006101000a81548160ff0219169083151502179055503480156200002c57600080fd5b5060405162001c0438038062001c0483398181016040528101906200005291906200019d565b600073ffffffffffffffffffffffffffffffffffffffff168173ffffffffffffffffffffffffffffffffffffffff1603620000c4576040517f08c379a0000000000000000000000000000000000000000000000000000000008152600401620000bb9062000230565b60405180910390fd5b8073ffffffffffffffffffffffffffffffffffffffff1660808173ffffffffffffffffffffffffffffffffffffffff16815250503373ffffffffffffffffffffffffffffffffffffffff1660a08173ffffffffffffffffffffffffffffffffffffffff16815250505062000252565b600080fd5b600073ffffffffffffffffffffffffffffffffffffffff82169050919050565b6000620001658262000138565b9050919050565b620001778162000158565b81146200018357600080fd5b50565b60008151905062000197816200016c565b92915050565b600060208284031215620001b657620001b562000133565b5b6000620001c68482850162000186565b91505092915050565b600082825260208201905092915050565b7f496e76616c6964204e4654206164647265737300000000000000000000000000600082015250565b600062000218601383620001cf565b91506200022582620001e0565b602082019050919050565b600060208201905081810360008301526200024b8162000209565b9050919050565b60805160a0516119696200029b600039600081816102390152610e0301526000818161032f015281816106a40152818161092101528181610a560152610e2701526119696000f3fe6080604052600436106100865760003560e01c806394383f141161005957806394383f141461014d578063c529de6514610176578063e0391b09146101b6578063f851a440146101e1578063fc0c546a1461020c57610086565b8063313e2eb91461008b5780633c1988c5146100b457806351ed8288146100f4578063576f7ea714610110575b600080fd5b34801561009757600080fd5b506100b260048036038101906100ad919061108d565b610237565b005b3480156100c057600080fd5b506100db60048036038101906100d6919061108d565b610455565b6040516100eb9493929190611125565b60405180910390f35b61010e6004803603810190610109919061108d565b6104b2565b005b34801561011c57600080fd5b506101376004803603810190610132919061108d565b610856565b60405161014491906111ec565b60405180910390f35b34801561015957600080fd5b50610174600480360381019061016f9190611207565b610907565b005b34801561018257600080fd5b5061019d6004803603810190610198919061108d565b610cb0565b6040516101ad9493929190611125565b60405180910390f35b3480156101c257600080fd5b506101cb610d1d565b6040516101d8919061134b565b60405180910390f35b3480156101ed57600080fd5b506101f6610e01565b604051610203919061136d565b60405180910390f35b34801561021857600080fd5b50610221610e25565b60405161022e91906113e7565b60405180910390f35b7f000000000000000000000000000000000000000000000000000000000000000073ffffffffffffffffffffffffffffffffffffffff163373ffffffffffffffffffffffffffffffffffffffff16146102c5576040517f08c379a00000000000000000000000000000000000000000000000000000000081526004016102bc9061145f565b60405180910390fd5b600080600083815260200190815260200160002090508060030160009054906101000a900460ff161561032d576040517f08c379a0000000000000000000000000000000000000000000000000000000008152600401610324906114cb565b60405180910390fd5b7f000000000000000000000000000000000000000000000000000000000000000073ffffffffffffffffffffffffffffffffffffffff166342842e0e308360010160009054906101000a900473ffffffffffffffffffffffffffffffffffffffff16856040518463ffffffff1660e01b81526004016103ae939291906114eb565b600060405180830381600087803b1580156103c857600080fd5b505af11580156103dc573d6000803e3d6000fd5b505050508060010160009054906101000a900473ffffffffffffffffffffffffffffffffffffffff1673ffffffffffffffffffffffffffffffffffffffff16827f15e2682218ceabb830ebfc19aa0df5aa866d8e78629ab45780aaf3d8db4f125960405160405180910390a361045182610e49565b5050565b60006020528060005260406000206000915090508060000154908060010160009054906101000a900473ffffffffffffffffffffffffffffffffffffffff16908060020154908060030160009054906101000a900460ff16905084565b600160009054906101000a900460ff1615610502576040517f08c379a00000000000000000000000000000000000000000000000000000000081526004016104f99061156e565b60405180910390fd5b60018060006101000a81548160ff021916908315150217905550600080600083815260200190815260200160002090508060030160009054906101000a900460ff1615610584576040517f08c379a000000000000000000000000000000000000000000000000000000000815260040161057b906114cb565b60405180910390fd5b348160020154146105ca576040517f08c379a00000000000000000000000000000000000000000000000000000000081526004016105c1906115da565b60405180910390fd5b3373ffffffffffffffffffffffffffffffffffffffff168160010160009054906101000a900473ffffffffffffffffffffffffffffffffffffffff1673ffffffffffffffffffffffffffffffffffffffff160361065c576040517f08c379a000000000000000000000000000000000000000000000000000000000815260040161065390611646565b60405180910390fd5b60018160030160006101000a81548160ff02191690831515021790555060008160010160009054906101000a900473ffffffffffffffffffffffffffffffffffffffff1690507f000000000000000000000000000000000000000000000000000000000000000073ffffffffffffffffffffffffffffffffffffffff166342842e0e3033866040518463ffffffff1660e01b81526004016106ff939291906114eb565b600060405180830381600087803b15801561071957600080fd5b505af115801561072d573d6000803e3d6000fd5b5050505060008173ffffffffffffffffffffffffffffffffffffffff163460405161075790611697565b60006040518083038185875af1925050503d8060008114610794576040519150601f19603f3d011682016040523d82523d6000602084013e610799565b606091505b50509050806107dd576040517f08c379a00000000000000000000000000000000000000000000000000000000081526004016107d4906116f8565b60405180910390fd5b3373ffffffffffffffffffffffffffffffffffffffff16847f6329e40c0365262ebbff5ca819385c2b9713dcaa050ed07866d72c441395699a346040516108249190611718565b60405180910390a361083584610e49565b5050506000600160006101000a81548160ff02191690831515021790555050565b61085e611012565b600080838152602001908152602001600020604051806080016040529081600082015481526020016001820160009054906101000a900473ffffffffffffffffffffffffffffffffffffffff1673ffffffffffffffffffffffffffffffffffffffff1673ffffffffffffffffffffffffffffffffffffffff168152602001600282015481526020016003820160009054906101000a900460ff1615151515815250509050919050565b813373ffffffffffffffffffffffffffffffffffffffff167f000000000000000000000000000000000000000000000000000000000000000073ffffffffffffffffffffffffffffffffffffffff16636352211e836040518263ffffffff1660e01b81526004016109789190611718565b602060405180830381865afa158015610995573d6000803e3d6000fd5b505050506040513d601f19601f820116820180604052508101906109b9919061175f565b73ffffffffffffffffffffffffffffffffffffffff1614610a0f576040517f08c379a0000000000000000000000000000000000000000000000000000000008152600401610a06906117d8565b60405180910390fd5b60008211610a5457816040517f75e333cb000000000000000000000000000000000000000000000000000000008152600401610a4b9190611844565b60405180910390fd5b7f000000000000000000000000000000000000000000000000000000000000000073ffffffffffffffffffffffffffffffffffffffff166323b872dd3330866040518463ffffffff1660e01b8152600401610ab1939291906114eb565b600060405180830381600087803b158015610acb57600080fd5b505af1158015610adf573d6000803e3d6000fd5b50505050600060405180608001604052808581526020013373ffffffffffffffffffffffffffffffffffffffff16815260200184815260200160001515815250905060028190806001815401808255809150506001900390600052602060002090600402016000909190919091506000820151816000015560208201518160010160006101000a81548173ffffffffffffffffffffffffffffffffffffffff021916908373ffffffffffffffffffffffffffffffffffffffff1602179055506040820151816002015560608201518160030160006101000a81548160ff0219169083151502179055505050806000808681526020019081526020016000206000820151816000015560208201518160010160006101000a81548173ffffffffffffffffffffffffffffffffffffffff021916908373ffffffffffffffffffffffffffffffffffffffff1602179055506040820151816002015560608201518160030160006101000a81548160ff0219169083151502179055509050503373ffffffffffffffffffffffffffffffffffffffff16847f5f9c03de076f5063cd3ebcfe8ef7aa8af378e4b35a83c77ba9777e97083879a285604051610ca29190611718565b60405180910390a350505050565b60028181548110610cc057600080fd5b90600052602060002090600402016000915090508060000154908060010160009054906101000a900473ffffffffffffffffffffffffffffffffffffffff16908060020154908060030160009054906101000a900460ff16905084565b60606002805480602002602001604051908101604052809291908181526020016000905b82821015610df85783829060005260206000209060040201604051806080016040529081600082015481526020016001820160009054906101000a900473ffffffffffffffffffffffffffffffffffffffff1673ffffffffffffffffffffffffffffffffffffffff1673ffffffffffffffffffffffffffffffffffffffff168152602001600282015481526020016003820160009054906101000a900460ff16151515158152505081526020019060010190610d41565b50505050905090565b7f000000000000000000000000000000000000000000000000000000000000000081565b7f000000000000000000000000000000000000000000000000000000000000000081565b6000600280549050905060005b8181101561100d578260028281548110610e7357610e72611872565b5b90600052602060002090600402016000015403611000576002600183610e9991906118d0565b81548110610eaa57610ea9611872565b5b906000526020600020906004020160028281548110610ecc57610ecb611872565b5b9060005260206000209060040201600082015481600001556001820160009054906101000a900473ffffffffffffffffffffffffffffffffffffffff168160010160006101000a81548173ffffffffffffffffffffffffffffffffffffffff021916908373ffffffffffffffffffffffffffffffffffffffff160217905550600282015481600201556003820160009054906101000a900460ff168160030160006101000a81548160ff0219169083151502179055509050506002805480610f9757610f96611904565b5b60019003818190600052602060002090600402016000808201600090556001820160006101000a81549073ffffffffffffffffffffffffffffffffffffffff021916905560028201600090556003820160006101000a81549060ff02191690555050905561100d565b8080600101915050610e56565b505050565b604051806080016040528060008152602001600073ffffffffffffffffffffffffffffffffffffffff168152602001600081526020016000151581525090565b600080fd5b6000819050919050565b61106a81611057565b811461107557600080fd5b50565b60008135905061108781611061565b92915050565b6000602082840312156110a3576110a2611052565b5b60006110b184828501611078565b91505092915050565b6110c381611057565b82525050565b600073ffffffffffffffffffffffffffffffffffffffff82169050919050565b60006110f4826110c9565b9050919050565b611104816110e9565b82525050565b60008115159050919050565b61111f8161110a565b82525050565b600060808201905061113a60008301876110ba565b61114760208301866110fb565b61115460408301856110ba565b6111616060830184611116565b95945050505050565b61117381611057565b82525050565b611182816110e9565b82525050565b6111918161110a565b82525050565b6080820160008201516111ad600085018261116a565b5060208201516111c06020850182611179565b5060408201516111d3604085018261116a565b5060608201516111e66060850182611188565b50505050565b60006080820190506112016000830184611197565b92915050565b6000806040838503121561121e5761121d611052565b5b600061122c85828601611078565b925050602061123d85828601611078565b9150509250929050565b600081519050919050565b600082825260208201905092915050565b6000819050602082019050919050565b608082016000820151611289600085018261116a565b50602082015161129c6020850182611179565b5060408201516112af604085018261116a565b5060608201516112c26060850182611188565b50505050565b60006112d48383611273565b60808301905092915050565b6000602082019050919050565b60006112f882611247565b6113028185611252565b935061130d83611263565b8060005b8381101561133e57815161132588826112c8565b9750611330836112e0565b925050600181019050611311565b5085935050505092915050565b6000602082019050818103600083015261136581846112ed565b905092915050565b600060208201905061138260008301846110fb565b92915050565b6000819050919050565b60006113ad6113a86113a3846110c9565b611388565b6110c9565b9050919050565b60006113bf82611392565b9050919050565b60006113d1826113b4565b9050919050565b6113e1816113c6565b82525050565b60006020820190506113fc60008301846113d8565b92915050565b600082825260208201905092915050565b7f4e6f74207468652061646d696e00000000000000000000000000000000000000600082015250565b6000611449600d83611402565b915061145482611413565b602082019050919050565b600060208201905081810360008301526114788161143c565b9050919050565b7f4e465420616c726561647920736f6c6400000000000000000000000000000000600082015250565b60006114b5601083611402565b91506114c08261147f565b602082019050919050565b600060208201905081810360008301526114e4816114a8565b9050919050565b600060608201905061150060008301866110fb565b61150d60208301856110fb565b61151a60408301846110ba565b949350505050565b7f5265656e7472616e742063616c6c000000000000000000000000000000000000600082015250565b6000611558600e83611402565b915061156382611522565b602082019050919050565b600060208201905081810360008301526115878161154b565b9050919050565b7f496e636f72726563742070726963650000000000000000000000000000000000600082015250565b60006115c4600f83611402565b91506115cf8261158e565b602082019050919050565b600060208201905081810360008301526115f3816115b7565b9050919050565b7f43616e6e6f742062757920796f7572206f776e204e4654000000000000000000600082015250565b6000611630601783611402565b915061163b826115fa565b602082019050919050565b6000602082019050818103600083015261165f81611623565b9050919050565b600081905092915050565b50565b6000611681600083611666565b915061168c82611671565b600082019050919050565b60006116a282611674565b9150819050919050565b7f4661696c656420746f2073656e64207061796d656e7400000000000000000000600082015250565b60006116e2601683611402565b91506116ed826116ac565b602082019050919050565b60006020820190508181036000830152611711816116d5565b9050919050565b600060208201905061172d60008301846110ba565b92915050565b61173c816110e9565b811461174757600080fd5b50565b60008151905061175981611733565b92915050565b60006020828403121561177557611774611052565b5b60006117838482850161174a565b91505092915050565b7f4e6f7420746865206f776e657200000000000000000000000000000000000000600082015250565b60006117c2600d83611402565b91506117cd8261178c565b602082019050919050565b600060208201905081810360008301526117f1816117b5565b9050919050565b7f5072696365206d7573742062652067726561746572207468616e207a65726f00600082015250565b600061182e601f83611402565b9150611839826117f8565b602082019050919050565b6000604082019050818103600083015261185d81611821565b905061186c60208301846110ba565b92915050565b7f4e487b7100000000000000000000000000000000000000000000000000000000600052603260045260246000fd5b7f4e487b7100000000000000000000000000000000000000000000000000000000600052601160045260246000fd5b60006118db82611057565b91506118e683611057565b92508282039050818111156118fe576118fd6118a1565b5b92915050565b7f4e487b7100000000000000000000000000000000000000000000000000000000600052603160045260246000fdfea2646970667358221220b61473a3b7508d02e724906da322cb4d133c9fbed9e2ea27f9522f9ddf04940064736f6c63430008180033",
  "linkReferences": {},
  "deployedLinkReferences": {}
}