{
  "_format": "hh-sol-artifact-1",
  "contractName": "Collections",
  "sourceName": "contracts/Collections.sol",
  "abi": [
    {
      "inputs": [],
      "stateMutability": "nonpayable",
      "type": "constructor"
    },
    {
      "inputs": [
        {
          "internalType": "address",
          "name": "sender",
          "type": "address"
        },
        {
          "internalType": "uint256",
          "name": "tokenId",
          "type": "uint256"
        },
        {
          "internalType": "address",
          "name": "owner",
          "type": "address"
        }
      ],
      "name": "ERC721IncorrectOwner",
      "type": "error"
    },
    {
      "inputs": [
        {
          "internalType": "address",
          "name": "operator",
          "type": "address"
        },
        {
          "internalType": "uint256",
          "name": "tokenId",
          "type": "uint256"
        }
      ],
      "name": "ERC721InsufficientApproval",
      "type": "error"
    },
    {
      "inputs": [
        {
          "internalType": "address",
          "name": "approver",
          "type": "address"
        }
      ],
      "name": "ERC721InvalidApprover",
      "type": "error"
    },
    {
      "inputs": [
        {
          "internalType": "address",
          "name": "operator",
          "type": "address"
        }
      ],
      "name": "ERC721InvalidOperator",
      "type": "error"
    },
    {
      "inputs": [
        {
          "internalType": "address",
          "name": "owner",
          "type": "address"
        }
      ],
      "name": "ERC721InvalidOwner",
      "type": "error"
    },
    {
      "inputs": [
        {
          "internalType": "address",
          "name": "receiver",
          "type": "address"
        }
      ],
      "name": "ERC721InvalidReceiver",
      "type": "error"
    },
    {
      "inputs": [
        {
          "internalType": "address",
          "name": "sender",
          "type": "address"
        }
      ],
      "name": "ERC721InvalidSender",
      "type": "error"
    },
    {
      "inputs": [
        {
          "internalType": "uint256",
          "name": "tokenId",
          "type": "uint256"
        }
      ],
      "name": "ERC721NonexistentToken",
      "type": "error"
    },
    {
      "anonymous": false,
      "inputs": [
        {
          "indexed": true,
          "internalType": "address",
          "name": "owner",
          "type": "address"
        },
        {
          "indexed": true,
          "internalType": "address",
          "name": "approved",
          "type": "address"
        },
        {
          "indexed": true,
          "internalType": "uint256",
          "name": "tokenId",
          "type": "uint256"
        }
      ],
      "name": "Approval",
      "type": "event"
    },
    {
      "anonymous": false,
      "inputs": [
        {
          "indexed": true,
          "internalType": "address",
          "name": "owner",
          "type": "address"
        },
        {
          "indexed": true,
          "internalType": "address",
          "name": "operator",
          "type": "address"
        },
        {
          "indexed": false,
          "internalType": "bool",
          "name": "approved",
          "type": "bool"
        }
      ],
      "name": "ApprovalForAll",
      "type": "event"
    },
    {
      "anonymous": false,
      "inputs": [
        {
          "indexed": false,
          "internalType": "uint256",
          "name": "_fromTokenId",
          "type": "uint256"
        },
        {
          "indexed": false,
          "internalType": "uint256",
          "name": "_toTokenId",
          "type": "uint256"
        }
      ],
      "name": "BatchMetadataUpdate",
      "type": "event"
    },
    {
      "anonymous": false,
      "inputs": [
        {
          "indexed": false,
          "internalType": "uint256",
          "name": "_tokenId",
          "type": "uint256"
        }
      ],
      "name": "MetadataUpdate",
      "type": "event"
    },
    {
      "anonymous": false,
      "inputs": [
        {
          "indexed": true,
          "internalType": "address",
          "name": "from",
          "type": "address"
        },
        {
          "indexed": true,
          "internalType": "address",
          "name": "to",
          "type": "address"
        },
        {
          "indexed": true,
          "internalType": "uint256",
          "name": "tokenId",
          "type": "uint256"
        }
      ],
      "name": "Transfer",
      "type": "event"
    },
    {
      "inputs": [
        {
          "internalType": "address",
          "name": "",
          "type": "address"
        },
        {
          "internalType": "uint256",
          "name": "",
          "type": "uint256"
        }
      ],
      "name": "_balanceOf",
      "outputs": [
        {
          "internalType": "uint256",
          "name": "",
          "type": "uint256"
        }
      ],
      "stateMutability": "view",
      "type": "function"
    },
    {
      "inputs": [],
      "name": "_nextTokenId",
      "outputs": [
        {
          "internalType": "uint256",
          "name": "",
          "type": "uint256"
        }
      ],
      "stateMutability": "view",
      "type": "function"
    },
    {
      "inputs": [
        {
          "internalType": "address",
          "name": "to",
          "type": "address"
        },
        {
          "internalType": "uint256",
          "name": "tokenId",
          "type": "uint256"
        }
      ],
      "name": "approve",
      "outputs": [],
      "stateMutability": "nonpayable",
      "type": "function"
    },
    {
      "inputs": [
        {
          "internalType": "address",
          "name": "owner",
          "type": "address"
        }
      ],
      "name": "balanceOf",
      "outputs": [
        {
          "internalType": "uint256",
          "name": "",
          "type": "uint256"
        }
      ],
      "stateMutability": "view",
      "type": "function"
    },
    {
      "inputs": [
        {
          "internalType": "uint256",
          "name": "tokenId",
          "type": "uint256"
        }
      ],
      "name": "getApproved",
      "outputs": [
        {
          "internalType": "address",
          "name": "",
          "type": "address"
        }
      ],
      "stateMutability": "view",
      "type": "function"
    },
    {
      "inputs": [
        {
          "internalType": "address",
          "name": "owner",
          "type": "address"
        }
      ],
      "name": "getBalanceOf",
      "outputs": [
        {
          "internalType": "uint256[]",
          "name": "",
          "type": "uint256[]"
        }
      ],
      "stateMutability": "view",
      "type": "function"
    },
    {
      "inputs": [
        {
          "internalType": "address",
          "name": "owner",
          "type": "address"
        },
        {
          "internalType": "address",
          "name": "operator",
          "type": "address"
        }
      ],
      "name": "isApprovedForAll",
      "outputs": [
        {
          "internalType": "bool",
          "name": "",
          "type": "bool"
        }
      ],
      "stateMutability": "view",
      "type": "function"
    },
    {
      "inputs": [],
      "name": "name",
      "outputs": [
        {
          "internalType": "string",
          "name": "",
          "type": "string"
        }
      ],
      "stateMutability": "view",
      "type": "function"
    },
    {
      "inputs": [
        {
          "internalType": "uint256",
          "name": "tokenId",
          "type": "uint256"
        }
      ],
      "name": "ownerOf",
      "outputs": [
        {
          "internalType": "address",
          "name": "",
          "type": "address"
        }
      ],
      "stateMutability": "view",
      "type": "function"
    },
    {
      "inputs": [
        {
          "internalType": "address",
          "name": "to",
          "type": "address"
        },
        {
          "internalType": "string",
          "name": "uri",
          "type": "string"
        }
      ],
      "name": "safeMint",
      "outputs": [],
      "stateMutability": "nonpayable",
      "type": "function"
    },
    {
      "inputs": [
        {
          "internalType": "address",
          "name": "from",
          "type": "address"
        },
        {
          "internalType": "address",
          "name": "to",
          "type": "address"
        },
        {
          "internalType": "uint256",
          "name": "tokenId",
          "type": "uint256"
        }
      ],
      "name": "safeTransferFrom",
      "outputs": [],
      "stateMutability": "nonpayable",
      "type": "function"
    },
    {
      "inputs": [
        {
          "internalType": "address",
          "name": "from",
          "type": "address"
        },
        {
          "internalType": "address",
          "name": "to",
          "type": "address"
        },
        {
          "internalType": "uint256",
          "name": "tokenId",
          "type": "uint256"
        },
        {
          "internalType": "bytes",
          "name": "data",
          "type": "bytes"
        }
      ],
      "name": "safeTransferFrom",
      "outputs": [],
      "stateMutability": "nonpayable",
      "type": "function"
    },
    {
      "inputs": [
        {
          "internalType": "address",
          "name": "operator",
          "type": "address"
        },
        {
          "internalType": "bool",
          "name": "approved",
          "type": "bool"
        }
      ],
      "name": "setApprovalForAll",
      "outputs": [],
      "stateMutability": "nonpayable",
      "type": "function"
    },
    {
      "inputs": [
        {
          "internalType": "bytes4",
          "name": "interfaceId",
          "type": "bytes4"
        }
      ],
      "name": "supportsInterface",
      "outputs": [
        {
          "internalType": "bool",
          "name": "",
          "type": "bool"
        }
      ],
      "stateMutability": "view",
      "type": "function"
    },
    {
      "inputs": [],
      "name": "symbol",
      "outputs": [
        {
          "internalType": "string",
          "name": "",
          "type": "string"
        }
      ],
      "stateMutability": "view",
      "type": "function"
    },
    {
      "inputs": [
        {
          "internalType": "uint256",
          "name": "tokenId",
          "type": "uint256"
        }
      ],
      "name": "tokenURI",
      "outputs": [
        {
          "internalType": "string",
          "name": "",
          "type": "string"
        }
      ],
      "stateMutability": "view",
      "type": "function"
    },
    {
      "inputs": [
        {
          "internalType": "address",
          "name": "from",
          "type": "address"
        },
        {
          "internalType": "address",
          "name": "to",
          "type": "address"
        },
        {
          "internalType": "uint256",
          "name": "tokenId",
          "type": "uint256"
        }
      ],
      "name": "transferFrom",
      "outputs": [],
      "stateMutability": "nonpayable",
      "type": "function"
    }
  ],
  "bytecode": "0x60806040523480156200001157600080fd5b506040518060400160405280600a81526020017f436f6c6c657463696f6e000000000000000000000000000000000000000000008152506040518060400160405280600381526020017f434343000000000000000000000000000000000000000000000000000000000081525081600090816200008f919062000324565b508060019081620000a1919062000324565b5050506200040b565b600081519050919050565b7f4e487b7100000000000000000000000000000000000000000000000000000000600052604160045260246000fd5b7f4e487b7100000000000000000000000000000000000000000000000000000000600052602260045260246000fd5b600060028204905060018216806200012c57607f821691505b602082108103620001425762000141620000e4565b5b50919050565b60008190508160005260206000209050919050565b60006020601f8301049050919050565b600082821b905092915050565b600060088302620001ac7fffffffffffffffffffffffffffffffffffffffffffffffffffffffffffffffff826200016d565b620001b886836200016d565b95508019841693508086168417925050509392505050565b6000819050919050565b6000819050919050565b600062000205620001ff620001f984620001d0565b620001da565b620001d0565b9050919050565b6000819050919050565b6200022183620001e4565b6200023962000230826200020c565b8484546200017a565b825550505050565b600090565b6200025062000241565b6200025d81848462000216565b505050565b5b8181101562000285576200027960008262000246565b60018101905062000263565b5050565b601f821115620002d4576200029e8162000148565b620002a9846200015d565b81016020851015620002b9578190505b620002d1620002c8856200015d565b83018262000262565b50505b505050565b600082821c905092915050565b6000620002f960001984600802620002d9565b1980831691505092915050565b6000620003148383620002e6565b9150826002028217905092915050565b6200032f82620000aa565b67ffffffffffffffff8111156200034b576200034a620000b5565b5b62000357825462000113565b6200036482828562000289565b600060209050601f8311600181146200039c576000841562000387578287015190505b62000393858262000306565b86555062000403565b601f198416620003ac8662000148565b60005b82811015620003d657848901518255600182019150602085019450602081019050620003af565b86831015620003f65784890151620003f2601f891682620002e6565b8355505b6001600288020188555050505b505050505050565b612c0e806200041b6000396000f3fe608060405234801561001057600080fd5b506004361061010b5760003560e01c806370a08231116100a2578063a22cb46511610071578063a22cb465146102de578063b88d4fde146102fa578063c87b56dd14610316578063d204c45e14610346578063e985e9c5146103625761010b565b806370a0823114610230578063787d2f301461026057806395d89b41146102905780639b96eece146102ae5761010b565b806323b872dd116100de57806323b872dd146101aa57806342842e0e146101c65780634a60f620146101e25780636352211e146102005761010b565b806301ffc9a71461011057806306fdde0314610140578063081812fc1461015e578063095ea7b31461018e575b600080fd5b61012a60048036038101906101259190611e54565b610392565b6040516101379190611e9c565b60405180910390f35b6101486103a4565b6040516101559190611f47565b60405180910390f35b61017860048036038101906101739190611f9f565b610436565b604051610185919061200d565b60405180910390f35b6101a860048036038101906101a39190612054565b610452565b005b6101c460048036038101906101bf9190612094565b6104d0565b005b6101e060048036038101906101db9190612094565b6105d2565b005b6101ea6105f2565b6040516101f791906120f6565b60405180910390f35b61021a60048036038101906102159190611f9f565b6105f8565b604051610227919061200d565b60405180910390f35b61024a60048036038101906102459190612111565b61060a565b60405161025791906120f6565b60405180910390f35b61027a60048036038101906102759190612054565b6106c4565b60405161028791906120f6565b60405180910390f35b6102986106f5565b6040516102a59190611f47565b60405180910390f35b6102c860048036038101906102c39190612111565b610787565b6040516102d591906121fc565b60405180910390f35b6102f860048036038101906102f3919061224a565b61081e565b005b610314600480360381019061030f91906123bf565b610834565b005b610330600480360381019061032b9190611f9f565b610851565b60405161033d9190611f47565b60405180910390f35b610360600480360381019061035b91906124e3565b610863565b005b61037c6004803603810190610377919061253f565b6108fd565b6040516103899190611e9c565b60405180910390f35b600061039d82610991565b9050919050565b6060600080546103b3906125ae565b80601f01602080910402602001604051908101604052809291908181526020018280546103df906125ae565b801561042c5780601f106104015761010080835404028352916020019161042c565b820191906000526020600020905b81548152906001019060200180831161040f57829003601f168201915b5050505050905090565b6000610441826109f2565b5061044b82610a7a565b9050919050565b61045c3382610ab7565b600860008373ffffffffffffffffffffffffffffffffffffffff1673ffffffffffffffffffffffffffffffffffffffff1681526020019081526020016000208190806001815401808255809150506001900390600052602060002001600090919091909150556104cc8282610e0e565b5050565b600073ffffffffffffffffffffffffffffffffffffffff168273ffffffffffffffffffffffffffffffffffffffff16036105425760006040517f64a0ae92000000000000000000000000000000000000000000000000000000008152600401610539919061200d565b60405180910390fd5b60006105568383610551610e24565b610e2c565b90508373ffffffffffffffffffffffffffffffffffffffff168173ffffffffffffffffffffffffffffffffffffffff16146105cc578382826040517f64283d7b0000000000000000000000000000000000000000000000000000000081526004016105c3939291906125df565b60405180910390fd5b50505050565b6105ed83838360405180602001604052806000815250610834565b505050565b60075481565b6000610603826109f2565b9050919050565b60008073ffffffffffffffffffffffffffffffffffffffff168273ffffffffffffffffffffffffffffffffffffffff160361067d5760006040517f89c62b64000000000000000000000000000000000000000000000000000000008152600401610674919061200d565b60405180910390fd5b600360008373ffffffffffffffffffffffffffffffffffffffff1673ffffffffffffffffffffffffffffffffffffffff168152602001908152602001600020549050919050565b600860205281600052604060002081815481106106e057600080fd5b90600052602060002001600091509150505481565b606060018054610704906125ae565b80601f0160208091040260200160405190810160405280929190818152602001828054610730906125ae565b801561077d5780601f106107525761010080835404028352916020019161077d565b820191906000526020600020905b81548152906001019060200180831161076057829003601f168201915b5050505050905090565b6060600860008373ffffffffffffffffffffffffffffffffffffffff1673ffffffffffffffffffffffffffffffffffffffff16815260200190815260200160002080548060200260200160405190810160405280929190818152602001828054801561081257602002820191906000526020600020905b8154815260200190600101908083116107fe575b50505050509050919050565b610830610829610e24565b8383611046565b5050565b61083f8484846104d0565b61084b848484846111b5565b50505050565b606061085c8261136c565b9050919050565b60006007600081548092919061087890612645565b919050559050610888838261147f565b610892818361149d565b600860008473ffffffffffffffffffffffffffffffffffffffff1673ffffffffffffffffffffffffffffffffffffffff168152602001908152602001600020819080600181540180825580915050600190039060005260206000200160009091909190915055505050565b6000600560008473ffffffffffffffffffffffffffffffffffffffff1673ffffffffffffffffffffffffffffffffffffffff16815260200190815260200160002060008373ffffffffffffffffffffffffffffffffffffffff1673ffffffffffffffffffffffffffffffffffffffff16815260200190815260200160002060009054906101000a900460ff16905092915050565b6000634906490660e01b7bffffffffffffffffffffffffffffffffffffffffffffffffffffffff1916827bffffffffffffffffffffffffffffffffffffffffffffffffffffffff191614806109eb57506109ea826114f9565b5b9050919050565b6000806109fe836115db565b9050600073ffffffffffffffffffffffffffffffffffffffff168173ffffffffffffffffffffffffffffffffffffffff1603610a7157826040517f7e273289000000000000000000000000000000000000000000000000000000008152600401610a6891906120f6565b60405180910390fd5b80915050919050565b60006004600083815260200190815260200160002060009054906101000a900473ffffffffffffffffffffffffffffffffffffffff169050919050565b6000610b50600860008573ffffffffffffffffffffffffffffffffffffffff1673ffffffffffffffffffffffffffffffffffffffff168152602001908152602001600020805480602002602001604051908101604052809291908181526020018280548015610b4557602002820191906000526020600020905b815481526020019060010190808311610b31575b505050505083611618565b905081600860008573ffffffffffffffffffffffffffffffffffffffff1673ffffffffffffffffffffffffffffffffffffffff1681526020019081526020016000208281548110610ba457610ba361268d565b5b906000526020600020015414610bef576040517f08c379a0000000000000000000000000000000000000000000000000000000008152600401610be690612708565b60405180910390fd5b600860008473ffffffffffffffffffffffffffffffffffffffff1673ffffffffffffffffffffffffffffffffffffffff168152602001908152602001600020805490508110610c73576040517f08c379a0000000000000000000000000000000000000000000000000000000008152600401610c6a90612708565b60405180910390fd5b60008190505b6001600860008673ffffffffffffffffffffffffffffffffffffffff1673ffffffffffffffffffffffffffffffffffffffff16815260200190815260200160002080549050610cc89190612728565b811015610da357600860008573ffffffffffffffffffffffffffffffffffffffff1673ffffffffffffffffffffffffffffffffffffffff168152602001908152602001600020600182610d1b919061275c565b81548110610d2c57610d2b61268d565b5b9060005260206000200154600860008673ffffffffffffffffffffffffffffffffffffffff1673ffffffffffffffffffffffffffffffffffffffff1681526020019081526020016000208281548110610d8857610d8761268d565b5b90600052602060002001819055508080600101915050610c79565b50600860008473ffffffffffffffffffffffffffffffffffffffff1673ffffffffffffffffffffffffffffffffffffffff168152602001908152602001600020805480610df357610df2612790565b5b60019003818190600052602060002001600090559055505050565b610e208282610e1b610e24565b61166c565b5050565b600033905090565b600080610e38846115db565b9050600073ffffffffffffffffffffffffffffffffffffffff168373ffffffffffffffffffffffffffffffffffffffff1614610e7a57610e7981848661167e565b5b600073ffffffffffffffffffffffffffffffffffffffff168173ffffffffffffffffffffffffffffffffffffffff1614610f0b57610ebc600085600080611742565b6001600360008373ffffffffffffffffffffffffffffffffffffffff1673ffffffffffffffffffffffffffffffffffffffff168152602001908152602001600020600082825403925050819055505b600073ffffffffffffffffffffffffffffffffffffffff168573ffffffffffffffffffffffffffffffffffffffff1614610f8e576001600360008773ffffffffffffffffffffffffffffffffffffffff1673ffffffffffffffffffffffffffffffffffffffff168152602001908152602001600020600082825401925050819055505b846002600086815260200190815260200160002060006101000a81548173ffffffffffffffffffffffffffffffffffffffff021916908373ffffffffffffffffffffffffffffffffffffffff160217905550838573ffffffffffffffffffffffffffffffffffffffff168273ffffffffffffffffffffffffffffffffffffffff167fddf252ad1be2c89b69c2b068fc378daa952ba7f163c4a11628f55a4df523b3ef60405160405180910390a4809150509392505050565b600073ffffffffffffffffffffffffffffffffffffffff168273ffffffffffffffffffffffffffffffffffffffff16036110b757816040517f5b08ba180000000000000000000000000000000000000000000000000000000081526004016110ae919061200d565b60405180910390fd5b80600560008573ffffffffffffffffffffffffffffffffffffffff1673ffffffffffffffffffffffffffffffffffffffff16815260200190815260200160002060008473ffffffffffffffffffffffffffffffffffffffff1673ffffffffffffffffffffffffffffffffffffffff16815260200190815260200160002060006101000a81548160ff0219169083151502179055508173ffffffffffffffffffffffffffffffffffffffff168373ffffffffffffffffffffffffffffffffffffffff167f17307eab39ab6107e8899845ad3d59bd9653f200f220920489ca2b5937696c31836040516111a89190611e9c565b60405180910390a3505050565b60008373ffffffffffffffffffffffffffffffffffffffff163b1115611366578273ffffffffffffffffffffffffffffffffffffffff1663150b7a026111f9610e24565b8685856040518563ffffffff1660e01b815260040161121b9493929190612814565b6020604051808303816000875af192505050801561125757506040513d601f19601f820116820180604052508101906112549190612875565b60015b6112db573d8060008114611287576040519150601f19603f3d011682016040523d82523d6000602084013e61128c565b606091505b5060008151036112d357836040517f64a0ae920000000000000000000000000000000000000000000000000000000081526004016112ca919061200d565b60405180910390fd5b805181602001fd5b63150b7a0260e01b7bffffffffffffffffffffffffffffffffffffffffffffffffffffffff1916817bffffffffffffffffffffffffffffffffffffffffffffffffffffffff19161461136457836040517f64a0ae9200000000000000000000000000000000000000000000000000000000815260040161135b919061200d565b60405180910390fd5b505b50505050565b6060611377826109f2565b506000600660008481526020019081526020016000208054611398906125ae565b80601f01602080910402602001604051908101604052809291908181526020018280546113c4906125ae565b80156114115780601f106113e657610100808354040283529160200191611411565b820191906000526020600020905b8154815290600101906020018083116113f457829003601f168201915b505050505090506000611422611907565b9050600081510361143757819250505061147a565b60008251111561146c5780826040516020016114549291906128de565b6040516020818303038152906040529250505061147a565b6114758461191e565b925050505b919050565b611499828260405180602001604052806000815250611987565b5050565b806006600084815260200190815260200160002090816114bd9190612aae565b507ff8e1a15aba9398e019f0b49df1a4fde98ee17ae345cb5f6b5e2c27f5033e8ce7826040516114ed91906120f6565b60405180910390a15050565b60007f80ac58cd000000000000000000000000000000000000000000000000000000007bffffffffffffffffffffffffffffffffffffffffffffffffffffffff1916827bffffffffffffffffffffffffffffffffffffffffffffffffffffffff191614806115c457507f5b5e139f000000000000000000000000000000000000000000000000000000007bffffffffffffffffffffffffffffffffffffffffffffffffffffffff1916827bffffffffffffffffffffffffffffffffffffffffffffffffffffffff1916145b806115d457506115d3826119a3565b5b9050919050565b60006002600083815260200190815260200160002060009054906101000a900473ffffffffffffffffffffffffffffffffffffffff169050919050565b600080600090505b8351811015611660578284828151811061163d5761163c61268d565b5b6020026020010151036116535780915050611666565b8080600101915050611620565b50825190505b92915050565b6116798383836001611742565b505050565b611689838383611a0d565b61173d57600073ffffffffffffffffffffffffffffffffffffffff168373ffffffffffffffffffffffffffffffffffffffff16036116fe57806040517f7e2732890000000000000000000000000000000000000000000000000000000081526004016116f591906120f6565b60405180910390fd5b81816040517f177e802f000000000000000000000000000000000000000000000000000000008152600401611734929190612b80565b60405180910390fd5b505050565b808061177b5750600073ffffffffffffffffffffffffffffffffffffffff168273ffffffffffffffffffffffffffffffffffffffff1614155b156118af57600061178b846109f2565b9050600073ffffffffffffffffffffffffffffffffffffffff168373ffffffffffffffffffffffffffffffffffffffff16141580156117f657508273ffffffffffffffffffffffffffffffffffffffff168173ffffffffffffffffffffffffffffffffffffffff1614155b8015611809575061180781846108fd565b155b1561184b57826040517fa9fbf51f000000000000000000000000000000000000000000000000000000008152600401611842919061200d565b60405180910390fd5b81156118ad57838573ffffffffffffffffffffffffffffffffffffffff168273ffffffffffffffffffffffffffffffffffffffff167f8c5be1e5ebec7d5bd14f71427d1e84f3dd0314c0f7b2291e5b200ac8c7c3b92560405160405180910390a45b505b836004600085815260200190815260200160002060006101000a81548173ffffffffffffffffffffffffffffffffffffffff021916908373ffffffffffffffffffffffffffffffffffffffff16021790555050505050565b606060405180602001604052806000815250905090565b6060611929826109f2565b506000611934611907565b90506000815111611954576040518060200160405280600081525061197f565b8061195e84611ace565b60405160200161196f9291906128de565b6040516020818303038152906040525b915050919050565b6119918383611b9c565b61199e60008484846111b5565b505050565b60007f01ffc9a7000000000000000000000000000000000000000000000000000000007bffffffffffffffffffffffffffffffffffffffffffffffffffffffff1916827bffffffffffffffffffffffffffffffffffffffffffffffffffffffff1916149050919050565b60008073ffffffffffffffffffffffffffffffffffffffff168373ffffffffffffffffffffffffffffffffffffffff1614158015611ac557508273ffffffffffffffffffffffffffffffffffffffff168473ffffffffffffffffffffffffffffffffffffffff161480611a865750611a8584846108fd565b5b80611ac457508273ffffffffffffffffffffffffffffffffffffffff16611aac83610a7a565b73ffffffffffffffffffffffffffffffffffffffff16145b5b90509392505050565b606060006001611add84611c95565b01905060008167ffffffffffffffff811115611afc57611afb612294565b5b6040519080825280601f01601f191660200182016040528015611b2e5781602001600182028036833780820191505090505b509050600082602001820190505b600115611b91578080600190039150507f3031323334353637383961626364656600000000000000000000000000000000600a86061a8153600a8581611b8557611b84612ba9565b5b04945060008503611b3c575b819350505050919050565b600073ffffffffffffffffffffffffffffffffffffffff168273ffffffffffffffffffffffffffffffffffffffff1603611c0e5760006040517f64a0ae92000000000000000000000000000000000000000000000000000000008152600401611c05919061200d565b60405180910390fd5b6000611c1c83836000610e2c565b9050600073ffffffffffffffffffffffffffffffffffffffff168173ffffffffffffffffffffffffffffffffffffffff1614611c905760006040517f73c6ac6e000000000000000000000000000000000000000000000000000000008152600401611c87919061200d565b60405180910390fd5b505050565b600080600090507a184f03e93ff9f4daa797ed6e38ed64bf6a1f0100000000000000008310611cf3577a184f03e93ff9f4daa797ed6e38ed64bf6a1f0100000000000000008381611ce957611ce8612ba9565b5b0492506040810190505b6d04ee2d6d415b85acef81000000008310611d30576d04ee2d6d415b85acef81000000008381611d2657611d25612ba9565b5b0492506020810190505b662386f26fc100008310611d5f57662386f26fc100008381611d5557611d54612ba9565b5b0492506010810190505b6305f5e1008310611d88576305f5e1008381611d7e57611d7d612ba9565b5b0492506008810190505b6127108310611dad576127108381611da357611da2612ba9565b5b0492506004810190505b60648310611dd05760648381611dc657611dc5612ba9565b5b0492506002810190505b600a8310611ddf576001810190505b80915050919050565b6000604051905090565b600080fd5b600080fd5b60007fffffffff0000000000000000000000000000000000000000000000000000000082169050919050565b611e3181611dfc565b8114611e3c57600080fd5b50565b600081359050611e4e81611e28565b92915050565b600060208284031215611e6a57611e69611df2565b5b6000611e7884828501611e3f565b91505092915050565b60008115159050919050565b611e9681611e81565b82525050565b6000602082019050611eb16000830184611e8d565b92915050565b600081519050919050565b600082825260208201905092915050565b60005b83811015611ef1578082015181840152602081019050611ed6565b60008484015250505050565b6000601f19601f8301169050919050565b6000611f1982611eb7565b611f238185611ec2565b9350611f33818560208601611ed3565b611f3c81611efd565b840191505092915050565b60006020820190508181036000830152611f618184611f0e565b905092915050565b6000819050919050565b611f7c81611f69565b8114611f8757600080fd5b50565b600081359050611f9981611f73565b92915050565b600060208284031215611fb557611fb4611df2565b5b6000611fc384828501611f8a565b91505092915050565b600073ffffffffffffffffffffffffffffffffffffffff82169050919050565b6000611ff782611fcc565b9050919050565b61200781611fec565b82525050565b60006020820190506120226000830184611ffe565b92915050565b61203181611fec565b811461203c57600080fd5b50565b60008135905061204e81612028565b92915050565b6000806040838503121561206b5761206a611df2565b5b60006120798582860161203f565b925050602061208a85828601611f8a565b9150509250929050565b6000806000606084860312156120ad576120ac611df2565b5b60006120bb8682870161203f565b93505060206120cc8682870161203f565b92505060406120dd86828701611f8a565b9150509250925092565b6120f081611f69565b82525050565b600060208201905061210b60008301846120e7565b92915050565b60006020828403121561212757612126611df2565b5b60006121358482850161203f565b91505092915050565b600081519050919050565b600082825260208201905092915050565b6000819050602082019050919050565b61217381611f69565b82525050565b6000612185838361216a565b60208301905092915050565b6000602082019050919050565b60006121a98261213e565b6121b38185612149565b93506121be8361215a565b8060005b838110156121ef5781516121d68882612179565b97506121e183612191565b9250506001810190506121c2565b5085935050505092915050565b60006020820190508181036000830152612216818461219e565b905092915050565b61222781611e81565b811461223257600080fd5b50565b6000813590506122448161221e565b92915050565b6000806040838503121561226157612260611df2565b5b600061226f8582860161203f565b925050602061228085828601612235565b9150509250929050565b600080fd5b600080fd5b7f4e487b7100000000000000000000000000000000000000000000000000000000600052604160045260246000fd5b6122cc82611efd565b810181811067ffffffffffffffff821117156122eb576122ea612294565b5b80604052505050565b60006122fe611de8565b905061230a82826122c3565b919050565b600067ffffffffffffffff82111561232a57612329612294565b5b61233382611efd565b9050602081019050919050565b82818337600083830152505050565b600061236261235d8461230f565b6122f4565b90508281526020810184848401111561237e5761237d61228f565b5b612389848285612340565b509392505050565b600082601f8301126123a6576123a561228a565b5b81356123b684826020860161234f565b91505092915050565b600080600080608085870312156123d9576123d8611df2565b5b60006123e78782880161203f565b94505060206123f88782880161203f565b935050604061240987828801611f8a565b925050606085013567ffffffffffffffff81111561242a57612429611df7565b5b61243687828801612391565b91505092959194509250565b600067ffffffffffffffff82111561245d5761245c612294565b5b61246682611efd565b9050602081019050919050565b600061248661248184612442565b6122f4565b9050828152602081018484840111156124a2576124a161228f565b5b6124ad848285612340565b509392505050565b600082601f8301126124ca576124c961228a565b5b81356124da848260208601612473565b91505092915050565b600080604083850312156124fa576124f9611df2565b5b60006125088582860161203f565b925050602083013567ffffffffffffffff81111561252957612528611df7565b5b612535858286016124b5565b9150509250929050565b6000806040838503121561255657612555611df2565b5b60006125648582860161203f565b92505060206125758582860161203f565b9150509250929050565b7f4e487b7100000000000000000000000000000000000000000000000000000000600052602260045260246000fd5b600060028204905060018216806125c657607f821691505b6020821081036125d9576125d861257f565b5b50919050565b60006060820190506125f46000830186611ffe565b61260160208301856120e7565b61260e6040830184611ffe565b949350505050565b7f4e487b7100000000000000000000000000000000000000000000000000000000600052601160045260246000fd5b600061265082611f69565b91507fffffffffffffffffffffffffffffffffffffffffffffffffffffffffffffffff820361268257612681612616565b5b600182019050919050565b7f4e487b7100000000000000000000000000000000000000000000000000000000600052603260045260246000fd5b7f4552433732313a20696e76616c696420746f6b656e2049440000000000000000600082015250565b60006126f2601883611ec2565b91506126fd826126bc565b602082019050919050565b60006020820190508181036000830152612721816126e5565b9050919050565b600061273382611f69565b915061273e83611f69565b925082820390508181111561275657612755612616565b5b92915050565b600061276782611f69565b915061277283611f69565b925082820190508082111561278a57612789612616565b5b92915050565b7f4e487b7100000000000000000000000000000000000000000000000000000000600052603160045260246000fd5b600081519050919050565b600082825260208201905092915050565b60006127e6826127bf565b6127f081856127ca565b9350612800818560208601611ed3565b61280981611efd565b840191505092915050565b60006080820190506128296000830187611ffe565b6128366020830186611ffe565b61284360408301856120e7565b818103606083015261285581846127db565b905095945050505050565b60008151905061286f81611e28565b92915050565b60006020828403121561288b5761288a611df2565b5b600061289984828501612860565b91505092915050565b600081905092915050565b60006128b882611eb7565b6128c281856128a2565b93506128d2818560208601611ed3565b80840191505092915050565b60006128ea82856128ad565b91506128f682846128ad565b91508190509392505050565b60008190508160005260206000209050919050565b60006020601f8301049050919050565b600082821b905092915050565b6000600883026129647fffffffffffffffffffffffffffffffffffffffffffffffffffffffffffffffff82612927565b61296e8683612927565b95508019841693508086168417925050509392505050565b6000819050919050565b60006129ab6129a66129a184611f69565b612986565b611f69565b9050919050565b6000819050919050565b6129c583612990565b6129d96129d1826129b2565b848454612934565b825550505050565b600090565b6129ee6129e1565b6129f98184846129bc565b505050565b5b81811015612a1d57612a126000826129e6565b6001810190506129ff565b5050565b601f821115612a6257612a3381612902565b612a3c84612917565b81016020851015612a4b578190505b612a5f612a5785612917565b8301826129fe565b50505b505050565b600082821c905092915050565b6000612a8560001984600802612a67565b1980831691505092915050565b6000612a9e8383612a74565b9150826002028217905092915050565b612ab782611eb7565b67ffffffffffffffff811115612ad057612acf612294565b5b612ada82546125ae565b612ae5828285612a21565b600060209050601f831160018114612b185760008415612b06578287015190505b612b108582612a92565b865550612b78565b601f198416612b2686612902565b60005b82811015612b4e57848901518255600182019150602085019450602081019050612b29565b86831015612b6b5784890151612b67601f891682612a74565b8355505b6001600288020188555050505b505050505050565b6000604082019050612b956000830185611ffe565b612ba260208301846120e7565b9392505050565b7f4e487b7100000000000000000000000000000000000000000000000000000000600052601260045260246000fdfea2646970667358221220b651ce1ad48599e47078543fe4cbac11bb2f60580318e3c4c427227f079877d364736f6c63430008180033",
  "linkReferences": {},
  "deployedLinkReferences": {}
}