{
  "_format": "hh-sol-artifact-1",
  "contractName": "Collections",
  "sourceName": "contracts/Collections.sol",
  "abi": [
    {
      "inputs": [
        {
          "internalType": "address",
          "name": "initialOwner",
          "type": "address"
        }
      ],
      "stateMutability": "nonpayable",
      "type": "constructor"
    },
    {
      "inputs": [
        {
          "internalType": "address",
          "name": "sender",
          "type": "address"
        },
        {
          "internalType": "uint256",
          "name": "tokenId",
          "type": "uint256"
        },
        {
          "internalType": "address",
          "name": "owner",
          "type": "address"
        }
      ],
      "name": "ERC721IncorrectOwner",
      "type": "error"
    },
    {
      "inputs": [
        {
          "internalType": "address",
          "name": "operator",
          "type": "address"
        },
        {
          "internalType": "uint256",
          "name": "tokenId",
          "type": "uint256"
        }
      ],
      "name": "ERC721InsufficientApproval",
      "type": "error"
    },
    {
      "inputs": [
        {
          "internalType": "address",
          "name": "approver",
          "type": "address"
        }
      ],
      "name": "ERC721InvalidApprover",
      "type": "error"
    },
    {
      "inputs": [
        {
          "internalType": "address",
          "name": "operator",
          "type": "address"
        }
      ],
      "name": "ERC721InvalidOperator",
      "type": "error"
    },
    {
      "inputs": [
        {
          "internalType": "address",
          "name": "owner",
          "type": "address"
        }
      ],
      "name": "ERC721InvalidOwner",
      "type": "error"
    },
    {
      "inputs": [
        {
          "internalType": "address",
          "name": "receiver",
          "type": "address"
        }
      ],
      "name": "ERC721InvalidReceiver",
      "type": "error"
    },
    {
      "inputs": [
        {
          "internalType": "address",
          "name": "sender",
          "type": "address"
        }
      ],
      "name": "ERC721InvalidSender",
      "type": "error"
    },
    {
      "inputs": [
        {
          "internalType": "uint256",
          "name": "tokenId",
          "type": "uint256"
        }
      ],
      "name": "ERC721NonexistentToken",
      "type": "error"
    },
    {
      "inputs": [
        {
          "internalType": "address",
          "name": "owner",
          "type": "address"
        }
      ],
      "name": "OwnableInvalidOwner",
      "type": "error"
    },
    {
      "inputs": [
        {
          "internalType": "address",
          "name": "account",
          "type": "address"
        }
      ],
      "name": "OwnableUnauthorizedAccount",
      "type": "error"
    },
    {
      "anonymous": false,
      "inputs": [
        {
          "indexed": true,
          "internalType": "address",
          "name": "owner",
          "type": "address"
        },
        {
          "indexed": true,
          "internalType": "address",
          "name": "approved",
          "type": "address"
        },
        {
          "indexed": true,
          "internalType": "uint256",
          "name": "tokenId",
          "type": "uint256"
        }
      ],
      "name": "Approval",
      "type": "event"
    },
    {
      "anonymous": false,
      "inputs": [
        {
          "indexed": true,
          "internalType": "address",
          "name": "owner",
          "type": "address"
        },
        {
          "indexed": true,
          "internalType": "address",
          "name": "operator",
          "type": "address"
        },
        {
          "indexed": false,
          "internalType": "bool",
          "name": "approved",
          "type": "bool"
        }
      ],
      "name": "ApprovalForAll",
      "type": "event"
    },
    {
      "anonymous": false,
      "inputs": [
        {
          "indexed": false,
          "internalType": "uint256",
          "name": "_fromTokenId",
          "type": "uint256"
        },
        {
          "indexed": false,
          "internalType": "uint256",
          "name": "_toTokenId",
          "type": "uint256"
        }
      ],
      "name": "BatchMetadataUpdate",
      "type": "event"
    },
    {
      "anonymous": false,
      "inputs": [
        {
          "indexed": false,
          "internalType": "uint256",
          "name": "_tokenId",
          "type": "uint256"
        }
      ],
      "name": "MetadataUpdate",
      "type": "event"
    },
    {
      "anonymous": false,
      "inputs": [
        {
          "indexed": true,
          "internalType": "address",
          "name": "previousOwner",
          "type": "address"
        },
        {
          "indexed": true,
          "internalType": "address",
          "name": "newOwner",
          "type": "address"
        }
      ],
      "name": "OwnershipTransferred",
      "type": "event"
    },
    {
      "anonymous": false,
      "inputs": [
        {
          "indexed": true,
          "internalType": "address",
          "name": "from",
          "type": "address"
        },
        {
          "indexed": true,
          "internalType": "address",
          "name": "to",
          "type": "address"
        },
        {
          "indexed": true,
          "internalType": "uint256",
          "name": "tokenId",
          "type": "uint256"
        }
      ],
      "name": "Transfer",
      "type": "event"
    },
    {
      "inputs": [
        {
          "internalType": "address",
          "name": "",
          "type": "address"
        },
        {
          "internalType": "uint256",
          "name": "",
          "type": "uint256"
        }
      ],
      "name": "_balanceOf",
      "outputs": [
        {
          "internalType": "uint256",
          "name": "",
          "type": "uint256"
        }
      ],
      "stateMutability": "view",
      "type": "function"
    },
    {
      "inputs": [],
      "name": "_nextTokenId",
      "outputs": [
        {
          "internalType": "uint256",
          "name": "",
          "type": "uint256"
        }
      ],
      "stateMutability": "view",
      "type": "function"
    },
    {
      "inputs": [
        {
          "internalType": "address",
          "name": "to",
          "type": "address"
        },
        {
          "internalType": "uint256",
          "name": "tokenId",
          "type": "uint256"
        }
      ],
      "name": "approve",
      "outputs": [],
      "stateMutability": "nonpayable",
      "type": "function"
    },
    {
      "inputs": [
        {
          "internalType": "address",
          "name": "owner",
          "type": "address"
        }
      ],
      "name": "balanceOf",
      "outputs": [
        {
          "internalType": "uint256",
          "name": "",
          "type": "uint256"
        }
      ],
      "stateMutability": "view",
      "type": "function"
    },
    {
      "inputs": [
        {
          "internalType": "uint256",
          "name": "tokenId",
          "type": "uint256"
        }
      ],
      "name": "getApproved",
      "outputs": [
        {
          "internalType": "address",
          "name": "",
          "type": "address"
        }
      ],
      "stateMutability": "view",
      "type": "function"
    },
    {
      "inputs": [
        {
          "internalType": "address",
          "name": "owner",
          "type": "address"
        }
      ],
      "name": "getBalanceOf",
      "outputs": [
        {
          "internalType": "uint256[]",
          "name": "",
          "type": "uint256[]"
        }
      ],
      "stateMutability": "view",
      "type": "function"
    },
    {
      "inputs": [
        {
          "internalType": "address",
          "name": "owner",
          "type": "address"
        },
        {
          "internalType": "address",
          "name": "operator",
          "type": "address"
        }
      ],
      "name": "isApprovedForAll",
      "outputs": [
        {
          "internalType": "bool",
          "name": "",
          "type": "bool"
        }
      ],
      "stateMutability": "view",
      "type": "function"
    },
    {
      "inputs": [],
      "name": "name",
      "outputs": [
        {
          "internalType": "string",
          "name": "",
          "type": "string"
        }
      ],
      "stateMutability": "view",
      "type": "function"
    },
    {
      "inputs": [],
      "name": "owner",
      "outputs": [
        {
          "internalType": "address",
          "name": "",
          "type": "address"
        }
      ],
      "stateMutability": "view",
      "type": "function"
    },
    {
      "inputs": [
        {
          "internalType": "uint256",
          "name": "tokenId",
          "type": "uint256"
        }
      ],
      "name": "ownerOf",
      "outputs": [
        {
          "internalType": "address",
          "name": "",
          "type": "address"
        }
      ],
      "stateMutability": "view",
      "type": "function"
    },
    {
      "inputs": [],
      "name": "renounceOwnership",
      "outputs": [],
      "stateMutability": "nonpayable",
      "type": "function"
    },
    {
      "inputs": [
        {
          "internalType": "address",
          "name": "to",
          "type": "address"
        },
        {
          "internalType": "string",
          "name": "uri",
          "type": "string"
        }
      ],
      "name": "safeMint",
      "outputs": [],
      "stateMutability": "nonpayable",
      "type": "function"
    },
    {
      "inputs": [
        {
          "internalType": "address",
          "name": "from",
          "type": "address"
        },
        {
          "internalType": "address",
          "name": "to",
          "type": "address"
        },
        {
          "internalType": "uint256",
          "name": "tokenId",
          "type": "uint256"
        }
      ],
      "name": "safeTransferFrom",
      "outputs": [],
      "stateMutability": "nonpayable",
      "type": "function"
    },
    {
      "inputs": [
        {
          "internalType": "address",
          "name": "from",
          "type": "address"
        },
        {
          "internalType": "address",
          "name": "to",
          "type": "address"
        },
        {
          "internalType": "uint256",
          "name": "tokenId",
          "type": "uint256"
        },
        {
          "internalType": "bytes",
          "name": "data",
          "type": "bytes"
        }
      ],
      "name": "safeTransferFrom",
      "outputs": [],
      "stateMutability": "nonpayable",
      "type": "function"
    },
    {
      "inputs": [
        {
          "internalType": "address",
          "name": "operator",
          "type": "address"
        },
        {
          "internalType": "bool",
          "name": "approved",
          "type": "bool"
        }
      ],
      "name": "setApprovalForAll",
      "outputs": [],
      "stateMutability": "nonpayable",
      "type": "function"
    },
    {
      "inputs": [
        {
          "internalType": "bytes4",
          "name": "interfaceId",
          "type": "bytes4"
        }
      ],
      "name": "supportsInterface",
      "outputs": [
        {
          "internalType": "bool",
          "name": "",
          "type": "bool"
        }
      ],
      "stateMutability": "view",
      "type": "function"
    },
    {
      "inputs": [],
      "name": "symbol",
      "outputs": [
        {
          "internalType": "string",
          "name": "",
          "type": "string"
        }
      ],
      "stateMutability": "view",
      "type": "function"
    },
    {
      "inputs": [
        {
          "internalType": "uint256",
          "name": "tokenId",
          "type": "uint256"
        }
      ],
      "name": "tokenURI",
      "outputs": [
        {
          "internalType": "string",
          "name": "",
          "type": "string"
        }
      ],
      "stateMutability": "view",
      "type": "function"
    },
    {
      "inputs": [
        {
          "internalType": "address",
          "name": "from",
          "type": "address"
        },
        {
          "internalType": "address",
          "name": "to",
          "type": "address"
        },
        {
          "internalType": "uint256",
          "name": "tokenId",
          "type": "uint256"
        }
      ],
      "name": "transferFrom",
      "outputs": [],
      "stateMutability": "nonpayable",
      "type": "function"
    },
    {
      "inputs": [
        {
          "internalType": "address",
          "name": "newOwner",
          "type": "address"
        }
      ],
      "name": "transferOwnership",
      "outputs": [],
      "stateMutability": "nonpayable",
      "type": "function"
    }
  ],
  "bytecode": "0x60806040523480156200001157600080fd5b50604051620034e5380380620034e5833981810160405281019062000037919062000288565b806040518060400160405280600a81526020017f436f6c6c657463696f6e000000000000000000000000000000000000000000008152506040518060400160405280600381526020017f43434300000000000000000000000000000000000000000000000000000000008152508160009081620000b5919062000534565b508060019081620000c7919062000534565b505050600073ffffffffffffffffffffffffffffffffffffffff168173ffffffffffffffffffffffffffffffffffffffff16036200013f5760006040517f1e4fbdf70000000000000000000000000000000000000000000000000000000081526004016200013691906200062c565b60405180910390fd5b62000150816200015860201b60201c565b505062000649565b6000600760009054906101000a900473ffffffffffffffffffffffffffffffffffffffff16905081600760006101000a81548173ffffffffffffffffffffffffffffffffffffffff021916908373ffffffffffffffffffffffffffffffffffffffff1602179055508173ffffffffffffffffffffffffffffffffffffffff168173ffffffffffffffffffffffffffffffffffffffff167f8be0079c531659141344cd1fd0a4f28419497f9722a3daafe3b4186f6b6457e060405160405180910390a35050565b600080fd5b600073ffffffffffffffffffffffffffffffffffffffff82169050919050565b6000620002508262000223565b9050919050565b620002628162000243565b81146200026e57600080fd5b50565b600081519050620002828162000257565b92915050565b600060208284031215620002a157620002a06200021e565b5b6000620002b18482850162000271565b91505092915050565b600081519050919050565b7f4e487b7100000000000000000000000000000000000000000000000000000000600052604160045260246000fd5b7f4e487b7100000000000000000000000000000000000000000000000000000000600052602260045260246000fd5b600060028204905060018216806200033c57607f821691505b602082108103620003525762000351620002f4565b5b50919050565b60008190508160005260206000209050919050565b60006020601f8301049050919050565b600082821b905092915050565b600060088302620003bc7fffffffffffffffffffffffffffffffffffffffffffffffffffffffffffffffff826200037d565b620003c886836200037d565b95508019841693508086168417925050509392505050565b6000819050919050565b6000819050919050565b6000620004156200040f6200040984620003e0565b620003ea565b620003e0565b9050919050565b6000819050919050565b6200043183620003f4565b6200044962000440826200041c565b8484546200038a565b825550505050565b600090565b6200046062000451565b6200046d81848462000426565b505050565b5b8181101562000495576200048960008262000456565b60018101905062000473565b5050565b601f821115620004e457620004ae8162000358565b620004b9846200036d565b81016020851015620004c9578190505b620004e1620004d8856200036d565b83018262000472565b50505b505050565b600082821c905092915050565b60006200050960001984600802620004e9565b1980831691505092915050565b6000620005248383620004f6565b9150826002028217905092915050565b6200053f82620002ba565b67ffffffffffffffff8111156200055b576200055a620002c5565b5b62000567825462000323565b6200057482828562000499565b600060209050601f831160018114620005ac576000841562000597578287015190505b620005a3858262000516565b86555062000613565b601f198416620005bc8662000358565b60005b82811015620005e657848901518255600182019150602085019450602081019050620005bf565b8683101562000606578489015162000602601f891682620004f6565b8355505b6001600288020188555050505b505050505050565b620006268162000243565b82525050565b60006020820190506200064360008301846200061b565b92915050565b612e8c80620006596000396000f3fe608060405234801561001057600080fd5b506004361061012c5760003560e01c8063787d2f30116100ad578063b88d4fde11610071578063b88d4fde14610343578063c87b56dd1461035f578063d204c45e1461038f578063e985e9c5146103ab578063f2fde38b146103db5761012c565b8063787d2f301461028b5780638da5cb5b146102bb57806395d89b41146102d95780639b96eece146102f7578063a22cb465146103275761012c565b806342842e0e116100f457806342842e0e146101e75780634a60f620146102035780636352211e1461022157806370a0823114610251578063715018a6146102815761012c565b806301ffc9a71461013157806306fdde0314610161578063081812fc1461017f578063095ea7b3146101af57806323b872dd146101cb575b600080fd5b61014b600480360381019061014691906120d2565b6103f7565b604051610158919061211a565b60405180910390f35b610169610409565b60405161017691906121c5565b60405180910390f35b6101996004803603810190610194919061221d565b61049b565b6040516101a6919061228b565b60405180910390f35b6101c960048036038101906101c491906122d2565b6104b7565b005b6101e560048036038101906101e09190612312565b610535565b005b61020160048036038101906101fc9190612312565b610637565b005b61020b610657565b6040516102189190612374565b60405180910390f35b61023b6004803603810190610236919061221d565b61065d565b604051610248919061228b565b60405180910390f35b61026b6004803603810190610266919061238f565b61066f565b6040516102789190612374565b60405180910390f35b610289610729565b005b6102a560048036038101906102a091906122d2565b61073d565b6040516102b29190612374565b60405180910390f35b6102c361076e565b6040516102d0919061228b565b60405180910390f35b6102e1610798565b6040516102ee91906121c5565b60405180910390f35b610311600480360381019061030c919061238f565b61082a565b60405161031e919061247a565b60405180910390f35b610341600480360381019061033c91906124c8565b6108c1565b005b61035d6004803603810190610358919061263d565b6108d7565b005b6103796004803603810190610374919061221d565b6108f4565b60405161038691906121c5565b60405180910390f35b6103a960048036038101906103a49190612761565b610906565b005b6103c560048036038101906103c091906127bd565b6109a8565b6040516103d2919061211a565b60405180910390f35b6103f560048036038101906103f0919061238f565b610a3c565b005b600061040282610ac2565b9050919050565b6060600080546104189061282c565b80601f01602080910402602001604051908101604052809291908181526020018280546104449061282c565b80156104915780601f1061046657610100808354040283529160200191610491565b820191906000526020600020905b81548152906001019060200180831161047457829003601f168201915b5050505050905090565b60006104a682610b23565b506104b082610bab565b9050919050565b6104c13382610be8565b600960008373ffffffffffffffffffffffffffffffffffffffff1673ffffffffffffffffffffffffffffffffffffffff1681526020019081526020016000208190806001815401808255809150506001900390600052602060002001600090919091909150556105318282610f3f565b5050565b600073ffffffffffffffffffffffffffffffffffffffff168273ffffffffffffffffffffffffffffffffffffffff16036105a75760006040517f64a0ae9200000000000000000000000000000000000000000000000000000000815260040161059e919061228b565b60405180910390fd5b60006105bb83836105b6610f55565b610f5d565b90508373ffffffffffffffffffffffffffffffffffffffff168173ffffffffffffffffffffffffffffffffffffffff1614610631578382826040517f64283d7b0000000000000000000000000000000000000000000000000000000081526004016106289392919061285d565b60405180910390fd5b50505050565b610652838383604051806020016040528060008152506108d7565b505050565b60085481565b600061066882610b23565b9050919050565b60008073ffffffffffffffffffffffffffffffffffffffff168273ffffffffffffffffffffffffffffffffffffffff16036106e25760006040517f89c62b640000000000000000000000000000000000000000000000000000000081526004016106d9919061228b565b60405180910390fd5b600360008373ffffffffffffffffffffffffffffffffffffffff1673ffffffffffffffffffffffffffffffffffffffff168152602001908152602001600020549050919050565b610731611177565b61073b60006111fe565b565b6009602052816000526040600020818154811061075957600080fd5b90600052602060002001600091509150505481565b6000600760009054906101000a900473ffffffffffffffffffffffffffffffffffffffff16905090565b6060600180546107a79061282c565b80601f01602080910402602001604051908101604052809291908181526020018280546107d39061282c565b80156108205780601f106107f557610100808354040283529160200191610820565b820191906000526020600020905b81548152906001019060200180831161080357829003601f168201915b5050505050905090565b6060600960008373ffffffffffffffffffffffffffffffffffffffff1673ffffffffffffffffffffffffffffffffffffffff1681526020019081526020016000208054806020026020016040519081016040528092919081815260200182805480156108b557602002820191906000526020600020905b8154815260200190600101908083116108a1575b50505050509050919050565b6108d36108cc610f55565b83836112c4565b5050565b6108e2848484610535565b6108ee84848484611433565b50505050565b60606108ff826115ea565b9050919050565b61090e611177565b600060086000815480929190610923906128c3565b91905055905061093383826116fd565b61093d818361171b565b600960008473ffffffffffffffffffffffffffffffffffffffff1673ffffffffffffffffffffffffffffffffffffffff168152602001908152602001600020819080600181540180825580915050600190039060005260206000200160009091909190915055505050565b6000600560008473ffffffffffffffffffffffffffffffffffffffff1673ffffffffffffffffffffffffffffffffffffffff16815260200190815260200160002060008373ffffffffffffffffffffffffffffffffffffffff1673ffffffffffffffffffffffffffffffffffffffff16815260200190815260200160002060009054906101000a900460ff16905092915050565b610a44611177565b600073ffffffffffffffffffffffffffffffffffffffff168173ffffffffffffffffffffffffffffffffffffffff1603610ab65760006040517f1e4fbdf7000000000000000000000000000000000000000000000000000000008152600401610aad919061228b565b60405180910390fd5b610abf816111fe565b50565b6000634906490660e01b7bffffffffffffffffffffffffffffffffffffffffffffffffffffffff1916827bffffffffffffffffffffffffffffffffffffffffffffffffffffffff19161480610b1c5750610b1b82611777565b5b9050919050565b600080610b2f83611859565b9050600073ffffffffffffffffffffffffffffffffffffffff168173ffffffffffffffffffffffffffffffffffffffff1603610ba257826040517f7e273289000000000000000000000000000000000000000000000000000000008152600401610b999190612374565b60405180910390fd5b80915050919050565b60006004600083815260200190815260200160002060009054906101000a900473ffffffffffffffffffffffffffffffffffffffff169050919050565b6000610c81600960008573ffffffffffffffffffffffffffffffffffffffff1673ffffffffffffffffffffffffffffffffffffffff168152602001908152602001600020805480602002602001604051908101604052809291908181526020018280548015610c7657602002820191906000526020600020905b815481526020019060010190808311610c62575b505050505083611896565b905081600960008573ffffffffffffffffffffffffffffffffffffffff1673ffffffffffffffffffffffffffffffffffffffff1681526020019081526020016000208281548110610cd557610cd461290b565b5b906000526020600020015414610d20576040517f08c379a0000000000000000000000000000000000000000000000000000000008152600401610d1790612986565b60405180910390fd5b600960008473ffffffffffffffffffffffffffffffffffffffff1673ffffffffffffffffffffffffffffffffffffffff168152602001908152602001600020805490508110610da4576040517f08c379a0000000000000000000000000000000000000000000000000000000008152600401610d9b90612986565b60405180910390fd5b60008190505b6001600960008673ffffffffffffffffffffffffffffffffffffffff1673ffffffffffffffffffffffffffffffffffffffff16815260200190815260200160002080549050610df991906129a6565b811015610ed457600960008573ffffffffffffffffffffffffffffffffffffffff1673ffffffffffffffffffffffffffffffffffffffff168152602001908152602001600020600182610e4c91906129da565b81548110610e5d57610e5c61290b565b5b9060005260206000200154600960008673ffffffffffffffffffffffffffffffffffffffff1673ffffffffffffffffffffffffffffffffffffffff1681526020019081526020016000208281548110610eb957610eb861290b565b5b90600052602060002001819055508080600101915050610daa565b50600960008473ffffffffffffffffffffffffffffffffffffffff1673ffffffffffffffffffffffffffffffffffffffff168152602001908152602001600020805480610f2457610f23612a0e565b5b60019003818190600052602060002001600090559055505050565b610f518282610f4c610f55565b6118ea565b5050565b600033905090565b600080610f6984611859565b9050600073ffffffffffffffffffffffffffffffffffffffff168373ffffffffffffffffffffffffffffffffffffffff1614610fab57610faa8184866118fc565b5b600073ffffffffffffffffffffffffffffffffffffffff168173ffffffffffffffffffffffffffffffffffffffff161461103c57610fed6000856000806119c0565b6001600360008373ffffffffffffffffffffffffffffffffffffffff1673ffffffffffffffffffffffffffffffffffffffff168152602001908152602001600020600082825403925050819055505b600073ffffffffffffffffffffffffffffffffffffffff168573ffffffffffffffffffffffffffffffffffffffff16146110bf576001600360008773ffffffffffffffffffffffffffffffffffffffff1673ffffffffffffffffffffffffffffffffffffffff168152602001908152602001600020600082825401925050819055505b846002600086815260200190815260200160002060006101000a81548173ffffffffffffffffffffffffffffffffffffffff021916908373ffffffffffffffffffffffffffffffffffffffff160217905550838573ffffffffffffffffffffffffffffffffffffffff168273ffffffffffffffffffffffffffffffffffffffff167fddf252ad1be2c89b69c2b068fc378daa952ba7f163c4a11628f55a4df523b3ef60405160405180910390a4809150509392505050565b61117f610f55565b73ffffffffffffffffffffffffffffffffffffffff1661119d61076e565b73ffffffffffffffffffffffffffffffffffffffff16146111fc576111c0610f55565b6040517f118cdaa70000000000000000000000000000000000000000000000000000000081526004016111f3919061228b565b60405180910390fd5b565b6000600760009054906101000a900473ffffffffffffffffffffffffffffffffffffffff16905081600760006101000a81548173ffffffffffffffffffffffffffffffffffffffff021916908373ffffffffffffffffffffffffffffffffffffffff1602179055508173ffffffffffffffffffffffffffffffffffffffff168173ffffffffffffffffffffffffffffffffffffffff167f8be0079c531659141344cd1fd0a4f28419497f9722a3daafe3b4186f6b6457e060405160405180910390a35050565b600073ffffffffffffffffffffffffffffffffffffffff168273ffffffffffffffffffffffffffffffffffffffff160361133557816040517f5b08ba1800000000000000000000000000000000000000000000000000000000815260040161132c919061228b565b60405180910390fd5b80600560008573ffffffffffffffffffffffffffffffffffffffff1673ffffffffffffffffffffffffffffffffffffffff16815260200190815260200160002060008473ffffffffffffffffffffffffffffffffffffffff1673ffffffffffffffffffffffffffffffffffffffff16815260200190815260200160002060006101000a81548160ff0219169083151502179055508173ffffffffffffffffffffffffffffffffffffffff168373ffffffffffffffffffffffffffffffffffffffff167f17307eab39ab6107e8899845ad3d59bd9653f200f220920489ca2b5937696c3183604051611426919061211a565b60405180910390a3505050565b60008373ffffffffffffffffffffffffffffffffffffffff163b11156115e4578273ffffffffffffffffffffffffffffffffffffffff1663150b7a02611477610f55565b8685856040518563ffffffff1660e01b81526004016114999493929190612a92565b6020604051808303816000875af19250505080156114d557506040513d601f19601f820116820180604052508101906114d29190612af3565b60015b611559573d8060008114611505576040519150601f19603f3d011682016040523d82523d6000602084013e61150a565b606091505b50600081510361155157836040517f64a0ae92000000000000000000000000000000000000000000000000000000008152600401611548919061228b565b60405180910390fd5b805181602001fd5b63150b7a0260e01b7bffffffffffffffffffffffffffffffffffffffffffffffffffffffff1916817bffffffffffffffffffffffffffffffffffffffffffffffffffffffff1916146115e257836040517f64a0ae920000000000000000000000000000000000000000000000000000000081526004016115d9919061228b565b60405180910390fd5b505b50505050565b60606115f582610b23565b5060006006600084815260200190815260200160002080546116169061282c565b80601f01602080910402602001604051908101604052809291908181526020018280546116429061282c565b801561168f5780601f106116645761010080835404028352916020019161168f565b820191906000526020600020905b81548152906001019060200180831161167257829003601f168201915b5050505050905060006116a0611b85565b905060008151036116b55781925050506116f8565b6000825111156116ea5780826040516020016116d2929190612b5c565b604051602081830303815290604052925050506116f8565b6116f384611b9c565b925050505b919050565b611717828260405180602001604052806000815250611c05565b5050565b8060066000848152602001908152602001600020908161173b9190612d2c565b507ff8e1a15aba9398e019f0b49df1a4fde98ee17ae345cb5f6b5e2c27f5033e8ce78260405161176b9190612374565b60405180910390a15050565b60007f80ac58cd000000000000000000000000000000000000000000000000000000007bffffffffffffffffffffffffffffffffffffffffffffffffffffffff1916827bffffffffffffffffffffffffffffffffffffffffffffffffffffffff1916148061184257507f5b5e139f000000000000000000000000000000000000000000000000000000007bffffffffffffffffffffffffffffffffffffffffffffffffffffffff1916827bffffffffffffffffffffffffffffffffffffffffffffffffffffffff1916145b80611852575061185182611c21565b5b9050919050565b60006002600083815260200190815260200160002060009054906101000a900473ffffffffffffffffffffffffffffffffffffffff169050919050565b600080600090505b83518110156118de57828482815181106118bb576118ba61290b565b5b6020026020010151036118d157809150506118e4565b808060010191505061189e565b50825190505b92915050565b6118f783838360016119c0565b505050565b611907838383611c8b565b6119bb57600073ffffffffffffffffffffffffffffffffffffffff168373ffffffffffffffffffffffffffffffffffffffff160361197c57806040517f7e2732890000000000000000000000000000000000000000000000000000000081526004016119739190612374565b60405180910390fd5b81816040517f177e802f0000000000000000000000000000000000000000000000000000000081526004016119b2929190612dfe565b60405180910390fd5b505050565b80806119f95750600073ffffffffffffffffffffffffffffffffffffffff168273ffffffffffffffffffffffffffffffffffffffff1614155b15611b2d576000611a0984610b23565b9050600073ffffffffffffffffffffffffffffffffffffffff168373ffffffffffffffffffffffffffffffffffffffff1614158015611a7457508273ffffffffffffffffffffffffffffffffffffffff168173ffffffffffffffffffffffffffffffffffffffff1614155b8015611a875750611a8581846109a8565b155b15611ac957826040517fa9fbf51f000000000000000000000000000000000000000000000000000000008152600401611ac0919061228b565b60405180910390fd5b8115611b2b57838573ffffffffffffffffffffffffffffffffffffffff168273ffffffffffffffffffffffffffffffffffffffff167f8c5be1e5ebec7d5bd14f71427d1e84f3dd0314c0f7b2291e5b200ac8c7c3b92560405160405180910390a45b505b836004600085815260200190815260200160002060006101000a81548173ffffffffffffffffffffffffffffffffffffffff021916908373ffffffffffffffffffffffffffffffffffffffff16021790555050505050565b606060405180602001604052806000815250905090565b6060611ba782610b23565b506000611bb2611b85565b90506000815111611bd25760405180602001604052806000815250611bfd565b80611bdc84611d4c565b604051602001611bed929190612b5c565b6040516020818303038152906040525b915050919050565b611c0f8383611e1a565b611c1c6000848484611433565b505050565b60007f01ffc9a7000000000000000000000000000000000000000000000000000000007bffffffffffffffffffffffffffffffffffffffffffffffffffffffff1916827bffffffffffffffffffffffffffffffffffffffffffffffffffffffff1916149050919050565b60008073ffffffffffffffffffffffffffffffffffffffff168373ffffffffffffffffffffffffffffffffffffffff1614158015611d4357508273ffffffffffffffffffffffffffffffffffffffff168473ffffffffffffffffffffffffffffffffffffffff161480611d045750611d0384846109a8565b5b80611d4257508273ffffffffffffffffffffffffffffffffffffffff16611d2a83610bab565b73ffffffffffffffffffffffffffffffffffffffff16145b5b90509392505050565b606060006001611d5b84611f13565b01905060008167ffffffffffffffff811115611d7a57611d79612512565b5b6040519080825280601f01601f191660200182016040528015611dac5781602001600182028036833780820191505090505b509050600082602001820190505b600115611e0f578080600190039150507f3031323334353637383961626364656600000000000000000000000000000000600a86061a8153600a8581611e0357611e02612e27565b5b04945060008503611dba575b819350505050919050565b600073ffffffffffffffffffffffffffffffffffffffff168273ffffffffffffffffffffffffffffffffffffffff1603611e8c5760006040517f64a0ae92000000000000000000000000000000000000000000000000000000008152600401611e83919061228b565b60405180910390fd5b6000611e9a83836000610f5d565b9050600073ffffffffffffffffffffffffffffffffffffffff168173ffffffffffffffffffffffffffffffffffffffff1614611f0e5760006040517f73c6ac6e000000000000000000000000000000000000000000000000000000008152600401611f05919061228b565b60405180910390fd5b505050565b600080600090507a184f03e93ff9f4daa797ed6e38ed64bf6a1f0100000000000000008310611f71577a184f03e93ff9f4daa797ed6e38ed64bf6a1f0100000000000000008381611f6757611f66612e27565b5b0492506040810190505b6d04ee2d6d415b85acef81000000008310611fae576d04ee2d6d415b85acef81000000008381611fa457611fa3612e27565b5b0492506020810190505b662386f26fc100008310611fdd57662386f26fc100008381611fd357611fd2612e27565b5b0492506010810190505b6305f5e1008310612006576305f5e1008381611ffc57611ffb612e27565b5b0492506008810190505b612710831061202b57612710838161202157612020612e27565b5b0492506004810190505b6064831061204e576064838161204457612043612e27565b5b0492506002810190505b600a831061205d576001810190505b80915050919050565b6000604051905090565b600080fd5b600080fd5b60007fffffffff0000000000000000000000000000000000000000000000000000000082169050919050565b6120af8161207a565b81146120ba57600080fd5b50565b6000813590506120cc816120a6565b92915050565b6000602082840312156120e8576120e7612070565b5b60006120f6848285016120bd565b91505092915050565b60008115159050919050565b612114816120ff565b82525050565b600060208201905061212f600083018461210b565b92915050565b600081519050919050565b600082825260208201905092915050565b60005b8381101561216f578082015181840152602081019050612154565b60008484015250505050565b6000601f19601f8301169050919050565b600061219782612135565b6121a18185612140565b93506121b1818560208601612151565b6121ba8161217b565b840191505092915050565b600060208201905081810360008301526121df818461218c565b905092915050565b6000819050919050565b6121fa816121e7565b811461220557600080fd5b50565b600081359050612217816121f1565b92915050565b60006020828403121561223357612232612070565b5b600061224184828501612208565b91505092915050565b600073ffffffffffffffffffffffffffffffffffffffff82169050919050565b60006122758261224a565b9050919050565b6122858161226a565b82525050565b60006020820190506122a0600083018461227c565b92915050565b6122af8161226a565b81146122ba57600080fd5b50565b6000813590506122cc816122a6565b92915050565b600080604083850312156122e9576122e8612070565b5b60006122f7858286016122bd565b925050602061230885828601612208565b9150509250929050565b60008060006060848603121561232b5761232a612070565b5b6000612339868287016122bd565b935050602061234a868287016122bd565b925050604061235b86828701612208565b9150509250925092565b61236e816121e7565b82525050565b60006020820190506123896000830184612365565b92915050565b6000602082840312156123a5576123a4612070565b5b60006123b3848285016122bd565b91505092915050565b600081519050919050565b600082825260208201905092915050565b6000819050602082019050919050565b6123f1816121e7565b82525050565b600061240383836123e8565b60208301905092915050565b6000602082019050919050565b6000612427826123bc565b61243181856123c7565b935061243c836123d8565b8060005b8381101561246d57815161245488826123f7565b975061245f8361240f565b925050600181019050612440565b5085935050505092915050565b60006020820190508181036000830152612494818461241c565b905092915050565b6124a5816120ff565b81146124b057600080fd5b50565b6000813590506124c28161249c565b92915050565b600080604083850312156124df576124de612070565b5b60006124ed858286016122bd565b92505060206124fe858286016124b3565b9150509250929050565b600080fd5b600080fd5b7f4e487b7100000000000000000000000000000000000000000000000000000000600052604160045260246000fd5b61254a8261217b565b810181811067ffffffffffffffff8211171561256957612568612512565b5b80604052505050565b600061257c612066565b90506125888282612541565b919050565b600067ffffffffffffffff8211156125a8576125a7612512565b5b6125b18261217b565b9050602081019050919050565b82818337600083830152505050565b60006125e06125db8461258d565b612572565b9050828152602081018484840111156125fc576125fb61250d565b5b6126078482856125be565b509392505050565b600082601f83011261262457612623612508565b5b81356126348482602086016125cd565b91505092915050565b6000806000806080858703121561265757612656612070565b5b6000612665878288016122bd565b9450506020612676878288016122bd565b935050604061268787828801612208565b925050606085013567ffffffffffffffff8111156126a8576126a7612075565b5b6126b48782880161260f565b91505092959194509250565b600067ffffffffffffffff8211156126db576126da612512565b5b6126e48261217b565b9050602081019050919050565b60006127046126ff846126c0565b612572565b9050828152602081018484840111156127205761271f61250d565b5b61272b8482856125be565b509392505050565b600082601f83011261274857612747612508565b5b81356127588482602086016126f1565b91505092915050565b6000806040838503121561277857612777612070565b5b6000612786858286016122bd565b925050602083013567ffffffffffffffff8111156127a7576127a6612075565b5b6127b385828601612733565b9150509250929050565b600080604083850312156127d4576127d3612070565b5b60006127e2858286016122bd565b92505060206127f3858286016122bd565b9150509250929050565b7f4e487b7100000000000000000000000000000000000000000000000000000000600052602260045260246000fd5b6000600282049050600182168061284457607f821691505b602082108103612857576128566127fd565b5b50919050565b6000606082019050612872600083018661227c565b61287f6020830185612365565b61288c604083018461227c565b949350505050565b7f4e487b7100000000000000000000000000000000000000000000000000000000600052601160045260246000fd5b60006128ce826121e7565b91507fffffffffffffffffffffffffffffffffffffffffffffffffffffffffffffffff8203612900576128ff612894565b5b600182019050919050565b7f4e487b7100000000000000000000000000000000000000000000000000000000600052603260045260246000fd5b7f4552433732313a20696e76616c696420746f6b656e2049440000000000000000600082015250565b6000612970601883612140565b915061297b8261293a565b602082019050919050565b6000602082019050818103600083015261299f81612963565b9050919050565b60006129b1826121e7565b91506129bc836121e7565b92508282039050818111156129d4576129d3612894565b5b92915050565b60006129e5826121e7565b91506129f0836121e7565b9250828201905080821115612a0857612a07612894565b5b92915050565b7f4e487b7100000000000000000000000000000000000000000000000000000000600052603160045260246000fd5b600081519050919050565b600082825260208201905092915050565b6000612a6482612a3d565b612a6e8185612a48565b9350612a7e818560208601612151565b612a878161217b565b840191505092915050565b6000608082019050612aa7600083018761227c565b612ab4602083018661227c565b612ac16040830185612365565b8181036060830152612ad38184612a59565b905095945050505050565b600081519050612aed816120a6565b92915050565b600060208284031215612b0957612b08612070565b5b6000612b1784828501612ade565b91505092915050565b600081905092915050565b6000612b3682612135565b612b408185612b20565b9350612b50818560208601612151565b80840191505092915050565b6000612b688285612b2b565b9150612b748284612b2b565b91508190509392505050565b60008190508160005260206000209050919050565b60006020601f8301049050919050565b600082821b905092915050565b600060088302612be27fffffffffffffffffffffffffffffffffffffffffffffffffffffffffffffffff82612ba5565b612bec8683612ba5565b95508019841693508086168417925050509392505050565b6000819050919050565b6000612c29612c24612c1f846121e7565b612c04565b6121e7565b9050919050565b6000819050919050565b612c4383612c0e565b612c57612c4f82612c30565b848454612bb2565b825550505050565b600090565b612c6c612c5f565b612c77818484612c3a565b505050565b5b81811015612c9b57612c90600082612c64565b600181019050612c7d565b5050565b601f821115612ce057612cb181612b80565b612cba84612b95565b81016020851015612cc9578190505b612cdd612cd585612b95565b830182612c7c565b50505b505050565b600082821c905092915050565b6000612d0360001984600802612ce5565b1980831691505092915050565b6000612d1c8383612cf2565b9150826002028217905092915050565b612d3582612135565b67ffffffffffffffff811115612d4e57612d4d612512565b5b612d58825461282c565b612d63828285612c9f565b600060209050601f831160018114612d965760008415612d84578287015190505b612d8e8582612d10565b865550612df6565b601f198416612da486612b80565b60005b82811015612dcc57848901518255600182019150602085019450602081019050612da7565b86831015612de95784890151612de5601f891682612cf2565b8355505b6001600288020188555050505b505050505050565b6000604082019050612e13600083018561227c565b612e206020830184612365565b9392505050565b7f4e487b7100000000000000000000000000000000000000000000000000000000600052601260045260246000fdfea2646970667358221220bd96a7ac8ba4651524e42cf0de47fa66307c7fb07ba4b9c49d478974295ddf3364736f6c63430008180033",
  "linkReferences": {},
  "deployedLinkReferences": {}
}