{"contracts/Market.sol":{"Marketplace":{"abi":[{"inputs":[{"internalType":"address","name":"_nftAddress","type":"address"}],"stateMutability":"nonpayable","type":"constructor"},{"inputs":[{"internalType":"string","name":"name","type":"string"},{"internalType":"uint256","name":"value","type":"uint256"}],"name":"PriceGeaterThanZero","type":"error"},{"anonymous":false,"inputs":[{"indexed":true,"internalType":"uint256","name":"tokenId","type":"uint256"},{"indexed":true,"internalType":"address","name":"owner","type":"address"}],"name":"NFTCanceled","type":"event"},{"anonymous":false,"inputs":[{"indexed":true,"internalType":"uint256","name":"tokenId","type":"uint256"},{"indexed":true,"internalType":"address","name":"owner","type":"address"},{"indexed":false,"internalType":"uint256","name":"price","type":"uint256"}],"name":"NFTListed","type":"event"},{"anonymous":false,"inputs":[{"indexed":true,"internalType":"uint256","name":"tokenId","type":"uint256"},{"indexed":true,"internalType":"address","name":"buyer","type":"address"},{"indexed":false,"internalType":"uint256","name":"price","type":"uint256"}],"name":"NFTSold","type":"event"},{"inputs":[],"name":"admin","outputs":[{"internalType":"address","name":"","type":"address"}],"stateMutability":"view","type":"function"},{"inputs":[{"internalType":"uint256","name":"","type":"uint256"}],"name":"allNfts","outputs":[{"internalType":"uint256","name":"tokenId","type":"uint256"},{"internalType":"address","name":"owner","type":"address"},{"internalType":"uint256","name":"price","type":"uint256"},{"internalType":"bool","name":"sold","type":"bool"}],"stateMutability":"view","type":"function"},{"inputs":[{"internalType":"uint256","name":"_tokenId","type":"uint256"}],"name":"buyNFT","outputs":[],"stateMutability":"payable","type":"function"},{"inputs":[{"internalType":"uint256","name":"_tokenId","type":"uint256"}],"name":"cancelNFT","outputs":[],"stateMutability":"nonpayable","type":"function"},{"inputs":[],"name":"getAllNFTs","outputs":[{"components":[{"internalType":"uint256","name":"tokenId","type":"uint256"},{"internalType":"address","name":"owner","type":"address"},{"internalType":"uint256","name":"price","type":"uint256"},{"internalType":"bool","name":"sold","type":"bool"}],"internalType":"struct Marketplace.NFT[]","name":"","type":"tuple[]"}],"stateMutability":"view","type":"function"},{"inputs":[{"internalType":"uint256","name":"_tokenId","type":"uint256"}],"name":"getNFT","outputs":[{"components":[{"internalType":"uint256","name":"tokenId","type":"uint256"},{"internalType":"address","name":"owner","type":"address"},{"internalType":"uint256","name":"price","type":"uint256"},{"internalType":"bool","name":"sold","type":"bool"}],"internalType":"struct Marketplace.NFT","name":"","type":"tuple"}],"stateMutability":"view","type":"function"},{"inputs":[{"internalType":"uint256","name":"","type":"uint256"}],"name":"idTonft","outputs":[{"internalType":"uint256","name":"tokenId","type":"uint256"},{"internalType":"address","name":"owner","type":"address"},{"internalType":"uint256","name":"price","type":"uint256"},{"internalType":"bool","name":"sold","type":"bool"}],"stateMutability":"view","type":"function"},{"inputs":[{"internalType":"uint256","name":"_tokenId","type":"uint256"},{"internalType":"uint256","name":"_price","type":"uint256"}],"name":"listNFT","outputs":[],"stateMutability":"nonpayable","type":"function"},{"inputs":[],"name":"token","outputs":[{"internalType":"contract IERC721","name":"","type":"address"}],"stateMutability":"view","type":"function"}],"evm":{"bytecode":{"linkReferences":{},"object":"60c06040526000600160006101000a81548160ff0219169083151502179055503480156200002c57600080fd5b5060405162001c6438038062001c6483398181016040528101906200005291906200019d565b600073ffffffffffffffffffffffffffffffffffffffff168173ffffffffffffffffffffffffffffffffffffffff1603620000c4576040517f08c379a0000000000000000000000000000000000000000000000000000000008152600401620000bb9062000230565b60405180910390fd5b8073ffffffffffffffffffffffffffffffffffffffff1660808173ffffffffffffffffffffffffffffffffffffffff16815250503373ffffffffffffffffffffffffffffffffffffffff1660a08173ffffffffffffffffffffffffffffffffffffffff16815250505062000252565b600080fd5b600073ffffffffffffffffffffffffffffffffffffffff82169050919050565b6000620001658262000138565b9050919050565b620001778162000158565b81146200018357600080fd5b50565b60008151905062000197816200016c565b92915050565b600060208284031215620001b657620001b562000133565b5b6000620001c68482850162000186565b91505092915050565b600082825260208201905092915050565b7f496e76616c6964204e4654206164647265737300000000000000000000000000600082015250565b600062000218601383620001cf565b91506200022582620001e0565b602082019050919050565b600060208201905081810360008301526200024b8162000209565b9050919050565b60805160a0516119c96200029b600039600081816102390152610e6301526000818161032f015281816107040152818161098101528181610ab60152610e8701526119c96000f3fe6080604052600436106100865760003560e01c806394383f141161005957806394383f141461014d578063c529de6514610176578063e0391b09146101b6578063f851a440146101e1578063fc0c546a1461020c57610086565b8063313e2eb91461008b5780633c1988c5146100b457806351ed8288146100f4578063576f7ea714610110575b600080fd5b34801561009757600080fd5b506100b260048036038101906100ad91906110ed565b610237565b005b3480156100c057600080fd5b506100db60048036038101906100d691906110ed565b6104b5565b6040516100eb9493929190611185565b60405180910390f35b61010e600480360381019061010991906110ed565b610512565b005b34801561011c57600080fd5b50610137600480360381019061013291906110ed565b6108b6565b604051610144919061124c565b60405180910390f35b34801561015957600080fd5b50610174600480360381019061016f9190611267565b610967565b005b34801561018257600080fd5b5061019d600480360381019061019891906110ed565b610d10565b6040516101ad9493929190611185565b60405180910390f35b3480156101c257600080fd5b506101cb610d7d565b6040516101d891906113ab565b60405180910390f35b3480156101ed57600080fd5b506101f6610e61565b60405161020391906113cd565b60405180910390f35b34801561021857600080fd5b50610221610e85565b60405161022e9190611447565b60405180910390f35b7f000000000000000000000000000000000000000000000000000000000000000073ffffffffffffffffffffffffffffffffffffffff163373ffffffffffffffffffffffffffffffffffffffff16146102c5576040517f08c379a00000000000000000000000000000000000000000000000000000000081526004016102bc906114bf565b60405180910390fd5b600080600083815260200190815260200160002090508060030160009054906101000a900460ff161561032d576040517f08c379a00000000000000000000000000000000000000000000000000000000081526004016103249061152b565b60405180910390fd5b7f000000000000000000000000000000000000000000000000000000000000000073ffffffffffffffffffffffffffffffffffffffff166342842e0e308360010160009054906101000a900473ffffffffffffffffffffffffffffffffffffffff16856040518463ffffffff1660e01b81526004016103ae9392919061154b565b600060405180830381600087803b1580156103c857600080fd5b505af11580156103dc573d6000803e3d6000fd5b505050508060010160009054906101000a900473ffffffffffffffffffffffffffffffffffffffff1673ffffffffffffffffffffffffffffffffffffffff16827f15e2682218ceabb830ebfc19aa0df5aa866d8e78629ab45780aaf3d8db4f125960405160405180910390a361045182610ea9565b6000808381526020019081526020016000206000808201600090556001820160006101000a81549073ffffffffffffffffffffffffffffffffffffffff021916905560028201600090556003820160006101000a81549060ff021916905550505050565b60006020528060005260406000206000915090508060000154908060010160009054906101000a900473ffffffffffffffffffffffffffffffffffffffff16908060020154908060030160009054906101000a900460ff16905084565b600160009054906101000a900460ff1615610562576040517f08c379a0000000000000000000000000000000000000000000000000000000008152600401610559906115ce565b60405180910390fd5b60018060006101000a81548160ff021916908315150217905550600080600083815260200190815260200160002090508060030160009054906101000a900460ff16156105e4576040517f08c379a00000000000000000000000000000000000000000000000000000000081526004016105db9061152b565b60405180910390fd5b3481600201541461062a576040517f08c379a00000000000000000000000000000000000000000000000000000000081526004016106219061163a565b60405180910390fd5b3373ffffffffffffffffffffffffffffffffffffffff168160010160009054906101000a900473ffffffffffffffffffffffffffffffffffffffff1673ffffffffffffffffffffffffffffffffffffffff16036106bc576040517f08c379a00000000000000000000000000000000000000000000000000000000081526004016106b3906116a6565b60405180910390fd5b60018160030160006101000a81548160ff02191690831515021790555060008160010160009054906101000a900473ffffffffffffffffffffffffffffffffffffffff1690507f000000000000000000000000000000000000000000000000000000000000000073ffffffffffffffffffffffffffffffffffffffff166342842e0e3033866040518463ffffffff1660e01b815260040161075f9392919061154b565b600060405180830381600087803b15801561077957600080fd5b505af115801561078d573d6000803e3d6000fd5b5050505060008173ffffffffffffffffffffffffffffffffffffffff16346040516107b7906116f7565b60006040518083038185875af1925050503d80600081146107f4576040519150601f19603f3d011682016040523d82523d6000602084013e6107f9565b606091505b505090508061083d576040517f08c379a000000000000000000000000000000000000000000000000000000000815260040161083490611758565b60405180910390fd5b3373ffffffffffffffffffffffffffffffffffffffff16847f6329e40c0365262ebbff5ca819385c2b9713dcaa050ed07866d72c441395699a346040516108849190611778565b60405180910390a361089584610ea9565b5050506000600160006101000a81548160ff02191690831515021790555050565b6108be611072565b600080838152602001908152602001600020604051806080016040529081600082015481526020016001820160009054906101000a900473ffffffffffffffffffffffffffffffffffffffff1673ffffffffffffffffffffffffffffffffffffffff1673ffffffffffffffffffffffffffffffffffffffff168152602001600282015481526020016003820160009054906101000a900460ff1615151515815250509050919050565b813373ffffffffffffffffffffffffffffffffffffffff167f000000000000000000000000000000000000000000000000000000000000000073ffffffffffffffffffffffffffffffffffffffff16636352211e836040518263ffffffff1660e01b81526004016109d89190611778565b602060405180830381865afa1580156109f5573d6000803e3d6000fd5b505050506040513d601f19601f82011682018060405250810190610a1991906117bf565b73ffffffffffffffffffffffffffffffffffffffff1614610a6f576040517f08c379a0000000000000000000000000000000000000000000000000000000008152600401610a6690611838565b60405180910390fd5b60008211610ab457816040517f75e333cb000000000000000000000000000000000000000000000000000000008152600401610aab91906118a4565b60405180910390fd5b7f000000000000000000000000000000000000000000000000000000000000000073ffffffffffffffffffffffffffffffffffffffff166323b872dd3330866040518463ffffffff1660e01b8152600401610b119392919061154b565b600060405180830381600087803b158015610b2b57600080fd5b505af1158015610b3f573d6000803e3d6000fd5b50505050600060405180608001604052808581526020013373ffffffffffffffffffffffffffffffffffffffff16815260200184815260200160001515815250905060028190806001815401808255809150506001900390600052602060002090600402016000909190919091506000820151816000015560208201518160010160006101000a81548173ffffffffffffffffffffffffffffffffffffffff021916908373ffffffffffffffffffffffffffffffffffffffff1602179055506040820151816002015560608201518160030160006101000a81548160ff0219169083151502179055505050806000808681526020019081526020016000206000820151816000015560208201518160010160006101000a81548173ffffffffffffffffffffffffffffffffffffffff021916908373ffffffffffffffffffffffffffffffffffffffff1602179055506040820151816002015560608201518160030160006101000a81548160ff0219169083151502179055509050503373ffffffffffffffffffffffffffffffffffffffff16847f5f9c03de076f5063cd3ebcfe8ef7aa8af378e4b35a83c77ba9777e97083879a285604051610d029190611778565b60405180910390a350505050565b60028181548110610d2057600080fd5b90600052602060002090600402016000915090508060000154908060010160009054906101000a900473ffffffffffffffffffffffffffffffffffffffff16908060020154908060030160009054906101000a900460ff16905084565b60606002805480602002602001604051908101604052809291908181526020016000905b82821015610e585783829060005260206000209060040201604051806080016040529081600082015481526020016001820160009054906101000a900473ffffffffffffffffffffffffffffffffffffffff1673ffffffffffffffffffffffffffffffffffffffff1673ffffffffffffffffffffffffffffffffffffffff168152602001600282015481526020016003820160009054906101000a900460ff16151515158152505081526020019060010190610da1565b50505050905090565b7f000000000000000000000000000000000000000000000000000000000000000081565b7f000000000000000000000000000000000000000000000000000000000000000081565b6000600280549050905060005b8181101561106d578260028281548110610ed357610ed26118d2565b5b90600052602060002090600402016000015403611060576002600183610ef99190611930565b81548110610f0a57610f096118d2565b5b906000526020600020906004020160028281548110610f2c57610f2b6118d2565b5b9060005260206000209060040201600082015481600001556001820160009054906101000a900473ffffffffffffffffffffffffffffffffffffffff168160010160006101000a81548173ffffffffffffffffffffffffffffffffffffffff021916908373ffffffffffffffffffffffffffffffffffffffff160217905550600282015481600201556003820160009054906101000a900460ff168160030160006101000a81548160ff0219169083151502179055509050506002805480610ff757610ff6611964565b5b60019003818190600052602060002090600402016000808201600090556001820160006101000a81549073ffffffffffffffffffffffffffffffffffffffff021916905560028201600090556003820160006101000a81549060ff02191690555050905561106d565b8080600101915050610eb6565b505050565b604051806080016040528060008152602001600073ffffffffffffffffffffffffffffffffffffffff168152602001600081526020016000151581525090565b600080fd5b6000819050919050565b6110ca816110b7565b81146110d557600080fd5b50565b6000813590506110e7816110c1565b92915050565b600060208284031215611103576111026110b2565b5b6000611111848285016110d8565b91505092915050565b611123816110b7565b82525050565b600073ffffffffffffffffffffffffffffffffffffffff82169050919050565b600061115482611129565b9050919050565b61116481611149565b82525050565b60008115159050919050565b61117f8161116a565b82525050565b600060808201905061119a600083018761111a565b6111a7602083018661115b565b6111b4604083018561111a565b6111c16060830184611176565b95945050505050565b6111d3816110b7565b82525050565b6111e281611149565b82525050565b6111f18161116a565b82525050565b60808201600082015161120d60008501826111ca565b50602082015161122060208501826111d9565b50604082015161123360408501826111ca565b50606082015161124660608501826111e8565b50505050565b600060808201905061126160008301846111f7565b92915050565b6000806040838503121561127e5761127d6110b2565b5b600061128c858286016110d8565b925050602061129d858286016110d8565b9150509250929050565b600081519050919050565b600082825260208201905092915050565b6000819050602082019050919050565b6080820160008201516112e960008501826111ca565b5060208201516112fc60208501826111d9565b50604082015161130f60408501826111ca565b50606082015161132260608501826111e8565b50505050565b600061133483836112d3565b60808301905092915050565b6000602082019050919050565b6000611358826112a7565b61136281856112b2565b935061136d836112c3565b8060005b8381101561139e5781516113858882611328565b975061139083611340565b925050600181019050611371565b5085935050505092915050565b600060208201905081810360008301526113c5818461134d565b905092915050565b60006020820190506113e2600083018461115b565b92915050565b6000819050919050565b600061140d61140861140384611129565b6113e8565b611129565b9050919050565b600061141f826113f2565b9050919050565b600061143182611414565b9050919050565b61144181611426565b82525050565b600060208201905061145c6000830184611438565b92915050565b600082825260208201905092915050565b7f4e6f74207468652061646d696e00000000000000000000000000000000000000600082015250565b60006114a9600d83611462565b91506114b482611473565b602082019050919050565b600060208201905081810360008301526114d88161149c565b9050919050565b7f4e465420616c726561647920736f6c6400000000000000000000000000000000600082015250565b6000611515601083611462565b9150611520826114df565b602082019050919050565b6000602082019050818103600083015261154481611508565b9050919050565b6000606082019050611560600083018661115b565b61156d602083018561115b565b61157a604083018461111a565b949350505050565b7f5265656e7472616e742063616c6c000000000000000000000000000000000000600082015250565b60006115b8600e83611462565b91506115c382611582565b602082019050919050565b600060208201905081810360008301526115e7816115ab565b9050919050565b7f496e636f72726563742070726963650000000000000000000000000000000000600082015250565b6000611624600f83611462565b915061162f826115ee565b602082019050919050565b6000602082019050818103600083015261165381611617565b9050919050565b7f43616e6e6f742062757920796f7572206f776e204e4654000000000000000000600082015250565b6000611690601783611462565b915061169b8261165a565b602082019050919050565b600060208201905081810360008301526116bf81611683565b9050919050565b600081905092915050565b50565b60006116e16000836116c6565b91506116ec826116d1565b600082019050919050565b6000611702826116d4565b9150819050919050565b7f4661696c656420746f2073656e64207061796d656e7400000000000000000000600082015250565b6000611742601683611462565b915061174d8261170c565b602082019050919050565b6000602082019050818103600083015261177181611735565b9050919050565b600060208201905061178d600083018461111a565b92915050565b61179c81611149565b81146117a757600080fd5b50565b6000815190506117b981611793565b92915050565b6000602082840312156117d5576117d46110b2565b5b60006117e3848285016117aa565b91505092915050565b7f4e6f7420746865206f776e657200000000000000000000000000000000000000600082015250565b6000611822600d83611462565b915061182d826117ec565b602082019050919050565b6000602082019050818103600083015261185181611815565b9050919050565b7f5072696365206d7573742062652067726561746572207468616e207a65726f00600082015250565b600061188e601f83611462565b915061189982611858565b602082019050919050565b600060408201905081810360008301526118bd81611881565b90506118cc602083018461111a565b92915050565b7f4e487b7100000000000000000000000000000000000000000000000000000000600052603260045260246000fd5b7f4e487b7100000000000000000000000000000000000000000000000000000000600052601160045260246000fd5b600061193b826110b7565b9150611946836110b7565b925082820390508181111561195e5761195d611901565b5b92915050565b7f4e487b7100000000000000000000000000000000000000000000000000000000600052603160045260246000fdfea2646970667358221220aa486d0da65b00a6eba030e773677c5502f2aadd44a402c9002064684d7b76d864736f6c63430008180033","opcodes":"PUSH1 0xC0 PUSH1 0x40 MSTORE PUSH1 0x0 PUSH1 0x1 PUSH1 0x0 PUSH2 0x100 EXP DUP2 SLOAD DUP2 PUSH1 0xFF MUL NOT AND SWAP1 DUP4 ISZERO ISZERO MUL OR SWAP1 SSTORE POP CALLVALUE DUP1 ISZERO PUSH3 0x2C JUMPI PUSH1 0x0 DUP1 REVERT JUMPDEST POP PUSH1 0x40 MLOAD PUSH3 0x1C64 CODESIZE SUB DUP1 PUSH3 0x1C64 DUP4 CODECOPY DUP2 DUP2 ADD PUSH1 0x40 MSTORE DUP2 ADD SWAP1 PUSH3 0x52 SWAP2 SWAP1 PUSH3 0x19D JUMP JUMPDEST PUSH1 0x0 PUSH20 0xFFFFFFFFFFFFFFFFFFFFFFFFFFFFFFFFFFFFFFFF AND DUP2 PUSH20 0xFFFFFFFFFFFFFFFFFFFFFFFFFFFFFFFFFFFFFFFF AND SUB PUSH3 0xC4 JUMPI PUSH1 0x40 MLOAD PUSH32 0x8C379A000000000000000000000000000000000000000000000000000000000 DUP2 MSTORE PUSH1 0x4 ADD PUSH3 0xBB SWAP1 PUSH3 0x230 JUMP JUMPDEST PUSH1 0x40 MLOAD DUP1 SWAP2 SUB SWAP1 REVERT JUMPDEST DUP1 PUSH20 0xFFFFFFFFFFFFFFFFFFFFFFFFFFFFFFFFFFFFFFFF AND PUSH1 0x80 DUP2 PUSH20 0xFFFFFFFFFFFFFFFFFFFFFFFFFFFFFFFFFFFFFFFF AND DUP2 MSTORE POP POP CALLER PUSH20 0xFFFFFFFFFFFFFFFFFFFFFFFFFFFFFFFFFFFFFFFF AND PUSH1 0xA0 DUP2 PUSH20 0xFFFFFFFFFFFFFFFFFFFFFFFFFFFFFFFFFFFFFFFF AND DUP2 MSTORE POP POP POP PUSH3 0x252 JUMP JUMPDEST PUSH1 0x0 DUP1 REVERT JUMPDEST PUSH1 0x0 PUSH20 0xFFFFFFFFFFFFFFFFFFFFFFFFFFFFFFFFFFFFFFFF DUP3 AND SWAP1 POP SWAP2 SWAP1 POP JUMP JUMPDEST PUSH1 0x0 PUSH3 0x165 DUP3 PUSH3 0x138 JUMP JUMPDEST SWAP1 POP SWAP2 SWAP1 POP JUMP JUMPDEST PUSH3 0x177 DUP2 PUSH3 0x158 JUMP JUMPDEST DUP2 EQ PUSH3 0x183 JUMPI PUSH1 0x0 DUP1 REVERT JUMPDEST POP JUMP JUMPDEST PUSH1 0x0 DUP2 MLOAD SWAP1 POP PUSH3 0x197 DUP2 PUSH3 0x16C JUMP JUMPDEST SWAP3 SWAP2 POP POP JUMP JUMPDEST PUSH1 0x0 PUSH1 0x20 DUP3 DUP5 SUB SLT ISZERO PUSH3 0x1B6 JUMPI PUSH3 0x1B5 PUSH3 0x133 JUMP JUMPDEST JUMPDEST PUSH1 0x0 PUSH3 0x1C6 DUP5 DUP3 DUP6 ADD PUSH3 0x186 JUMP JUMPDEST SWAP2 POP POP SWAP3 SWAP2 POP POP JUMP JUMPDEST PUSH1 0x0 DUP3 DUP3 MSTORE PUSH1 0x20 DUP3 ADD SWAP1 POP SWAP3 SWAP2 POP POP JUMP JUMPDEST PUSH32 0x496E76616C6964204E4654206164647265737300000000000000000000000000 PUSH1 0x0 DUP3 ADD MSTORE POP JUMP JUMPDEST PUSH1 0x0 PUSH3 0x218 PUSH1 0x13 DUP4 PUSH3 0x1CF JUMP JUMPDEST SWAP2 POP PUSH3 0x225 DUP3 PUSH3 0x1E0 JUMP JUMPDEST PUSH1 0x20 DUP3 ADD SWAP1 POP SWAP2 SWAP1 POP JUMP JUMPDEST PUSH1 0x0 PUSH1 0x20 DUP3 ADD SWAP1 POP DUP2 DUP2 SUB PUSH1 0x0 DUP4 ADD MSTORE PUSH3 0x24B DUP2 PUSH3 0x209 JUMP JUMPDEST SWAP1 POP SWAP2 SWAP1 POP JUMP JUMPDEST PUSH1 0x80 MLOAD PUSH1 0xA0 MLOAD PUSH2 0x19C9 PUSH3 0x29B PUSH1 0x0 CODECOPY PUSH1 0x0 DUP2 DUP2 PUSH2 0x239 ADD MSTORE PUSH2 0xE63 ADD MSTORE PUSH1 0x0 DUP2 DUP2 PUSH2 0x32F ADD MSTORE DUP2 DUP2 PUSH2 0x704 ADD MSTORE DUP2 DUP2 PUSH2 0x981 ADD MSTORE DUP2 DUP2 PUSH2 0xAB6 ADD MSTORE PUSH2 0xE87 ADD MSTORE PUSH2 0x19C9 PUSH1 0x0 RETURN INVALID PUSH1 0x80 PUSH1 0x40 MSTORE PUSH1 0x4 CALLDATASIZE LT PUSH2 0x86 JUMPI PUSH1 0x0 CALLDATALOAD PUSH1 0xE0 SHR DUP1 PUSH4 0x94383F14 GT PUSH2 0x59 JUMPI DUP1 PUSH4 0x94383F14 EQ PUSH2 0x14D JUMPI DUP1 PUSH4 0xC529DE65 EQ PUSH2 0x176 JUMPI DUP1 PUSH4 0xE0391B09 EQ PUSH2 0x1B6 JUMPI DUP1 PUSH4 0xF851A440 EQ PUSH2 0x1E1 JUMPI DUP1 PUSH4 0xFC0C546A EQ PUSH2 0x20C JUMPI PUSH2 0x86 JUMP JUMPDEST DUP1 PUSH4 0x313E2EB9 EQ PUSH2 0x8B JUMPI DUP1 PUSH4 0x3C1988C5 EQ PUSH2 0xB4 JUMPI DUP1 PUSH4 0x51ED8288 EQ PUSH2 0xF4 JUMPI DUP1 PUSH4 0x576F7EA7 EQ PUSH2 0x110 JUMPI JUMPDEST PUSH1 0x0 DUP1 REVERT JUMPDEST CALLVALUE DUP1 ISZERO PUSH2 0x97 JUMPI PUSH1 0x0 DUP1 REVERT JUMPDEST POP PUSH2 0xB2 PUSH1 0x4 DUP1 CALLDATASIZE SUB DUP2 ADD SWAP1 PUSH2 0xAD SWAP2 SWAP1 PUSH2 0x10ED JUMP JUMPDEST PUSH2 0x237 JUMP JUMPDEST STOP JUMPDEST CALLVALUE DUP1 ISZERO PUSH2 0xC0 JUMPI PUSH1 0x0 DUP1 REVERT JUMPDEST POP PUSH2 0xDB PUSH1 0x4 DUP1 CALLDATASIZE SUB DUP2 ADD SWAP1 PUSH2 0xD6 SWAP2 SWAP1 PUSH2 0x10ED JUMP JUMPDEST PUSH2 0x4B5 JUMP JUMPDEST PUSH1 0x40 MLOAD PUSH2 0xEB SWAP5 SWAP4 SWAP3 SWAP2 SWAP1 PUSH2 0x1185 JUMP JUMPDEST PUSH1 0x40 MLOAD DUP1 SWAP2 SUB SWAP1 RETURN JUMPDEST PUSH2 0x10E PUSH1 0x4 DUP1 CALLDATASIZE SUB DUP2 ADD SWAP1 PUSH2 0x109 SWAP2 SWAP1 PUSH2 0x10ED JUMP JUMPDEST PUSH2 0x512 JUMP JUMPDEST STOP JUMPDEST CALLVALUE DUP1 ISZERO PUSH2 0x11C JUMPI PUSH1 0x0 DUP1 REVERT JUMPDEST POP PUSH2 0x137 PUSH1 0x4 DUP1 CALLDATASIZE SUB DUP2 ADD SWAP1 PUSH2 0x132 SWAP2 SWAP1 PUSH2 0x10ED JUMP JUMPDEST PUSH2 0x8B6 JUMP JUMPDEST PUSH1 0x40 MLOAD PUSH2 0x144 SWAP2 SWAP1 PUSH2 0x124C JUMP JUMPDEST PUSH1 0x40 MLOAD DUP1 SWAP2 SUB SWAP1 RETURN JUMPDEST CALLVALUE DUP1 ISZERO PUSH2 0x159 JUMPI PUSH1 0x0 DUP1 REVERT JUMPDEST POP PUSH2 0x174 PUSH1 0x4 DUP1 CALLDATASIZE SUB DUP2 ADD SWAP1 PUSH2 0x16F SWAP2 SWAP1 PUSH2 0x1267 JUMP JUMPDEST PUSH2 0x967 JUMP JUMPDEST STOP JUMPDEST CALLVALUE DUP1 ISZERO PUSH2 0x182 JUMPI PUSH1 0x0 DUP1 REVERT JUMPDEST POP PUSH2 0x19D PUSH1 0x4 DUP1 CALLDATASIZE SUB DUP2 ADD SWAP1 PUSH2 0x198 SWAP2 SWAP1 PUSH2 0x10ED JUMP JUMPDEST PUSH2 0xD10 JUMP JUMPDEST PUSH1 0x40 MLOAD PUSH2 0x1AD SWAP5 SWAP4 SWAP3 SWAP2 SWAP1 PUSH2 0x1185 JUMP JUMPDEST PUSH1 0x40 MLOAD DUP1 SWAP2 SUB SWAP1 RETURN JUMPDEST CALLVALUE DUP1 ISZERO PUSH2 0x1C2 JUMPI PUSH1 0x0 DUP1 REVERT JUMPDEST POP PUSH2 0x1CB PUSH2 0xD7D JUMP JUMPDEST PUSH1 0x40 MLOAD PUSH2 0x1D8 SWAP2 SWAP1 PUSH2 0x13AB JUMP JUMPDEST PUSH1 0x40 MLOAD DUP1 SWAP2 SUB SWAP1 RETURN JUMPDEST CALLVALUE DUP1 ISZERO PUSH2 0x1ED JUMPI PUSH1 0x0 DUP1 REVERT JUMPDEST POP PUSH2 0x1F6 PUSH2 0xE61 JUMP JUMPDEST PUSH1 0x40 MLOAD PUSH2 0x203 SWAP2 SWAP1 PUSH2 0x13CD JUMP JUMPDEST PUSH1 0x40 MLOAD DUP1 SWAP2 SUB SWAP1 RETURN JUMPDEST CALLVALUE DUP1 ISZERO PUSH2 0x218 JUMPI PUSH1 0x0 DUP1 REVERT JUMPDEST POP PUSH2 0x221 PUSH2 0xE85 JUMP JUMPDEST PUSH1 0x40 MLOAD PUSH2 0x22E SWAP2 SWAP1 PUSH2 0x1447 JUMP JUMPDEST PUSH1 0x40 MLOAD DUP1 SWAP2 SUB SWAP1 RETURN JUMPDEST PUSH32 0x0 PUSH20 0xFFFFFFFFFFFFFFFFFFFFFFFFFFFFFFFFFFFFFFFF AND CALLER PUSH20 0xFFFFFFFFFFFFFFFFFFFFFFFFFFFFFFFFFFFFFFFF AND EQ PUSH2 0x2C5 JUMPI PUSH1 0x40 MLOAD PUSH32 0x8C379A000000000000000000000000000000000000000000000000000000000 DUP2 MSTORE PUSH1 0x4 ADD PUSH2 0x2BC SWAP1 PUSH2 0x14BF JUMP JUMPDEST PUSH1 0x40 MLOAD DUP1 SWAP2 SUB SWAP1 REVERT JUMPDEST PUSH1 0x0 DUP1 PUSH1 0x0 DUP4 DUP2 MSTORE PUSH1 0x20 ADD SWAP1 DUP2 MSTORE PUSH1 0x20 ADD PUSH1 0x0 KECCAK256 SWAP1 POP DUP1 PUSH1 0x3 ADD PUSH1 0x0 SWAP1 SLOAD SWAP1 PUSH2 0x100 EXP SWAP1 DIV PUSH1 0xFF AND ISZERO PUSH2 0x32D JUMPI PUSH1 0x40 MLOAD PUSH32 0x8C379A000000000000000000000000000000000000000000000000000000000 DUP2 MSTORE PUSH1 0x4 ADD PUSH2 0x324 SWAP1 PUSH2 0x152B JUMP JUMPDEST PUSH1 0x40 MLOAD DUP1 SWAP2 SUB SWAP1 REVERT JUMPDEST PUSH32 0x0 PUSH20 0xFFFFFFFFFFFFFFFFFFFFFFFFFFFFFFFFFFFFFFFF AND PUSH4 0x42842E0E ADDRESS DUP4 PUSH1 0x1 ADD PUSH1 0x0 SWAP1 SLOAD SWAP1 PUSH2 0x100 EXP SWAP1 DIV PUSH20 0xFFFFFFFFFFFFFFFFFFFFFFFFFFFFFFFFFFFFFFFF AND DUP6 PUSH1 0x40 MLOAD DUP5 PUSH4 0xFFFFFFFF AND PUSH1 0xE0 SHL DUP2 MSTORE PUSH1 0x4 ADD PUSH2 0x3AE SWAP4 SWAP3 SWAP2 SWAP1 PUSH2 0x154B JUMP JUMPDEST PUSH1 0x0 PUSH1 0x40 MLOAD DUP1 DUP4 SUB DUP2 PUSH1 0x0 DUP8 DUP1 EXTCODESIZE ISZERO DUP1 ISZERO PUSH2 0x3C8 JUMPI PUSH1 0x0 DUP1 REVERT JUMPDEST POP GAS CALL ISZERO DUP1 ISZERO PUSH2 0x3DC JUMPI RETURNDATASIZE PUSH1 0x0 DUP1 RETURNDATACOPY RETURNDATASIZE PUSH1 0x0 REVERT JUMPDEST POP POP POP POP DUP1 PUSH1 0x1 ADD PUSH1 0x0 SWAP1 SLOAD SWAP1 PUSH2 0x100 EXP SWAP1 DIV PUSH20 0xFFFFFFFFFFFFFFFFFFFFFFFFFFFFFFFFFFFFFFFF AND PUSH20 0xFFFFFFFFFFFFFFFFFFFFFFFFFFFFFFFFFFFFFFFF AND DUP3 PUSH32 0x15E2682218CEABB830EBFC19AA0DF5AA866D8E78629AB45780AAF3D8DB4F1259 PUSH1 0x40 MLOAD PUSH1 0x40 MLOAD DUP1 SWAP2 SUB SWAP1 LOG3 PUSH2 0x451 DUP3 PUSH2 0xEA9 JUMP JUMPDEST PUSH1 0x0 DUP1 DUP4 DUP2 MSTORE PUSH1 0x20 ADD SWAP1 DUP2 MSTORE PUSH1 0x20 ADD PUSH1 0x0 KECCAK256 PUSH1 0x0 DUP1 DUP3 ADD PUSH1 0x0 SWAP1 SSTORE PUSH1 0x1 DUP3 ADD PUSH1 0x0 PUSH2 0x100 EXP DUP2 SLOAD SWAP1 PUSH20 0xFFFFFFFFFFFFFFFFFFFFFFFFFFFFFFFFFFFFFFFF MUL NOT AND SWAP1 SSTORE PUSH1 0x2 DUP3 ADD PUSH1 0x0 SWAP1 SSTORE PUSH1 0x3 DUP3 ADD PUSH1 0x0 PUSH2 0x100 EXP DUP2 SLOAD SWAP1 PUSH1 0xFF MUL NOT AND SWAP1 SSTORE POP POP POP POP JUMP JUMPDEST PUSH1 0x0 PUSH1 0x20 MSTORE DUP1 PUSH1 0x0 MSTORE PUSH1 0x40 PUSH1 0x0 KECCAK256 PUSH1 0x0 SWAP2 POP SWAP1 POP DUP1 PUSH1 0x0 ADD SLOAD SWAP1 DUP1 PUSH1 0x1 ADD PUSH1 0x0 SWAP1 SLOAD SWAP1 PUSH2 0x100 EXP SWAP1 DIV PUSH20 0xFFFFFFFFFFFFFFFFFFFFFFFFFFFFFFFFFFFFFFFF AND SWAP1 DUP1 PUSH1 0x2 ADD SLOAD SWAP1 DUP1 PUSH1 0x3 ADD PUSH1 0x0 SWAP1 SLOAD SWAP1 PUSH2 0x100 EXP SWAP1 DIV PUSH1 0xFF AND SWAP1 POP DUP5 JUMP JUMPDEST PUSH1 0x1 PUSH1 0x0 SWAP1 SLOAD SWAP1 PUSH2 0x100 EXP SWAP1 DIV PUSH1 0xFF AND ISZERO PUSH2 0x562 JUMPI PUSH1 0x40 MLOAD PUSH32 0x8C379A000000000000000000000000000000000000000000000000000000000 DUP2 MSTORE PUSH1 0x4 ADD PUSH2 0x559 SWAP1 PUSH2 0x15CE JUMP JUMPDEST PUSH1 0x40 MLOAD DUP1 SWAP2 SUB SWAP1 REVERT JUMPDEST PUSH1 0x1 DUP1 PUSH1 0x0 PUSH2 0x100 EXP DUP2 SLOAD DUP2 PUSH1 0xFF MUL NOT AND SWAP1 DUP4 ISZERO ISZERO MUL OR SWAP1 SSTORE POP PUSH1 0x0 DUP1 PUSH1 0x0 DUP4 DUP2 MSTORE PUSH1 0x20 ADD SWAP1 DUP2 MSTORE PUSH1 0x20 ADD PUSH1 0x0 KECCAK256 SWAP1 POP DUP1 PUSH1 0x3 ADD PUSH1 0x0 SWAP1 SLOAD SWAP1 PUSH2 0x100 EXP SWAP1 DIV PUSH1 0xFF AND ISZERO PUSH2 0x5E4 JUMPI PUSH1 0x40 MLOAD PUSH32 0x8C379A000000000000000000000000000000000000000000000000000000000 DUP2 MSTORE PUSH1 0x4 ADD PUSH2 0x5DB SWAP1 PUSH2 0x152B JUMP JUMPDEST PUSH1 0x40 MLOAD DUP1 SWAP2 SUB SWAP1 REVERT JUMPDEST CALLVALUE DUP2 PUSH1 0x2 ADD SLOAD EQ PUSH2 0x62A JUMPI PUSH1 0x40 MLOAD PUSH32 0x8C379A000000000000000000000000000000000000000000000000000000000 DUP2 MSTORE PUSH1 0x4 ADD PUSH2 0x621 SWAP1 PUSH2 0x163A JUMP JUMPDEST PUSH1 0x40 MLOAD DUP1 SWAP2 SUB SWAP1 REVERT JUMPDEST CALLER PUSH20 0xFFFFFFFFFFFFFFFFFFFFFFFFFFFFFFFFFFFFFFFF AND DUP2 PUSH1 0x1 ADD PUSH1 0x0 SWAP1 SLOAD SWAP1 PUSH2 0x100 EXP SWAP1 DIV PUSH20 0xFFFFFFFFFFFFFFFFFFFFFFFFFFFFFFFFFFFFFFFF AND PUSH20 0xFFFFFFFFFFFFFFFFFFFFFFFFFFFFFFFFFFFFFFFF AND SUB PUSH2 0x6BC JUMPI PUSH1 0x40 MLOAD PUSH32 0x8C379A000000000000000000000000000000000000000000000000000000000 DUP2 MSTORE PUSH1 0x4 ADD PUSH2 0x6B3 SWAP1 PUSH2 0x16A6 JUMP JUMPDEST PUSH1 0x40 MLOAD DUP1 SWAP2 SUB SWAP1 REVERT JUMPDEST PUSH1 0x1 DUP2 PUSH1 0x3 ADD PUSH1 0x0 PUSH2 0x100 EXP DUP2 SLOAD DUP2 PUSH1 0xFF MUL NOT AND SWAP1 DUP4 ISZERO ISZERO MUL OR SWAP1 SSTORE POP PUSH1 0x0 DUP2 PUSH1 0x1 ADD PUSH1 0x0 SWAP1 SLOAD SWAP1 PUSH2 0x100 EXP SWAP1 DIV PUSH20 0xFFFFFFFFFFFFFFFFFFFFFFFFFFFFFFFFFFFFFFFF AND SWAP1 POP PUSH32 0x0 PUSH20 0xFFFFFFFFFFFFFFFFFFFFFFFFFFFFFFFFFFFFFFFF AND PUSH4 0x42842E0E ADDRESS CALLER DUP7 PUSH1 0x40 MLOAD DUP5 PUSH4 0xFFFFFFFF AND PUSH1 0xE0 SHL DUP2 MSTORE PUSH1 0x4 ADD PUSH2 0x75F SWAP4 SWAP3 SWAP2 SWAP1 PUSH2 0x154B JUMP JUMPDEST PUSH1 0x0 PUSH1 0x40 MLOAD DUP1 DUP4 SUB DUP2 PUSH1 0x0 DUP8 DUP1 EXTCODESIZE ISZERO DUP1 ISZERO PUSH2 0x779 JUMPI PUSH1 0x0 DUP1 REVERT JUMPDEST POP GAS CALL ISZERO DUP1 ISZERO PUSH2 0x78D JUMPI RETURNDATASIZE PUSH1 0x0 DUP1 RETURNDATACOPY RETURNDATASIZE PUSH1 0x0 REVERT JUMPDEST POP POP POP POP PUSH1 0x0 DUP2 PUSH20 0xFFFFFFFFFFFFFFFFFFFFFFFFFFFFFFFFFFFFFFFF AND CALLVALUE PUSH1 0x40 MLOAD PUSH2 0x7B7 SWAP1 PUSH2 0x16F7 JUMP JUMPDEST PUSH1 0x0 PUSH1 0x40 MLOAD DUP1 DUP4 SUB DUP2 DUP6 DUP8 GAS CALL SWAP3 POP POP POP RETURNDATASIZE DUP1 PUSH1 0x0 DUP2 EQ PUSH2 0x7F4 JUMPI PUSH1 0x40 MLOAD SWAP2 POP PUSH1 0x1F NOT PUSH1 0x3F RETURNDATASIZE ADD AND DUP3 ADD PUSH1 0x40 MSTORE RETURNDATASIZE DUP3 MSTORE RETURNDATASIZE PUSH1 0x0 PUSH1 0x20 DUP5 ADD RETURNDATACOPY PUSH2 0x7F9 JUMP JUMPDEST PUSH1 0x60 SWAP2 POP JUMPDEST POP POP SWAP1 POP DUP1 PUSH2 0x83D JUMPI PUSH1 0x40 MLOAD PUSH32 0x8C379A000000000000000000000000000000000000000000000000000000000 DUP2 MSTORE PUSH1 0x4 ADD PUSH2 0x834 SWAP1 PUSH2 0x1758 JUMP JUMPDEST PUSH1 0x40 MLOAD DUP1 SWAP2 SUB SWAP1 REVERT JUMPDEST CALLER PUSH20 0xFFFFFFFFFFFFFFFFFFFFFFFFFFFFFFFFFFFFFFFF AND DUP5 PUSH32 0x6329E40C0365262EBBFF5CA819385C2B9713DCAA050ED07866D72C441395699A CALLVALUE PUSH1 0x40 MLOAD PUSH2 0x884 SWAP2 SWAP1 PUSH2 0x1778 JUMP JUMPDEST PUSH1 0x40 MLOAD DUP1 SWAP2 SUB SWAP1 LOG3 PUSH2 0x895 DUP5 PUSH2 0xEA9 JUMP JUMPDEST POP POP POP PUSH1 0x0 PUSH1 0x1 PUSH1 0x0 PUSH2 0x100 EXP DUP2 SLOAD DUP2 PUSH1 0xFF MUL NOT AND SWAP1 DUP4 ISZERO ISZERO MUL OR SWAP1 SSTORE POP POP JUMP JUMPDEST PUSH2 0x8BE PUSH2 0x1072 JUMP JUMPDEST PUSH1 0x0 DUP1 DUP4 DUP2 MSTORE PUSH1 0x20 ADD SWAP1 DUP2 MSTORE PUSH1 0x20 ADD PUSH1 0x0 KECCAK256 PUSH1 0x40 MLOAD DUP1 PUSH1 0x80 ADD PUSH1 0x40 MSTORE SWAP1 DUP2 PUSH1 0x0 DUP3 ADD SLOAD DUP2 MSTORE PUSH1 0x20 ADD PUSH1 0x1 DUP3 ADD PUSH1 0x0 SWAP1 SLOAD SWAP1 PUSH2 0x100 EXP SWAP1 DIV PUSH20 0xFFFFFFFFFFFFFFFFFFFFFFFFFFFFFFFFFFFFFFFF AND PUSH20 0xFFFFFFFFFFFFFFFFFFFFFFFFFFFFFFFFFFFFFFFF AND PUSH20 0xFFFFFFFFFFFFFFFFFFFFFFFFFFFFFFFFFFFFFFFF AND DUP2 MSTORE PUSH1 0x20 ADD PUSH1 0x2 DUP3 ADD SLOAD DUP2 MSTORE PUSH1 0x20 ADD PUSH1 0x3 DUP3 ADD PUSH1 0x0 SWAP1 SLOAD SWAP1 PUSH2 0x100 EXP SWAP1 DIV PUSH1 0xFF AND ISZERO ISZERO ISZERO ISZERO DUP2 MSTORE POP POP SWAP1 POP SWAP2 SWAP1 POP JUMP JUMPDEST DUP2 CALLER PUSH20 0xFFFFFFFFFFFFFFFFFFFFFFFFFFFFFFFFFFFFFFFF AND PUSH32 0x0 PUSH20 0xFFFFFFFFFFFFFFFFFFFFFFFFFFFFFFFFFFFFFFFF AND PUSH4 0x6352211E DUP4 PUSH1 0x40 MLOAD DUP3 PUSH4 0xFFFFFFFF AND PUSH1 0xE0 SHL DUP2 MSTORE PUSH1 0x4 ADD PUSH2 0x9D8 SWAP2 SWAP1 PUSH2 0x1778 JUMP JUMPDEST PUSH1 0x20 PUSH1 0x40 MLOAD DUP1 DUP4 SUB DUP2 DUP7 GAS STATICCALL ISZERO DUP1 ISZERO PUSH2 0x9F5 JUMPI RETURNDATASIZE PUSH1 0x0 DUP1 RETURNDATACOPY RETURNDATASIZE PUSH1 0x0 REVERT JUMPDEST POP POP POP POP PUSH1 0x40 MLOAD RETURNDATASIZE PUSH1 0x1F NOT PUSH1 0x1F DUP3 ADD AND DUP3 ADD DUP1 PUSH1 0x40 MSTORE POP DUP2 ADD SWAP1 PUSH2 0xA19 SWAP2 SWAP1 PUSH2 0x17BF JUMP JUMPDEST PUSH20 0xFFFFFFFFFFFFFFFFFFFFFFFFFFFFFFFFFFFFFFFF AND EQ PUSH2 0xA6F JUMPI PUSH1 0x40 MLOAD PUSH32 0x8C379A000000000000000000000000000000000000000000000000000000000 DUP2 MSTORE PUSH1 0x4 ADD PUSH2 0xA66 SWAP1 PUSH2 0x1838 JUMP JUMPDEST PUSH1 0x40 MLOAD DUP1 SWAP2 SUB SWAP1 REVERT JUMPDEST PUSH1 0x0 DUP3 GT PUSH2 0xAB4 JUMPI DUP2 PUSH1 0x40 MLOAD PUSH32 0x75E333CB00000000000000000000000000000000000000000000000000000000 DUP2 MSTORE PUSH1 0x4 ADD PUSH2 0xAAB SWAP2 SWAP1 PUSH2 0x18A4 JUMP JUMPDEST PUSH1 0x40 MLOAD DUP1 SWAP2 SUB SWAP1 REVERT JUMPDEST PUSH32 0x0 PUSH20 0xFFFFFFFFFFFFFFFFFFFFFFFFFFFFFFFFFFFFFFFF AND PUSH4 0x23B872DD CALLER ADDRESS DUP7 PUSH1 0x40 MLOAD DUP5 PUSH4 0xFFFFFFFF AND PUSH1 0xE0 SHL DUP2 MSTORE PUSH1 0x4 ADD PUSH2 0xB11 SWAP4 SWAP3 SWAP2 SWAP1 PUSH2 0x154B JUMP JUMPDEST PUSH1 0x0 PUSH1 0x40 MLOAD DUP1 DUP4 SUB DUP2 PUSH1 0x0 DUP8 DUP1 EXTCODESIZE ISZERO DUP1 ISZERO PUSH2 0xB2B JUMPI PUSH1 0x0 DUP1 REVERT JUMPDEST POP GAS CALL ISZERO DUP1 ISZERO PUSH2 0xB3F JUMPI RETURNDATASIZE PUSH1 0x0 DUP1 RETURNDATACOPY RETURNDATASIZE PUSH1 0x0 REVERT JUMPDEST POP POP POP POP PUSH1 0x0 PUSH1 0x40 MLOAD DUP1 PUSH1 0x80 ADD PUSH1 0x40 MSTORE DUP1 DUP6 DUP2 MSTORE PUSH1 0x20 ADD CALLER PUSH20 0xFFFFFFFFFFFFFFFFFFFFFFFFFFFFFFFFFFFFFFFF AND DUP2 MSTORE PUSH1 0x20 ADD DUP5 DUP2 MSTORE PUSH1 0x20 ADD PUSH1 0x0 ISZERO ISZERO DUP2 MSTORE POP SWAP1 POP PUSH1 0x2 DUP2 SWAP1 DUP1 PUSH1 0x1 DUP2 SLOAD ADD DUP1 DUP3 SSTORE DUP1 SWAP2 POP POP PUSH1 0x1 SWAP1 SUB SWAP1 PUSH1 0x0 MSTORE PUSH1 0x20 PUSH1 0x0 KECCAK256 SWAP1 PUSH1 0x4 MUL ADD PUSH1 0x0 SWAP1 SWAP2 SWAP1 SWAP2 SWAP1 SWAP2 POP PUSH1 0x0 DUP3 ADD MLOAD DUP2 PUSH1 0x0 ADD SSTORE PUSH1 0x20 DUP3 ADD MLOAD DUP2 PUSH1 0x1 ADD PUSH1 0x0 PUSH2 0x100 EXP DUP2 SLOAD DUP2 PUSH20 0xFFFFFFFFFFFFFFFFFFFFFFFFFFFFFFFFFFFFFFFF MUL NOT AND SWAP1 DUP4 PUSH20 0xFFFFFFFFFFFFFFFFFFFFFFFFFFFFFFFFFFFFFFFF AND MUL OR SWAP1 SSTORE POP PUSH1 0x40 DUP3 ADD MLOAD DUP2 PUSH1 0x2 ADD SSTORE PUSH1 0x60 DUP3 ADD MLOAD DUP2 PUSH1 0x3 ADD PUSH1 0x0 PUSH2 0x100 EXP DUP2 SLOAD DUP2 PUSH1 0xFF MUL NOT AND SWAP1 DUP4 ISZERO ISZERO MUL OR SWAP1 SSTORE POP POP POP DUP1 PUSH1 0x0 DUP1 DUP7 DUP2 MSTORE PUSH1 0x20 ADD SWAP1 DUP2 MSTORE PUSH1 0x20 ADD PUSH1 0x0 KECCAK256 PUSH1 0x0 DUP3 ADD MLOAD DUP2 PUSH1 0x0 ADD SSTORE PUSH1 0x20 DUP3 ADD MLOAD DUP2 PUSH1 0x1 ADD PUSH1 0x0 PUSH2 0x100 EXP DUP2 SLOAD DUP2 PUSH20 0xFFFFFFFFFFFFFFFFFFFFFFFFFFFFFFFFFFFFFFFF MUL NOT AND SWAP1 DUP4 PUSH20 0xFFFFFFFFFFFFFFFFFFFFFFFFFFFFFFFFFFFFFFFF AND MUL OR SWAP1 SSTORE POP PUSH1 0x40 DUP3 ADD MLOAD DUP2 PUSH1 0x2 ADD SSTORE PUSH1 0x60 DUP3 ADD MLOAD DUP2 PUSH1 0x3 ADD PUSH1 0x0 PUSH2 0x100 EXP DUP2 SLOAD DUP2 PUSH1 0xFF MUL NOT AND SWAP1 DUP4 ISZERO ISZERO MUL OR SWAP1 SSTORE POP SWAP1 POP POP CALLER PUSH20 0xFFFFFFFFFFFFFFFFFFFFFFFFFFFFFFFFFFFFFFFF AND DUP5 PUSH32 0x5F9C03DE076F5063CD3EBCFE8EF7AA8AF378E4B35A83C77BA9777E97083879A2 DUP6 PUSH1 0x40 MLOAD PUSH2 0xD02 SWAP2 SWAP1 PUSH2 0x1778 JUMP JUMPDEST PUSH1 0x40 MLOAD DUP1 SWAP2 SUB SWAP1 LOG3 POP POP POP POP JUMP JUMPDEST PUSH1 0x2 DUP2 DUP2 SLOAD DUP2 LT PUSH2 0xD20 JUMPI PUSH1 0x0 DUP1 REVERT JUMPDEST SWAP1 PUSH1 0x0 MSTORE PUSH1 0x20 PUSH1 0x0 KECCAK256 SWAP1 PUSH1 0x4 MUL ADD PUSH1 0x0 SWAP2 POP SWAP1 POP DUP1 PUSH1 0x0 ADD SLOAD SWAP1 DUP1 PUSH1 0x1 ADD PUSH1 0x0 SWAP1 SLOAD SWAP1 PUSH2 0x100 EXP SWAP1 DIV PUSH20 0xFFFFFFFFFFFFFFFFFFFFFFFFFFFFFFFFFFFFFFFF AND SWAP1 DUP1 PUSH1 0x2 ADD SLOAD SWAP1 DUP1 PUSH1 0x3 ADD PUSH1 0x0 SWAP1 SLOAD SWAP1 PUSH2 0x100 EXP SWAP1 DIV PUSH1 0xFF AND SWAP1 POP DUP5 JUMP JUMPDEST PUSH1 0x60 PUSH1 0x2 DUP1 SLOAD DUP1 PUSH1 0x20 MUL PUSH1 0x20 ADD PUSH1 0x40 MLOAD SWAP1 DUP2 ADD PUSH1 0x40 MSTORE DUP1 SWAP3 SWAP2 SWAP1 DUP2 DUP2 MSTORE PUSH1 0x20 ADD PUSH1 0x0 SWAP1 JUMPDEST DUP3 DUP3 LT ISZERO PUSH2 0xE58 JUMPI DUP4 DUP3 SWAP1 PUSH1 0x0 MSTORE PUSH1 0x20 PUSH1 0x0 KECCAK256 SWAP1 PUSH1 0x4 MUL ADD PUSH1 0x40 MLOAD DUP1 PUSH1 0x80 ADD PUSH1 0x40 MSTORE SWAP1 DUP2 PUSH1 0x0 DUP3 ADD SLOAD DUP2 MSTORE PUSH1 0x20 ADD PUSH1 0x1 DUP3 ADD PUSH1 0x0 SWAP1 SLOAD SWAP1 PUSH2 0x100 EXP SWAP1 DIV PUSH20 0xFFFFFFFFFFFFFFFFFFFFFFFFFFFFFFFFFFFFFFFF AND PUSH20 0xFFFFFFFFFFFFFFFFFFFFFFFFFFFFFFFFFFFFFFFF AND PUSH20 0xFFFFFFFFFFFFFFFFFFFFFFFFFFFFFFFFFFFFFFFF AND DUP2 MSTORE PUSH1 0x20 ADD PUSH1 0x2 DUP3 ADD SLOAD DUP2 MSTORE PUSH1 0x20 ADD PUSH1 0x3 DUP3 ADD PUSH1 0x0 SWAP1 SLOAD SWAP1 PUSH2 0x100 EXP SWAP1 DIV PUSH1 0xFF AND ISZERO ISZERO ISZERO ISZERO DUP2 MSTORE POP POP DUP2 MSTORE PUSH1 0x20 ADD SWAP1 PUSH1 0x1 ADD SWAP1 PUSH2 0xDA1 JUMP JUMPDEST POP POP POP POP SWAP1 POP SWAP1 JUMP JUMPDEST PUSH32 0x0 DUP2 JUMP JUMPDEST PUSH32 0x0 DUP2 JUMP JUMPDEST PUSH1 0x0 PUSH1 0x2 DUP1 SLOAD SWAP1 POP SWAP1 POP PUSH1 0x0 JUMPDEST DUP2 DUP2 LT ISZERO PUSH2 0x106D JUMPI DUP3 PUSH1 0x2 DUP3 DUP2 SLOAD DUP2 LT PUSH2 0xED3 JUMPI PUSH2 0xED2 PUSH2 0x18D2 JUMP JUMPDEST JUMPDEST SWAP1 PUSH1 0x0 MSTORE PUSH1 0x20 PUSH1 0x0 KECCAK256 SWAP1 PUSH1 0x4 MUL ADD PUSH1 0x0 ADD SLOAD SUB PUSH2 0x1060 JUMPI PUSH1 0x2 PUSH1 0x1 DUP4 PUSH2 0xEF9 SWAP2 SWAP1 PUSH2 0x1930 JUMP JUMPDEST DUP2 SLOAD DUP2 LT PUSH2 0xF0A JUMPI PUSH2 0xF09 PUSH2 0x18D2 JUMP JUMPDEST JUMPDEST SWAP1 PUSH1 0x0 MSTORE PUSH1 0x20 PUSH1 0x0 KECCAK256 SWAP1 PUSH1 0x4 MUL ADD PUSH1 0x2 DUP3 DUP2 SLOAD DUP2 LT PUSH2 0xF2C JUMPI PUSH2 0xF2B PUSH2 0x18D2 JUMP JUMPDEST JUMPDEST SWAP1 PUSH1 0x0 MSTORE PUSH1 0x20 PUSH1 0x0 KECCAK256 SWAP1 PUSH1 0x4 MUL ADD PUSH1 0x0 DUP3 ADD SLOAD DUP2 PUSH1 0x0 ADD SSTORE PUSH1 0x1 DUP3 ADD PUSH1 0x0 SWAP1 SLOAD SWAP1 PUSH2 0x100 EXP SWAP1 DIV PUSH20 0xFFFFFFFFFFFFFFFFFFFFFFFFFFFFFFFFFFFFFFFF AND DUP2 PUSH1 0x1 ADD PUSH1 0x0 PUSH2 0x100 EXP DUP2 SLOAD DUP2 PUSH20 0xFFFFFFFFFFFFFFFFFFFFFFFFFFFFFFFFFFFFFFFF MUL NOT AND SWAP1 DUP4 PUSH20 0xFFFFFFFFFFFFFFFFFFFFFFFFFFFFFFFFFFFFFFFF AND MUL OR SWAP1 SSTORE POP PUSH1 0x2 DUP3 ADD SLOAD DUP2 PUSH1 0x2 ADD SSTORE PUSH1 0x3 DUP3 ADD PUSH1 0x0 SWAP1 SLOAD SWAP1 PUSH2 0x100 EXP SWAP1 DIV PUSH1 0xFF AND DUP2 PUSH1 0x3 ADD PUSH1 0x0 PUSH2 0x100 EXP DUP2 SLOAD DUP2 PUSH1 0xFF MUL NOT AND SWAP1 DUP4 ISZERO ISZERO MUL OR SWAP1 SSTORE POP SWAP1 POP POP PUSH1 0x2 DUP1 SLOAD DUP1 PUSH2 0xFF7 JUMPI PUSH2 0xFF6 PUSH2 0x1964 JUMP JUMPDEST JUMPDEST PUSH1 0x1 SWAP1 SUB DUP2 DUP2 SWAP1 PUSH1 0x0 MSTORE PUSH1 0x20 PUSH1 0x0 KECCAK256 SWAP1 PUSH1 0x4 MUL ADD PUSH1 0x0 DUP1 DUP3 ADD PUSH1 0x0 SWAP1 SSTORE PUSH1 0x1 DUP3 ADD PUSH1 0x0 PUSH2 0x100 EXP DUP2 SLOAD SWAP1 PUSH20 0xFFFFFFFFFFFFFFFFFFFFFFFFFFFFFFFFFFFFFFFF MUL NOT AND SWAP1 SSTORE PUSH1 0x2 DUP3 ADD PUSH1 0x0 SWAP1 SSTORE PUSH1 0x3 DUP3 ADD PUSH1 0x0 PUSH2 0x100 EXP DUP2 SLOAD SWAP1 PUSH1 0xFF MUL NOT AND SWAP1 SSTORE POP POP SWAP1 SSTORE PUSH2 0x106D JUMP JUMPDEST DUP1 DUP1 PUSH1 0x1 ADD SWAP2 POP POP PUSH2 0xEB6 JUMP JUMPDEST POP POP POP JUMP JUMPDEST PUSH1 0x40 MLOAD DUP1 PUSH1 0x80 ADD PUSH1 0x40 MSTORE DUP1 PUSH1 0x0 DUP2 MSTORE PUSH1 0x20 ADD PUSH1 0x0 PUSH20 0xFFFFFFFFFFFFFFFFFFFFFFFFFFFFFFFFFFFFFFFF AND DUP2 MSTORE PUSH1 0x20 ADD PUSH1 0x0 DUP2 MSTORE PUSH1 0x20 ADD PUSH1 0x0 ISZERO ISZERO DUP2 MSTORE POP SWAP1 JUMP JUMPDEST PUSH1 0x0 DUP1 REVERT JUMPDEST PUSH1 0x0 DUP2 SWAP1 POP SWAP2 SWAP1 POP JUMP JUMPDEST PUSH2 0x10CA DUP2 PUSH2 0x10B7 JUMP JUMPDEST DUP2 EQ PUSH2 0x10D5 JUMPI PUSH1 0x0 DUP1 REVERT JUMPDEST POP JUMP JUMPDEST PUSH1 0x0 DUP2 CALLDATALOAD SWAP1 POP PUSH2 0x10E7 DUP2 PUSH2 0x10C1 JUMP JUMPDEST SWAP3 SWAP2 POP POP JUMP JUMPDEST PUSH1 0x0 PUSH1 0x20 DUP3 DUP5 SUB SLT ISZERO PUSH2 0x1103 JUMPI PUSH2 0x1102 PUSH2 0x10B2 JUMP JUMPDEST JUMPDEST PUSH1 0x0 PUSH2 0x1111 DUP5 DUP3 DUP6 ADD PUSH2 0x10D8 JUMP JUMPDEST SWAP2 POP POP SWAP3 SWAP2 POP POP JUMP JUMPDEST PUSH2 0x1123 DUP2 PUSH2 0x10B7 JUMP JUMPDEST DUP3 MSTORE POP POP JUMP JUMPDEST PUSH1 0x0 PUSH20 0xFFFFFFFFFFFFFFFFFFFFFFFFFFFFFFFFFFFFFFFF DUP3 AND SWAP1 POP SWAP2 SWAP1 POP JUMP JUMPDEST PUSH1 0x0 PUSH2 0x1154 DUP3 PUSH2 0x1129 JUMP JUMPDEST SWAP1 POP SWAP2 SWAP1 POP JUMP JUMPDEST PUSH2 0x1164 DUP2 PUSH2 0x1149 JUMP JUMPDEST DUP3 MSTORE POP POP JUMP JUMPDEST PUSH1 0x0 DUP2 ISZERO ISZERO SWAP1 POP SWAP2 SWAP1 POP JUMP JUMPDEST PUSH2 0x117F DUP2 PUSH2 0x116A JUMP JUMPDEST DUP3 MSTORE POP POP JUMP JUMPDEST PUSH1 0x0 PUSH1 0x80 DUP3 ADD SWAP1 POP PUSH2 0x119A PUSH1 0x0 DUP4 ADD DUP8 PUSH2 0x111A JUMP JUMPDEST PUSH2 0x11A7 PUSH1 0x20 DUP4 ADD DUP7 PUSH2 0x115B JUMP JUMPDEST PUSH2 0x11B4 PUSH1 0x40 DUP4 ADD DUP6 PUSH2 0x111A JUMP JUMPDEST PUSH2 0x11C1 PUSH1 0x60 DUP4 ADD DUP5 PUSH2 0x1176 JUMP JUMPDEST SWAP6 SWAP5 POP POP POP POP POP JUMP JUMPDEST PUSH2 0x11D3 DUP2 PUSH2 0x10B7 JUMP JUMPDEST DUP3 MSTORE POP POP JUMP JUMPDEST PUSH2 0x11E2 DUP2 PUSH2 0x1149 JUMP JUMPDEST DUP3 MSTORE POP POP JUMP JUMPDEST PUSH2 0x11F1 DUP2 PUSH2 0x116A JUMP JUMPDEST DUP3 MSTORE POP POP JUMP JUMPDEST PUSH1 0x80 DUP3 ADD PUSH1 0x0 DUP3 ADD MLOAD PUSH2 0x120D PUSH1 0x0 DUP6 ADD DUP3 PUSH2 0x11CA JUMP JUMPDEST POP PUSH1 0x20 DUP3 ADD MLOAD PUSH2 0x1220 PUSH1 0x20 DUP6 ADD DUP3 PUSH2 0x11D9 JUMP JUMPDEST POP PUSH1 0x40 DUP3 ADD MLOAD PUSH2 0x1233 PUSH1 0x40 DUP6 ADD DUP3 PUSH2 0x11CA JUMP JUMPDEST POP PUSH1 0x60 DUP3 ADD MLOAD PUSH2 0x1246 PUSH1 0x60 DUP6 ADD DUP3 PUSH2 0x11E8 JUMP JUMPDEST POP POP POP POP JUMP JUMPDEST PUSH1 0x0 PUSH1 0x80 DUP3 ADD SWAP1 POP PUSH2 0x1261 PUSH1 0x0 DUP4 ADD DUP5 PUSH2 0x11F7 JUMP JUMPDEST SWAP3 SWAP2 POP POP JUMP JUMPDEST PUSH1 0x0 DUP1 PUSH1 0x40 DUP4 DUP6 SUB SLT ISZERO PUSH2 0x127E JUMPI PUSH2 0x127D PUSH2 0x10B2 JUMP JUMPDEST JUMPDEST PUSH1 0x0 PUSH2 0x128C DUP6 DUP3 DUP7 ADD PUSH2 0x10D8 JUMP JUMPDEST SWAP3 POP POP PUSH1 0x20 PUSH2 0x129D DUP6 DUP3 DUP7 ADD PUSH2 0x10D8 JUMP JUMPDEST SWAP2 POP POP SWAP3 POP SWAP3 SWAP1 POP JUMP JUMPDEST PUSH1 0x0 DUP2 MLOAD SWAP1 POP SWAP2 SWAP1 POP JUMP JUMPDEST PUSH1 0x0 DUP3 DUP3 MSTORE PUSH1 0x20 DUP3 ADD SWAP1 POP SWAP3 SWAP2 POP POP JUMP JUMPDEST PUSH1 0x0 DUP2 SWAP1 POP PUSH1 0x20 DUP3 ADD SWAP1 POP SWAP2 SWAP1 POP JUMP JUMPDEST PUSH1 0x80 DUP3 ADD PUSH1 0x0 DUP3 ADD MLOAD PUSH2 0x12E9 PUSH1 0x0 DUP6 ADD DUP3 PUSH2 0x11CA JUMP JUMPDEST POP PUSH1 0x20 DUP3 ADD MLOAD PUSH2 0x12FC PUSH1 0x20 DUP6 ADD DUP3 PUSH2 0x11D9 JUMP JUMPDEST POP PUSH1 0x40 DUP3 ADD MLOAD PUSH2 0x130F PUSH1 0x40 DUP6 ADD DUP3 PUSH2 0x11CA JUMP JUMPDEST POP PUSH1 0x60 DUP3 ADD MLOAD PUSH2 0x1322 PUSH1 0x60 DUP6 ADD DUP3 PUSH2 0x11E8 JUMP JUMPDEST POP POP POP POP JUMP JUMPDEST PUSH1 0x0 PUSH2 0x1334 DUP4 DUP4 PUSH2 0x12D3 JUMP JUMPDEST PUSH1 0x80 DUP4 ADD SWAP1 POP SWAP3 SWAP2 POP POP JUMP JUMPDEST PUSH1 0x0 PUSH1 0x20 DUP3 ADD SWAP1 POP SWAP2 SWAP1 POP JUMP JUMPDEST PUSH1 0x0 PUSH2 0x1358 DUP3 PUSH2 0x12A7 JUMP JUMPDEST PUSH2 0x1362 DUP2 DUP6 PUSH2 0x12B2 JUMP JUMPDEST SWAP4 POP PUSH2 0x136D DUP4 PUSH2 0x12C3 JUMP JUMPDEST DUP1 PUSH1 0x0 JUMPDEST DUP4 DUP2 LT ISZERO PUSH2 0x139E JUMPI DUP2 MLOAD PUSH2 0x1385 DUP9 DUP3 PUSH2 0x1328 JUMP JUMPDEST SWAP8 POP PUSH2 0x1390 DUP4 PUSH2 0x1340 JUMP JUMPDEST SWAP3 POP POP PUSH1 0x1 DUP2 ADD SWAP1 POP PUSH2 0x1371 JUMP JUMPDEST POP DUP6 SWAP4 POP POP POP POP SWAP3 SWAP2 POP POP JUMP JUMPDEST PUSH1 0x0 PUSH1 0x20 DUP3 ADD SWAP1 POP DUP2 DUP2 SUB PUSH1 0x0 DUP4 ADD MSTORE PUSH2 0x13C5 DUP2 DUP5 PUSH2 0x134D JUMP JUMPDEST SWAP1 POP SWAP3 SWAP2 POP POP JUMP JUMPDEST PUSH1 0x0 PUSH1 0x20 DUP3 ADD SWAP1 POP PUSH2 0x13E2 PUSH1 0x0 DUP4 ADD DUP5 PUSH2 0x115B JUMP JUMPDEST SWAP3 SWAP2 POP POP JUMP JUMPDEST PUSH1 0x0 DUP2 SWAP1 POP SWAP2 SWAP1 POP JUMP JUMPDEST PUSH1 0x0 PUSH2 0x140D PUSH2 0x1408 PUSH2 0x1403 DUP5 PUSH2 0x1129 JUMP JUMPDEST PUSH2 0x13E8 JUMP JUMPDEST PUSH2 0x1129 JUMP JUMPDEST SWAP1 POP SWAP2 SWAP1 POP JUMP JUMPDEST PUSH1 0x0 PUSH2 0x141F DUP3 PUSH2 0x13F2 JUMP JUMPDEST SWAP1 POP SWAP2 SWAP1 POP JUMP JUMPDEST PUSH1 0x0 PUSH2 0x1431 DUP3 PUSH2 0x1414 JUMP JUMPDEST SWAP1 POP SWAP2 SWAP1 POP JUMP JUMPDEST PUSH2 0x1441 DUP2 PUSH2 0x1426 JUMP JUMPDEST DUP3 MSTORE POP POP JUMP JUMPDEST PUSH1 0x0 PUSH1 0x20 DUP3 ADD SWAP1 POP PUSH2 0x145C PUSH1 0x0 DUP4 ADD DUP5 PUSH2 0x1438 JUMP JUMPDEST SWAP3 SWAP2 POP POP JUMP JUMPDEST PUSH1 0x0 DUP3 DUP3 MSTORE PUSH1 0x20 DUP3 ADD SWAP1 POP SWAP3 SWAP2 POP POP JUMP JUMPDEST PUSH32 0x4E6F74207468652061646D696E00000000000000000000000000000000000000 PUSH1 0x0 DUP3 ADD MSTORE POP JUMP JUMPDEST PUSH1 0x0 PUSH2 0x14A9 PUSH1 0xD DUP4 PUSH2 0x1462 JUMP JUMPDEST SWAP2 POP PUSH2 0x14B4 DUP3 PUSH2 0x1473 JUMP JUMPDEST PUSH1 0x20 DUP3 ADD SWAP1 POP SWAP2 SWAP1 POP JUMP JUMPDEST PUSH1 0x0 PUSH1 0x20 DUP3 ADD SWAP1 POP DUP2 DUP2 SUB PUSH1 0x0 DUP4 ADD MSTORE PUSH2 0x14D8 DUP2 PUSH2 0x149C JUMP JUMPDEST SWAP1 POP SWAP2 SWAP1 POP JUMP JUMPDEST PUSH32 0x4E465420616C726561647920736F6C6400000000000000000000000000000000 PUSH1 0x0 DUP3 ADD MSTORE POP JUMP JUMPDEST PUSH1 0x0 PUSH2 0x1515 PUSH1 0x10 DUP4 PUSH2 0x1462 JUMP JUMPDEST SWAP2 POP PUSH2 0x1520 DUP3 PUSH2 0x14DF JUMP JUMPDEST PUSH1 0x20 DUP3 ADD SWAP1 POP SWAP2 SWAP1 POP JUMP JUMPDEST PUSH1 0x0 PUSH1 0x20 DUP3 ADD SWAP1 POP DUP2 DUP2 SUB PUSH1 0x0 DUP4 ADD MSTORE PUSH2 0x1544 DUP2 PUSH2 0x1508 JUMP JUMPDEST SWAP1 POP SWAP2 SWAP1 POP JUMP JUMPDEST PUSH1 0x0 PUSH1 0x60 DUP3 ADD SWAP1 POP PUSH2 0x1560 PUSH1 0x0 DUP4 ADD DUP7 PUSH2 0x115B JUMP JUMPDEST PUSH2 0x156D PUSH1 0x20 DUP4 ADD DUP6 PUSH2 0x115B JUMP JUMPDEST PUSH2 0x157A PUSH1 0x40 DUP4 ADD DUP5 PUSH2 0x111A JUMP JUMPDEST SWAP5 SWAP4 POP POP POP POP JUMP JUMPDEST PUSH32 0x5265656E7472616E742063616C6C000000000000000000000000000000000000 PUSH1 0x0 DUP3 ADD MSTORE POP JUMP JUMPDEST PUSH1 0x0 PUSH2 0x15B8 PUSH1 0xE DUP4 PUSH2 0x1462 JUMP JUMPDEST SWAP2 POP PUSH2 0x15C3 DUP3 PUSH2 0x1582 JUMP JUMPDEST PUSH1 0x20 DUP3 ADD SWAP1 POP SWAP2 SWAP1 POP JUMP JUMPDEST PUSH1 0x0 PUSH1 0x20 DUP3 ADD SWAP1 POP DUP2 DUP2 SUB PUSH1 0x0 DUP4 ADD MSTORE PUSH2 0x15E7 DUP2 PUSH2 0x15AB JUMP JUMPDEST SWAP1 POP SWAP2 SWAP1 POP JUMP JUMPDEST PUSH32 0x496E636F72726563742070726963650000000000000000000000000000000000 PUSH1 0x0 DUP3 ADD MSTORE POP JUMP JUMPDEST PUSH1 0x0 PUSH2 0x1624 PUSH1 0xF DUP4 PUSH2 0x1462 JUMP JUMPDEST SWAP2 POP PUSH2 0x162F DUP3 PUSH2 0x15EE JUMP JUMPDEST PUSH1 0x20 DUP3 ADD SWAP1 POP SWAP2 SWAP1 POP JUMP JUMPDEST PUSH1 0x0 PUSH1 0x20 DUP3 ADD SWAP1 POP DUP2 DUP2 SUB PUSH1 0x0 DUP4 ADD MSTORE PUSH2 0x1653 DUP2 PUSH2 0x1617 JUMP JUMPDEST SWAP1 POP SWAP2 SWAP1 POP JUMP JUMPDEST PUSH32 0x43616E6E6F742062757920796F7572206F776E204E4654000000000000000000 PUSH1 0x0 DUP3 ADD MSTORE POP JUMP JUMPDEST PUSH1 0x0 PUSH2 0x1690 PUSH1 0x17 DUP4 PUSH2 0x1462 JUMP JUMPDEST SWAP2 POP PUSH2 0x169B DUP3 PUSH2 0x165A JUMP JUMPDEST PUSH1 0x20 DUP3 ADD SWAP1 POP SWAP2 SWAP1 POP JUMP JUMPDEST PUSH1 0x0 PUSH1 0x20 DUP3 ADD SWAP1 POP DUP2 DUP2 SUB PUSH1 0x0 DUP4 ADD MSTORE PUSH2 0x16BF DUP2 PUSH2 0x1683 JUMP JUMPDEST SWAP1 POP SWAP2 SWAP1 POP JUMP JUMPDEST PUSH1 0x0 DUP2 SWAP1 POP SWAP3 SWAP2 POP POP JUMP JUMPDEST POP JUMP JUMPDEST PUSH1 0x0 PUSH2 0x16E1 PUSH1 0x0 DUP4 PUSH2 0x16C6 JUMP JUMPDEST SWAP2 POP PUSH2 0x16EC DUP3 PUSH2 0x16D1 JUMP JUMPDEST PUSH1 0x0 DUP3 ADD SWAP1 POP SWAP2 SWAP1 POP JUMP JUMPDEST PUSH1 0x0 PUSH2 0x1702 DUP3 PUSH2 0x16D4 JUMP JUMPDEST SWAP2 POP DUP2 SWAP1 POP SWAP2 SWAP1 POP JUMP JUMPDEST PUSH32 0x4661696C656420746F2073656E64207061796D656E7400000000000000000000 PUSH1 0x0 DUP3 ADD MSTORE POP JUMP JUMPDEST PUSH1 0x0 PUSH2 0x1742 PUSH1 0x16 DUP4 PUSH2 0x1462 JUMP JUMPDEST SWAP2 POP PUSH2 0x174D DUP3 PUSH2 0x170C JUMP JUMPDEST PUSH1 0x20 DUP3 ADD SWAP1 POP SWAP2 SWAP1 POP JUMP JUMPDEST PUSH1 0x0 PUSH1 0x20 DUP3 ADD SWAP1 POP DUP2 DUP2 SUB PUSH1 0x0 DUP4 ADD MSTORE PUSH2 0x1771 DUP2 PUSH2 0x1735 JUMP JUMPDEST SWAP1 POP SWAP2 SWAP1 POP JUMP JUMPDEST PUSH1 0x0 PUSH1 0x20 DUP3 ADD SWAP1 POP PUSH2 0x178D PUSH1 0x0 DUP4 ADD DUP5 PUSH2 0x111A JUMP JUMPDEST SWAP3 SWAP2 POP POP JUMP JUMPDEST PUSH2 0x179C DUP2 PUSH2 0x1149 JUMP JUMPDEST DUP2 EQ PUSH2 0x17A7 JUMPI PUSH1 0x0 DUP1 REVERT JUMPDEST POP JUMP JUMPDEST PUSH1 0x0 DUP2 MLOAD SWAP1 POP PUSH2 0x17B9 DUP2 PUSH2 0x1793 JUMP JUMPDEST SWAP3 SWAP2 POP POP JUMP JUMPDEST PUSH1 0x0 PUSH1 0x20 DUP3 DUP5 SUB SLT ISZERO PUSH2 0x17D5 JUMPI PUSH2 0x17D4 PUSH2 0x10B2 JUMP JUMPDEST JUMPDEST PUSH1 0x0 PUSH2 0x17E3 DUP5 DUP3 DUP6 ADD PUSH2 0x17AA JUMP JUMPDEST SWAP2 POP POP SWAP3 SWAP2 POP POP JUMP JUMPDEST PUSH32 0x4E6F7420746865206F776E657200000000000000000000000000000000000000 PUSH1 0x0 DUP3 ADD MSTORE POP JUMP JUMPDEST PUSH1 0x0 PUSH2 0x1822 PUSH1 0xD DUP4 PUSH2 0x1462 JUMP JUMPDEST SWAP2 POP PUSH2 0x182D DUP3 PUSH2 0x17EC JUMP JUMPDEST PUSH1 0x20 DUP3 ADD SWAP1 POP SWAP2 SWAP1 POP JUMP JUMPDEST PUSH1 0x0 PUSH1 0x20 DUP3 ADD SWAP1 POP DUP2 DUP2 SUB PUSH1 0x0 DUP4 ADD MSTORE PUSH2 0x1851 DUP2 PUSH2 0x1815 JUMP JUMPDEST SWAP1 POP SWAP2 SWAP1 POP JUMP JUMPDEST PUSH32 0x5072696365206D7573742062652067726561746572207468616E207A65726F00 PUSH1 0x0 DUP3 ADD MSTORE POP JUMP JUMPDEST PUSH1 0x0 PUSH2 0x188E PUSH1 0x1F DUP4 PUSH2 0x1462 JUMP JUMPDEST SWAP2 POP PUSH2 0x1899 DUP3 PUSH2 0x1858 JUMP JUMPDEST PUSH1 0x20 DUP3 ADD SWAP1 POP SWAP2 SWAP1 POP JUMP JUMPDEST PUSH1 0x0 PUSH1 0x40 DUP3 ADD SWAP1 POP DUP2 DUP2 SUB PUSH1 0x0 DUP4 ADD MSTORE PUSH2 0x18BD DUP2 PUSH2 0x1881 JUMP JUMPDEST SWAP1 POP PUSH2 0x18CC PUSH1 0x20 DUP4 ADD DUP5 PUSH2 0x111A JUMP JUMPDEST SWAP3 SWAP2 POP POP JUMP JUMPDEST PUSH32 0x4E487B7100000000000000000000000000000000000000000000000000000000 PUSH1 0x0 MSTORE PUSH1 0x32 PUSH1 0x4 MSTORE PUSH1 0x24 PUSH1 0x0 REVERT JUMPDEST PUSH32 0x4E487B7100000000000000000000000000000000000000000000000000000000 PUSH1 0x0 MSTORE PUSH1 0x11 PUSH1 0x4 MSTORE PUSH1 0x24 PUSH1 0x0 REVERT JUMPDEST PUSH1 0x0 PUSH2 0x193B DUP3 PUSH2 0x10B7 JUMP JUMPDEST SWAP2 POP PUSH2 0x1946 DUP4 PUSH2 0x10B7 JUMP JUMPDEST SWAP3 POP DUP3 DUP3 SUB SWAP1 POP DUP2 DUP2 GT ISZERO PUSH2 0x195E JUMPI PUSH2 0x195D PUSH2 0x1901 JUMP JUMPDEST JUMPDEST SWAP3 SWAP2 POP POP JUMP JUMPDEST PUSH32 0x4E487B7100000000000000000000000000000000000000000000000000000000 PUSH1 0x0 MSTORE PUSH1 0x31 PUSH1 0x4 MSTORE PUSH1 0x24 PUSH1 0x0 REVERT INVALID LOG2 PUSH5 0x6970667358 0x22 SLT KECCAK256 0xAA BASEFEE PUSH14 0xDA65B00A6EBA030E773677C5502 CALLCODE 0xAA 0xDD PREVRANDAO LOG4 MUL 0xC9 STOP KECCAK256 PUSH5 0x684D7B76D8 PUSH5 0x736F6C6343 STOP ADDMOD XOR STOP CALLER "},"methodIdentifiers":{"admin()":"f851a440","allNfts(uint256)":"c529de65","buyNFT(uint256)":"51ed8288","cancelNFT(uint256)":"313e2eb9","getAllNFTs()":"e0391b09","getNFT(uint256)":"576f7ea7","idTonft(uint256)":"3c1988c5","listNFT(uint256,uint256)":"94383f14","token()":"fc0c546a"}}}}}